:0400000096EF1CF06B
:100800000044697374616E636961206573203A20E6
:100810000025352E316600494E46004E414E006996
:100820006E66006E616E006C6600636D0000000E07
:1008300000017B6F000E7A6F30C08CF031C08DF0FC
:1008400032C08EF033C08FF08FBF2BEF04F029EF52
:1008500004F041EF04F0000E7B6F010E7A6F8CC044
:1008600001F08DC002F08EC003F08FC004F029ECBF
:100870001CF001C08CF002C08DF003C08EF004C0EB
:100880008FF0000E0001936F000E926FC2C07EF0D9
:10089000C3C07FF07A517B11D8A451EF04F053EF1D
:1008A00004F05AEF04F05EA458EF04F05AEF04F09D
:1008B00074EF04F07A517B11D8A461EF04F063EF78
:1008C00004F069EF04F0000E616F2B0E606F6DEFA6
:1008D00004F0000E616F2D0E606F60C000F1924B4E
:1008E000932B7E07D8A07F078CC001F08DC002F04B
:1008F0008EC003F08FC004F0E4EC16F00104021087
:10090000D8A485EF04F087EF04F0DEEF04F0BF0E0B
:10091000356EFF0E366E3450376E386A35503726D6
:100920003650382238500AE11A0E375CD8A09BEFB7
:1009300004F09EEF04F0010E9FEF04F0000E0001A2
:10094000626F636B62516311D8B4A9EF04F0ABEF2F
:1009500004F0B9EF04F0000E9225016E010E932110
:10096000026E170E036E080E046ED4EC1AF0C5EF7B
:1009700004F0000E9225016E010E9321026E1F0EEF
:10098000036E080E046ED4EC1AF00001FD0E7E27F3
:10099000FF0E7F232EC011F02FC012F0000E136E39
:1009A000010E146E7EC015F07FC016F095EC18F0A5
:1009B00011C02EF012C02FF043EF0AF08CC001F0EE
:1009C0008DC002F08EC003F08FC004F0E4EC16F08E
:1009D00001500210D8A4EFEF04F0F1EF04F031EF72
:1009E00005F0BF0E356EFF0E366E3450376E386A26
:1009F000355037263650382238500AE11A0E375C07
:100A0000D8A005EF05F008EF05F0010E09EF05F09D
:100A1000000E0001646F656B64516511D8B413EF6B
:100A200005F015EF05F023EF05F0000E9225016E9D
:100A3000010E9321026E1B0E036E080E046ED4ECA1
:100A40001AF0C5EF04F0000E9225016E010E9321FD
:100A5000026E230E036E080E046ED4EC1AF0C5EF7E
:100A600004F0000E0001946F000E956F800E966FDB
:100A70003F0E976F000E916F000E906F8CC001F0CB
:100A80008DC002F08EC003F08FC004F0000E056E22
:100A9000000E066E000E076E000E086E4EEC19F08A
:100AA000D8B055EF05F057EF05F0DAEF05F076EF27
:100AB00005F094C001F095C002F096C003F097C015
:100AC00004F0000E056E000E066E200E076E410E3D
:100AD000086E52EC0FF001C094F002C095F003C014
:100AE00096F004C097F00001904B912B8CC01AF047
:100AF0008DC01BF08EC01CF08FC01DF0000E056E67
:100B0000000E066E200E076E410E086E94C001F0B6
:100B100095C002F096C003F097C004F052EC0FF0BD
:100B200001C01EF002C01FF003C020F004C021F07D
:100B300062EC16F0D8B09FEF05F0A1EF05F059EF89
:100B400005F0C1EF05F094C001F095C002F096C029
:100B500003F097C004F0000E056E000E066E200E26
:100B6000076E410E086E67EC11F001C094F002C0F0
:100B700095F003C096F004C097F000019007D8A04C
:100B800091078CC01AF08DC01BF08EC01CF08FC076
:100B90001DF094C01EF095C01FF096C020F097C0C5
:100BA00021F062EC16F0D8A0D8EF05F0DAEF05F0EE
:100BB000A3EF05F034C007F0086A75EC1AF007508F
:100BC0000001816F81C080F0670E8119D8A4EBEF1E
:100BD00005F0EDEF05F013EF06F05C505D10D8A4C2
:100BE000F4EF05F0F6EF05F0FAEF05F0000E5D6E9C
:100BF000010E5C6E5DBE07EF06F05D5006E15C0421
:100C0000D8B005EF06F007EF06F00DEF06F0000E86
:100C10007D6F060E7C6F1CEF06F05CC07CF05DC043
:100C20007DF01CEF06F05DBE18EF06F01AEF06F03F
:100C300007EF06F00DEF06F0670E8119D8A423EF39
:100C400006F025EF06F054EF06F091AF33EF06F013
:100C5000FC0E905DFF0E9159D8A031EF06F033EFF6
:100C600006F052EF06F0FF0E356EFF0E366E7CC0BA
:100C700037F07DC038F03550372636503822905145
:100C8000375C3850800A396E9151800A3958D8A0A3
:100C90004CEF06F04EEF06F052EF06F0660E806F56
:100CA00054EF06F0650E806F7CC072F07DC073F06B
:100CB000670E8119D8A45FEF06F061EF06F071EFBF
:100CC00006F0660E8019D8A468EF06F06AEF06F009
:100CD00073EF06F091BF71EF06F06FEF06F073EF60
:100CE00006F0724B732B660E8019D8A47AEF06F0CB
:100CF0007CEF06F09CEF06F091BF83EF06F081EFEA
:100D000006F08FEF06F0000E946F000E956F800EC8
:100D1000966F3F0E976F000E916F000E906F670EEB
:100D20008119D8B496EF06F098EF06F09CEF06F024
:100D30009051722791517323000E8B6F000E8A6FB2
:100D40008CC082F08DC083F08EC084F08FC085F09F
:100D500094C074F095C075F096C076F097C077F0A7
:100D60002DEF07F082C001F083C002F084C003F0D1
:100D700085C004F094C005F095C006F096C007F059
:100D800097C008F067EC11F001C01AF002C01BF028
:100D900003C01CF004C01DF034EC13F01AC086F040
:100DA0001BC087F01CC088F01DC089F086C001F010
:100DB00087C002F088C003F089C004F0DFEC15F0B2
:100DC00001C078F002C079F082C01AF083C01BF035
:100DD00084C01CF085C01DF094C005F095C006F0DD
:100DE00096C007F097C008F086C001F087C002F0F7
:100DF00088C003F089C004F052EC0FF001C01EF06F
:100E000002C01FF003C020F004C021F0A7EC1BF0CB
:100E10001AC082F01BC083F01CC084F01DC085F096
:100E200094C001F095C002F096C003F097C004F0A2
:100E3000000E056E000E066E200E076E410E086E47
:100E400067EC11F001C094F002C095F003C096F079
:100E500004C097F000018A4B8B2B72518A5D8B5135
:100E6000800A356E7351800A3558D8A03AEF07F0E2
:100E70003CEF07F0B2EF06F094C001F095C002F02D
:100E800096C003F097C004F0000E056E000E066ECB
:100E9000A00E076E400E086E52EC0FF001C086F0F7
:100EA00002C087F003C088F004C089F082C01AF045
:100EB00083C01BF084C01CF085C01DF086C01EF0EE
:100EC00087C01FF088C020F089C021F062EC16F0C6
:100ED000D8B06DEF07F06FEF07F07AEF07F0000E74
:100EE0000001866F000E876F000E886F000E896FFD
:100EF000A3EF07F082C001F083C002F084C003F0CA
:100F000085C004F086C005F087C006F088C007F0F1
:100F100089C008F04EEC19F0D8A091EF07F093EFDC
:100F200007F0A3EF07F0000178B199EF07F09BEF0E
:100F300007F0A3EF07F0000E866F000E876F000E1C
:100F4000886F000E896F8CC001F08DC002F08EC0DA
:100F500003F08FC004F086C005F087C006F088C09B
:100F600007F089C008F0F2EC0CF001C082F002C07A
:100F700083F003C084F004C085F082C01AF083C0FF
:100F80001BF084C01CF085C01DF0000E056E000E25
:100F9000066E200E076E410E086E74C001F075C01B
:100FA00002F076C003F077C004F052EC0FF001C0FD
:100FB0001EF002C01FF003C020F004C021F062EC5C
:100FC00016F0D8A0E6EF07F0E8EF07F011EF08F011
:100FD0000001904B912B74C001F075C002F076C0F7
:100FE00003F077C004F0000E056E000E066E200EB2
:100FF000076E410E086E52EC0FF001C074F002C093
:1010000075F003C076F004C077F0660E0001801919
:10101000D8A40DEF08F00FEF08F011EF08F0724BB5
:10102000732B74C094F075C095F076C096F077C0BD
:1010300097F0650E00018019D8B421EF08F023EF76
:1010400008F029EF08F090C070F091C071F02DEF1A
:1010500008F0000E716F000E706F000E6F6F000EC3
:101060006E6F000E6D6F000E6C6F000E8B6F000EBA
:101070008A6F29EF09F082C001F083C002F084C0BA
:1010800003F085C004F094C005F095C006F096C04A
:1010900007F097C008F067EC11F001C01AF002C029
:1010A0001BF003C01CF004C01DF034EC13F01AC098
:1010B00086F01BC087F01CC088F01DC089F086C078
:1010C00001F087C002F088C003F089C004F0DFECB3
:1010D00015F001C078F002C079F05EB872EF08F048
:1010E00074EF08F092EF08F0000178517911D8A45C
:1010F0007CEF08F07EEF08F092EF08F0670E8119A0
:10110000D8A485EF08F087EF08F092EF08F071BFE0
:101110008EEF08F08CEF08F092EF08F06C4B6D2B1F
:10112000DDEF08F000016E516F11D8A49AEF08F0BE
:101130009CEF08F0C6EF08F071BFA3EF08F0A1EF35
:1011400008F0C6EF08F0000E9225D96E010E93212B
:10115000DA6E2E0EDF6E924B932B7E07D8A07F07A0
:10116000000E6F6F010E6E6FC6EF08F0000E922535
:10117000D96E010E9321DA6E300EDF6E924B932BF7
:101180007E07D8A07F076C07D8A06D076C516D1142
:10119000D8A4CDEF08F0CFEF08F0B6EF08F0000EBE
:1011A0009225D96E010E9321DA6E7851300FDF6EE1
:1011B000924B932B7E07D8A07F0782C01AF083C082
:1011C0001BF084C01CF085C01DF094C005F095C0D4
:1011D00006F096C007F097C008F086C001F087C0FF
:1011E00002F088C003F089C004F052EC0FF001C097
:1011F0001EF002C01FF003C020F004C021F0A7ECD5
:101200001BF01AC082F01BC083F01CC084F01DC00C
:1012100085F094C001F095C002F096C003F097C02D
:1012200004F0000E056E000E066E200E076E410ED5
:10123000086E67EC11F001C094F002C095F003C095
:1012400096F004C097F000017007D8A071078A4B90
:101250008B2B72518A5D8B51800A356E7351800AD7
:101260003558D8B036EF09F038EF09F046EF09F0FD
:1012700093BF44EF09F0935109E14B0E925DD8A062
:1012800044EF09F046EF09F03BEF08F06E516F11A3
:10129000D8A44DEF09F04FEF09F060EF09F05EA818
:1012A00054EF09F056EF09F060EF09F0000E9225B7
:1012B000D96E010E9321DA6E2E0EDF6E924B932BB8
:1012C000000E9225D96E010E9321DA6E000EDF6EAC
:1012D000650E8019D8A46FEF09F071EF09F0CAEF1D
:1012E00004F0000E8B6F4F0E8A6F000E8A25D96EA8
:1012F000010E8B21DA6E000EDF6E000E7B6F000E8A
:101300007A6F91BF88EF09F086EF09F090EF09F04E
:10131000000E7B6F010E7A6F906D911FD8B0912BEC
:10132000000E7D6F020E7C6FC1EF09F08A07D8A016
:101330008B07000E8A25D96E010E8B21DA6E90C0C4
:1013400001F091C002F0000E046E0A0E036EF6EC7E
:1013500018F00150300FDF6E90C001F091C002F024
:10136000000E046E0A0E036E33EC18F001C090F00C
:1013700002C091F000017C07D8A07D077E07D8A0AD
:101380007F0790519111D8A4C8EF09F0CAEF09F076
:1013900096EF09F07DBFD7EF09F07D5106E17C059E
:1013A000D8B0D5EF09F0D7EF09F096EF09F08A072A
:1013B000D8A08B077A517B11D8A4E1EF09F0E3EFB5
:1013C00009F0E9EF09F0000E676F2B0E666FEDEF85
:1013D00009F0000E676F2D0E666F000E8A25D96E1C
:1013E000010E8B21DA6E66C0DFFF7E07D8A07F0773
:1013F0008A07D8A08B07BF0E356EFF0E366E3450AD
:10140000376E386A355037263650382238500AE160
:101410001A0E375CD8A00FEF0AF012EF0AF0010E97
:1014200013EF0AF0000E6A6F6B6B6A516B11D8A450
:101430001CEF0AF01EEF0AF024EF0AF0000E696FAD
:10144000650E686F28EF0AF0000E696F450E686F31
:10145000000E8A25D96E010E8B21DA6E68C0DFFF7F
:101460007E07D8A07F07000E9225016E010E932102
:10147000026E000E8A25036E010E8B21046ED4ECE1
:101480001AF0CAEF04F012003CC0D9FF3DC0DAFFE9
:10149000DECFF6FFDDCFF7FF0800F550250AD8A410
:1014A00054EF0AF056EF0AF0D6EF0CF03CC0D9FF2B
:1014B0003DC0DAFFDE2A000EDD22000E0001C36F00
:1014C000000EC26FC2C05EF0C3C05FF05C685D68B2
:1014D0003CC0D9FF3DC0DAFFDECFF6FFDDCFF7FF1E
:1014E0000800F5502A0AD8A478EF0AF07AEF0AF03B
:1014F000A3EF0AF03CC0D9FF3DC0DAFFDE2A000EA0
:10150000DD223EC0D9FF3FC0DAFFDFCF40F0020E40
:10151000DE26DFCF41F0000EDD2240C0D9FF41C002
:10152000DAFFDECFC2F0DDCFC3F0C3BF9CEF0AF01D
:101530009AEF0AF0E6EF0AF05E80C26DC31FD8B0E2
:10154000C32BE6EF0AF03CC0D9FF3DC0DAFFDECF87
:1015500008F0DDCF09F017EC15F008C0C2F009C0A3
:10156000C3F0BAEF0AF03CC0D9FF3DC0DAFFDE2A73
:10157000000EDD22D00E406EFF0E416E3CC0D9FF42
:101580003DC0DAFFDECFF6FFDDCFF7FF0800F550F4
:10159000426E436A405042264150432243500AE182
:1015A0000A0E425CD8A0D7EF0AF0DAEF0AF0010E7B
:1015B000DBEF0AF0000E446E456A44504510D8A493
:1015C000E4EF0AF0E6EF0AF0B3EF0AF03CC0D9FF0F
:1015D0003DC0DAFFDECFF6FFDDCFF7FF0800F550A4
:1015E0002E0AD8A4F6EF0AF0F8EF0AF075EF0BF028
:1015F000000E5D6E000E5C6E3CC0D9FF3DC0DAFF90
:10160000DE2A000EDD223CC0D9FF3DC0DAFFDECF6E
:10161000F6FFDDCFF7FF0800F5502A0AD8A413EF34
:101620000BF015EF0BF032EF0BF03CC0D9FF3DC0D3
:10163000DAFFDE2A000EDD223EC0D9FF3FC0DAFF0E
:10164000DFCF40F0020EDE26DFCF41F0000EDD22BC
:1016500040C0D9FF41C0DAFFDECF5CF0DDCF5DF0E6
:1016600075EF0BF03CC0D9FF3DC0DAFFDECF08F0CC
:10167000DDCF09F017EC15F008C05CF009C05DF093
:1016800049EF0BF03CC0D9FF3DC0DAFFDE2A000E67
:10169000DD22D00E406EFF0E416E3CC0D9FF3DC032
:1016A000DAFFDECFF6FFDDCFF7FF0800F550426E20
:1016B000436A405042264150432243500AE10A0EF9
:1016C000425CD8A066EF0BF069EF0BF0010E6AEFF9
:1016D0000BF0000E466E476A46504710D8A473EFD1
:1016E0000BF075EF0BF042EF0BF03CC0D9FF3DC0A3
:1016F000DAFFDECFF6FFDDCFF7FF0800F550076E0B
:10170000086A75EC1AF007504E6E4E50D8B48BEF45
:101710000BF08DEF0BF0C5EF0BF03CC0D9FF3DC0D7
:10172000DAFFDECF40F0DDCF41F0010E4026000EA3
:10173000412240C0F6FF41C0F7FF0800F550076E98
:10174000086A75EC1AF007504F6E4F50D8B4ABEFE3
:101750000BF0ADEF0BF0C5EF0BF03CC0D9FF3DC077
:10176000DAFFDECF40F0DDCF41F0020E4026000E62
:10177000412240C0F6FF41C0F7FF0800F550076E58
:10178000086A75EC1AF00750506E660E4E18D8A411
:10179000CCEF0BF0CEEF0BF00EEF0CF03CC0D9FF0E
:1017A0003DC0DAFFDECFF6FFDDCFF7FF0800F5CF53
:1017B00051F03CC0D9FF3DC0DAFFDE2A000EDD2229
:1017C0003EC0D9FF3FC0DAFFDFCF40F0040EDE2677
:1017D000DFCF41F0000EDD2240C0D9FF41C0DAFF6B
:1017E000DECF4AF0DECF4BF0DECF4CF0DECF4DF057
:1017F0003AC02EF03BC02FF04AC030F04BC031F061
:101800004CC032F04DC033F051C034F017EC04F04E
:101810002EC03AF02FC03BF0F1EF0CF04E0E016EEF
:10182000000E026E270E036E080E046E000E066E8A
:10183000020E056E63EC17F001500210D8A423EFDE
:101840000CF025EF0CF0A0EF0CF03CC0D9FF3DC030
:10185000DAFFDECF40F0DDCF41F0010E4026000E72
:10186000412240C0F6FF41C0F7FF0800F5CF51F01C
:10187000BF0E406EFF0E416E3CC0D9FF3DC0DAFF87
:10188000DECFF6FFDDCFF7FF0800F550426E436A6A
:10189000405042264150432243500AE11A0E425C16
:1018A000D8A055EF0CF058EF0CF0010E59EF0CF0EA
:1018B000000E486E496A48504910D8B462EF0CF0E7
:1018C00064EF0CF07EEF0CF03EC0D9FF3FC0DAFFB2
:1018D000DFCF40F0040EDE26DFCF41F0000EDD2228
:1018E00040C0D9FF41C0DAFFDECF4AF0DECF4BF077
:1018F000DECF4CF0DECF4DF096EF0CF03EC0D9FFBE
:101900003FC0DAFFDFCF40F0040EDE26DFCF41F02C
:10191000000EDD2240C0D9FF41C0DAFFDECF4AF021
:10192000DECF4BF0DECF4CF0DECF4DF0020E3CC0F0
:10193000D9FF3DC0DAFFDE26000EDD22F8EF0BF006
:101940003CC0D9FF3DC0DAFFDECFF6FFDDCFF7FFA9
:101950000800F550250AD8A4B0EF0CF0B2EF0CF057
:10196000C9EF0CF03CC0D9FF3DC0DAFFDE2A000E03
:10197000DD22000E026E250E016E3AC003F03BC060
:1019800004F0CEEC17F0000E3B6E010E3A6EF1EF54
:101990000CF03CC0D9FF3DC0DAFFDE2A000EDD228C
:1019A000000E3B6E000E3A6EF1EF0CF03CC0D9FF1A
:1019B0003DC0DAFFDECFF6FFDDCFF7FF0800F550C0
:1019C000016E026A3AC003F03BC004F0CEEC17F09F
:1019D0003CC0D9FF3DC0DAFFDE2A000EDD22C3EF96
:1019E0000CF012000450800B0D6E045004240F6E96
:1019F00003AEFDEF0CF0FFEF0CF000EF0DF00F80E9
:101A00000F50D8B406EF0DF008EF0DF01DEF0DF0FC
:101A10000F28D8A40EEF0DF010EF0DF018EF0DF019
:101A2000000E016E000E026E000E036E000E046EBC
:101A3000038E000E046E25EF0DF0000E016E000EF9
:101A4000026E000E036E000E046E0850800B0E6EC8
:101A50000D500E18D8B42FEF0DF031EF0DF032EF1E
:101A60000DF00D8C085008240E6E07AE3AEF0DF005
:101A70003CEF0DF03DEF0DF00E800E50D8B443EF6B
:101A80000DF045EF0DF05AEF0DF00E28D8A44BEFF6
:101A90000DF04DEF0DF055EF0DF0000E056E000E40
:101AA000066E000E076E000E086E078E000E086EA2
:101AB00062EF0DF0000E056E000E066E000E076E52
:101AC000000E086E0F500E5CD8B069EF0DF06BEF92
:101AD0000DF092EF0DF00DAC70EF0DF072EF0DF018
:101AE00074EF0DF0800E0D1A0FC010F00EC00FF045
:101AF00010C00EF001C010F005C001F010C005F0DC
:101B000002C010F006C002F010C006F003C010F0D2
:101B100007C003F010C007F004C010F008C004F0C4
:101B200010C008F0000E106E0F500EC009F00A6AC7
:101B3000095E000E0A5A0ABEA7EF0DF00A5009E12D
:101B40001A0E095CD8A0A7EF0DF0A9EF0DF0E0EF99
:101B50000DF00150021003100410D8A4B2EF0DF0E4
:101B6000B5EF0DF0010EB6EF0DF0000E106E000E89
:101B7000016E000E026E000E036E000E046E0EC0AB
:101B80000FF0E9EF0DF010A0C8EF0DF0CAEF0DF067
:101B9000D0EF0DF0D89010300109106ED2EF0DF09B
:101BA000D890103201A0D7EF0DF0D9EF0DF0DAEF99
:101BB0000DF0108E043404320332023201320F2A47
:101BC0000E500F5CD8A0E7EF0DF0E9EF0DF0C3EF7A
:101BD0000DF00DBCEEEF0DF0F0EF0DF030EF0EF06C
:101BE0000F50D8A4F6EF0DF0F8EF0DF002EF0EF065
:101BF000000E016E000E026E000E036E000E046EEB
:101C000051EF0FF005500126065002220750032223
:101C10000850042204A00FEF0EF011EF0EF0BDEFFC
:101C20000EF010A016EF0EF018EF0EF01EEF0EF0F3
:101C3000D89010300109106E20EF0EF0D8901032BD
:101C400001A025EF0EF027EF0EF028EF0EF0108E1A
:101C5000043404320332023201320F2ABDEF0EF097
:101C60000550015C06500258075003580450800A82
:101C7000096E0850800A0958D8B041EF0EF043EFC2
:101C80000EF06EEF0EF00150055C096E0250065822
:101C90000A6E035007580B6E045008580C6EFF0E66
:101CA0000924016EFF0E0A20026EFF0E0B20036E48
:101CB000FF0E0C20046E800E0D1A106C1050D8A46C
:101CC00064EF0EF066EF0EF076EF0EF0010E0126D7
:101CD000000E02220322042276EF0EF00550015E70
:101CE0000650025A0750035A0850045A0150021075
:101CF00003100410D8A47FEF0EF081EF0EF0B6EFC2
:101D00000EF01050D8A487EF0EF089EF0EF0B6EF6A
:101D10000EF0000E016E000E026E000E036E000E3D
:101D2000046E51EF0FF0D8900136023603360436B8
:101D300010AE9DEF0EF09FEF0EF0A0EF0EF00180C1
:101D400010A0A5EF0EF0A7EF0EF0ABEF0EF0D880CD
:101D50001036ADEF0EF0D89010360F50D8B4B3EF68
:101D60000EF0B5EF0EF0B6EF0EF00F0603AEBBEFC0
:101D70000EF0BDEF0EF093EF0EF0000E0E6E10AEF3
:101D8000C4EF0EF0C6EF0EF0DEEF0EF010C009F05B
:101D90007F0E0916D8B4CFEF0EF0D1EF0EF0D5EFCD
:101DA0000EF0010E0E6EDEEF0EF001A0DAEF0EF077
:101DB000DCEF0EF0DEEF0EF0D1EF0EF00E50D8B4E7
:101DC000E4EF0EF0E6EF0EF011EF0FF0010E01263A
:101DD000000E02220322042204A0F1EF0EF0F3EF22
:101DE0000EF011EF0FF001C009F002C00AF003C0BD
:101DF0000BF004C00CF00C340C320B320A320932F6
:101E000009C001F00AC002F00BC003F00CC004F0DE
:101E10000F28D8B40EEF0FF010EF0FF011EF0FF006
:101E20000F2A0F28D8B417EF0FF019EF0FF021EF9A
:101E30000FF00F50D8A41FEF0FF021EF0FF033EF8A
:101E40000FF0000E016E000E026E000E036E000E0B
:101E5000046E0F50D8A42FEF0FF031EF0FF033EFD7
:101E60000FF0000E0D6E0FA038EF0FF03AEF0FF0ED
:101E70003DEF0FF0038E3EEF0FF0039ED8900F3032
:101E8000046E0DAE46EF0FF048EF0FF049EF0FF084
:101E9000048E01C001F002C002F003C003F004C0D0
:101EA00004F012000450800B0D6E04500424136ED5
:101EB00003AE5DEF0FF05FEF0FF060EF0FF01380F8
:101EC0001350D8B466EF0FF068EF0FF07BEF0FF010
:101ED0001328D8A46EEF0FF070EF0FF078EF0FF02B
:101EE000000E016E000E026E000E036E000E046EF8
:101EF000038E83EF0FF0000E016E000E026E000ED7
:101F0000036E000E046E0850800B0D1A0850082452
:101F1000126E07AE8EEF0FF090EF0FF091EF0FF013
:101F200012801250D8B497EF0FF099EF0FF0ACEF8A
:101F30000FF01228D8A49FEF0FF0A1EF0FF0A9EF38
:101F40000FF0000E056E000E066E000E076E000EFE
:101F5000086E078EB4EF0FF0000E056E000E066ED1
:101F6000000E076E000E086E1250D8B4BAEF0FF0D4
:101F7000BCEF0FF0C4EF0FF01350D8A4C2EF0FF076
:101F8000C4EF0FF0CEEF0FF0000E016E000E026EE8
:101F9000000E036E000E046E66EF11F00750010292
:101FA000F3CF18F0F4CF19F018500E6E0F6A106AC4
:101FB000116A1950146E156A166A176A06500202E1
:101FC000F3CF18F0F4CF19F018500E26000E0F22A0
:101FD0001022112219501426000E15221622172243
:101FE00005500302F3CF18F0F4CF19F018500E2665
:101FF000000E0F221022112219501426000E152255
:102000001622172210C011F00FC010F00EC00FF0F2
:102010000E6A05500202F3CF18F0F4CF19F01850F1
:102020000E2619500F22000E1022000E112206500B
:102030000102F3CF18F0F4CF19F018500E26195002
:102040000F22000E1022000E112210C011F00FC03E
:1020500010F00EC00FF00E6A05500102F3CF18F019
:10206000F4CF19F018500E2619500F22000E10222E
:10207000000E112207500202F3CF18F0F4CF19F02E
:102080001850142619501522000E1622000E172281
:1020900006500302F3CF18F0F4CF19F018501426AD
:1020A00019501522000E1622000E172207500302A7
:1020B000F3CF18F0F4CF19F01850096E19500A6ECA
:1020C0000B6A0C6A0BC00CF00AC00BF009C00AF0D6
:1020D000096A095014260A5015220B5016220C507A
:1020E00017220EC009F00FC00AF010C00BF011C08B
:1020F0000CF0190E81EF10F0D8900C320B320A322E
:102100000932E82E7CEF10F0095014260A501522EF
:102110000B5016220C50172210C011F00FC010F0F7
:102120000EC00FF00E6A125013C009F00A6A092699
:10213000000E0A22820E0924186EFF0E0A20196E64
:10214000B7EF10F0D890143615361636173611AE94
:10215000ACEF10F0AEEF10F0AFEF10F01480D890AD
:102160000E360F36103611361806D8A0190616AEE0
:10217000BCEF10F0BEEF10F0A2EF10F0000E126EE8
:1021800011AEC5EF10F0C7EF10F0EBEF10F0FF0E3F
:102190000E14096EFF0E0F140A6EFF0E10140B6E54
:1021A0007F0E11140C6E09500A100B100C10D8B4CD
:1021B000DCEF10F0DEEF10F0E2EF10F0010E126E27
:1021C000EBEF10F014A0E7EF10F0E9EF10F0EBEFF9
:1021D00010F0DEEF10F01250D8B4F1EF10F0F3EF82
:1021E00010F017EF11F0010E1426000E1522162222
:1021F000172217A0FEEF10F000EF11F017EF11F00B
:1022000014C009F015C00AF016C00BF017C00CF08E
:102210000C340C320B320A32093209C014F00AC0F5
:1022200015F00BC016F00CC017F0184A192A19BE89
:1022300022EF11F0195008E11828D8A022EF11F070
:1022400024EF11F02EEF11F0000E146E000E156E3B
:10225000800E166E7F0E176E5CEF11F019BE3BEF0D
:1022600011F0195006E11804D8B039EF11F03BEF26
:1022700011F047EF11F0000E146E000E156E000EF7
:10228000166E000E176E000E0D6E5CEF11F018C08A
:1022900013F0FF0E1416FF0E15167F0E1616000E05
:1022A000171613A056EF11F058EF11F059EF11F077
:1022B000168ED8901330176E0D50171214C001F0FF
:1022C00015C002F016C003F017C004F0120004504D
:1022D000800B116E04500424186E03AE72EF11F0DF
:1022E00074EF11F075EF11F018801850D8B47BEF2F
:1022F00011F07DEF11F092EF11F01828D8A483EFC0
:1023000011F085EF11F08DEF11F0000E016E000E4F
:10231000026E000E036E000E046E038E000E046E3D
:102320009AEF11F0000E016E000E026E000E036EA9
:10233000000E046E0850800B111A08500824196E04
:1023400007AEA5EF11F0A7EF11F0A8EF11F019807B
:102350001950D8B4AEEF11F0B0EF11F0C5EF11F095
:102360001928D8A4B6EF11F0B8EF11F0C0EF11F0B2
:10237000000E056E000E066E000E076E000E086E53
:10238000078E000E086ECDEF11F0000E056E000EE8
:10239000066E000E076E000E086E05500610071040
:1023A0000810D8A4D6EF11F0D8EF11F0F0EF11F02B
:1023B000000E016E000E026E000E036E000E046E23
:1023C000800E03127F0E04121150041201C001F09E
:1023D00002C002F003C003F004C004F033EF13F0B6
:1023E0001850D8A4F6EF11F0F8EF11F002EF12F048
:1023F000000E016E000E026E000E036E000E046EE3
:1024000033EF13F0195018C009F00A6A095E000E84
:102410000A5A7F0E0924126E000E0A20136E01C0A4
:102420000DF002C00EF003C00FF004C010F0000E5B
:10243000016E000E026E000E036E000E046E000EA2
:10244000146E000E156E000E166E000E176E000E46
:10245000196E63EF12F01950D8B431EF12F033EF68
:1024600012F04AEF12F0D8900D360E360F361036B5
:10247000D890013602360336043617AE42EF12F01A
:1024800044EF12F045EF12F00180D8901436153663
:102490001636173605500D5C06500E5807500F586B
:1024A00008501058D8A057EF12F059EF12F062EF11
:1024B00012F0178C05500D5E06500E5A07500F5A39
:1024C0000850105A192A190E196469EF12F06BEFAF
:1024D00012F02BEF12F00D500E100F101010D8B498
:1024E00074EF12F076EF12F08EEF12F014808EEF90
:1024F00012F0D890013602360336043617AE83EF59
:1025000012F085EF12F086EF12F00180D8901436A9
:102510001536163617361206D8A0130603AE93EFFB
:1025200012F095EF12F079EF12F0000E196E17AE5F
:102530009CEF12F09EEF12F0C2EF12F0FF0E141497
:10254000096EFF0E15140A6EFF0E16140B6E7F0E29
:1025500017140C6E09500A100B100C10D8B4B3EFFE
:1025600012F0B5EF12F0B9EF12F0010E196EC2EFD2
:1025700012F001A0BEEF12F0C0EF12F0C2EF12F0A5
:10258000B5EF12F01950D8B4C8EF12F0CAEF12F03C
:10259000EEEF12F0010E0126000E022203220422A9
:1025A00004A0D5EF12F0D7EF12F0EEEF12F001C059
:1025B00009F002C00AF003C00BF004C00CF00C34A8
:1025C0000C320B320A32093209C001F00AC002F0A3
:1025D0000BC003F00CC004F0124A132A13BEF9EF2B
:1025E00012F0135008E11228D8A0F9EF12F0FBEF17
:1025F00012F006EF13F0000E136E1268000E016E5B
:10260000000E026E000E036E000E046E13BE13EF7A
:1026100013F0135006E11204D8B011EF13F013EFCA
:1026200013F021EF13F0000E136E000E126E000E69
:10263000016E000E026E000E036E000E046E000EA0
:10264000116E12C018F018A028EF13F02AEF13F043
:102650002DEF13F0038E2EEF13F0039ED890183059
:10266000046EE4EF11F01200B8C02AF0B9C02BF0EC
:10267000BAC02CF0BBC02DF01AC02AF01BC02BF042
:102680001CC02CF01DC02DF0810E1E6EFF0E1F6EA3
:102690002AC020F02BC021F02CC022F02DC023F046
:1026A000180E58EF13F0D890233222322132203204
:1026B000E82E53EF13F020501E24286E000E1F202A
:1026C000296E29BE6DEF13F0295009E1170E285C21
:1026D000D8A06DEF13F06FEF13F079EF13F01AC07D
:1026E0001AF01BC01BF01CC01CF01DC01DF03CEFFD
:1026F00014F029BE7EEF13F080EF13F0F0EF13F02B
:1027000028C01EF0FF0E1F6EFF0E206E7F0E216E82
:10271000000E226E1E668FEF13F097EF13F0223437
:102720002232213220321F321E2E8AEF13F01FC0B8
:1027300024F020C025F021C026F022C027F024502C
:102740002A141E6E25502B141F6E26502C14206E3A
:1027500027502D14216E1E501F1020102110D8A4B8
:10276000B4EF13F0B6EF13F0B8EF13F06FEF13F010
:102770002AC01EF02BC01FF02CC020F02DC021F06D
:10278000200EC8EF13F0D890213220321F321E32B3
:10279000E82EC3EF13F01E501F1020102110D8B4E4
:1027A000D4EF13F0D6EF13F0DEEF13F024502A2607
:1027B00025502B2226502C2227502D22241C1E6E01
:1027C000251C1F6E261C206E271C216E1E502A16EB
:1027D0001F502B1620502C1621502D1634EF14F0BC
:1027E0002AC01EF02BC01FF02CC020F02DC021F0FD
:1027F000200E00EF14F0D890213220321F321E320A
:10280000E82EFBEF13F01E501F1020102110D8A44B
:102810000CEF14F00EEF14F018EF14F0000E2A6E07
:10282000000E2B6E000E2C6E000E2D6E34EF14F089
:10283000D8902A341E6E2B341F6E2C34206E2D340B
:10284000216E1E501F1020102110D8B42AEF14F052
:102850002CEF14F034EF14F0000E2A6E000E2B6EE5
:10286000800E2C6EBF0E2D6E2AC01AF02BC01BF0EE
:102870002CC01CF02DC01DF01200096E0950D8B4F8
:1028800044EF14F046EF14F068EF14F004BE4DEF7F
:1028900014F04BEF14F068EF14F001C005F002C023
:1028A00006F003C007F004C008F0051E061E071E50
:1028B000081E052A000E06220722082205C00BF07A
:1028C00006C00CF007C00DF008C00EF070EF14F059
:1028D00001C00BF002C00CF003C00DF004C00EF0FC
:1028E0000150021003100410D8A479EF14F07BEF0C
:1028F00014F085EF14F0000E016E000E026E000E53
:10290000036E000E046E16EF15F0960E0A6E8FEF32
:1029100014F00A2AD8900E320D320C320B32000E0F
:102920000B14056E000E0C14066E000E0D14076ECF
:10293000FE0E0E14086E0550061007100810D8A4DD
:10294000A4EF14F0A6EF14F089EF14F0B4EF14F034
:102950000A2A010E0B26000E0C220D220E22D89000
:102960000E320D320C320B32000E0B14056E000EBF
:102970000C14066E000E0D14076EFF0E0E14086E7A
:102980000550061007100810D8A4C9EF14F0CBEFBB
:1029900014F0A8EF14F0D3EF14F00A06D8900B3619
:1029A0000C360D360E360DBED8EF14F0DAEF14F0FB
:1029B000E2EF14F0020E0A60E0EF14F0E2EF14F020
:1029C000CDEF14F00AB0E7EF14F0E9EF14F0EAEFFE
:1029D00014F00D9ED8900A320AC005F0066A076A04
:1029E000086A05C008F0076A066A056A05500B12F6
:1029F00006500C1207500D1208500E120950D8B490
:102A000004EF15F006EF15F00EEF15F004BE0DEF14
:102A100015F00BEF15F00EEF15F00E8E0BC001F058
:102A20000CC002F00DC003F00EC004F01200000E46
:102A3000166E000E156E000E0F6E000E0E6E23EF5A
:102A400015F0084A092A010E146E08C0F6FF09C0E5
:102A5000F7FF0800F550200AD8B431EF15F033EF36
:102A600015F050EF15F0F70E0A6EFF0E0B6E08C052
:102A7000F6FF09C0F7FF0800F5500C6E0D6A0A500A
:102A80000C260B500D220D5009E1050E0C5CD8A050
:102A90004CEF15F04EEF15F050EF15F0000E146EE0
:102AA00014C010F0116A10501110D8A45AEF15F08C
:102AB0005CEF15F021EF15F066EF15F0000E0F6ECC
:102AC000010E0E6E084A092A9BEF15F008C0F6FFAA
:102AD00009C0F7FF0800F5500A6E0B6A0B50000A98
:102AE000D8B475EF15F09BEF15F00A502B0AD8B447
:102AF00062EF15F0060AD8B45EEF15F09BEF15F003
:102B000015C001F016C002F0000E046E0A0E036E2E
:102B1000ABEC1CF008C0F6FF09C0F7FF0800F55049
:102B2000015E000E025A300E0124156E000E0220C6
:102B3000166E62EF15F0D00E0A6EFF0E0B6E08C017
:102B4000F6FF09C0F7FF0800F5500C6E0D6A0A5039
:102B50000C260B500D220D500AE10A0E0C5CD8A079
:102B6000B4EF15F0B7EF15F0010EB8EF15F0000E49
:102B7000126E136A12501310D8A4C1EF15F0C3EFF0
:102B800015F080EF15F00E500F10D8A4CAEF15F015
:102B9000CCEF15F0DAEF15F015C00AF016C00BF007
:102BA0000A1E0B1E0A4A0B2A0AC008F00BC009F0C5
:102BB000DEEF15F015C008F016C009F0120003345E
:102BC00004340A6E0A50D8A4E8EF15F0EAEF15F0C5
:102BD000F4EF15F0000E016E000E026E000E036E93
:102BE000000E046E61EF16F001C005F002C006F0A1
:102BF00003C007F004C008F0200E04EF16F0D890D0
:102C00000832073206320532E82EFFEF15F0055084
:102C1000096E038EFF0E0116FF0E0216FF0E03163D
:102C2000000E0416960E0A5E0ABE1BEF16F019EF90
:102C300016F031EF16F00A50800A970FD8B023EF44
:102C400016F025EF16F027EF16F0EAEF15F0D89002
:102C500004320332023201320A3E27EF16F049EF06
:102C600016F01F0E0A6437EF16F039EF16F041EF39
:102C700016F0EAEF15F0D890013602360336043626
:102C80000A060A50D8A447EF16F049EF16F03BEFBA
:102C900016F00950D8B44FEF16F051EF16F059EF77
:102CA00016F0041E031E021E016C000E02220322F7
:102CB000042201C001F002C002F003C003F004C00E
:102CC00004F01200000E1A14226E000E1B14236E64
:102CD000800E1C14246E7F0E1D14256E22502310AE
:102CE00024102510D8A477EF16F079EF16F081EFB5
:102CF00016F0000E1A6E000E1B6E000E1C6E000EFB
:102D00001D6E000E1E14226E000E1F14236E800E08
:102D10002014246E7F0E2114256E225023102410BF
:102D20002510D8A496EF16F098EF16F0A0EF16F045
:102D3000000E1E6E000E1F6E000E206E000E216E25
:102D40001DAEA5EF16F0A7EF16F0B0EF16F01A6C57
:102D50001B1ED8B01B2A1C1ED8B01C2A800E1D5664
:102D600021AEB5EF16F0B7EF16F0C0EF16F01E6CFF
:102D70001F1ED8B01F2A201ED8B0202A800E215630
:102D8000000E1A1A000E1B1A000E1C1A800E1D1AB5
:102D9000000E1E1A000E1F1A000E201A800E211A95
:102DA0001E501A5C1F501B5820501C5821501D5893
:102DB000D8B0DDEF16F0DFEF16F0E2EF16F0D890A6
:102DC000E3EF16F0D8801200BCC00BF0BDC00CF0D1
:102DD000BEC00DF0BFC00EF001C00BF002C00CF081
:102DE00003C00DF004C00EF00BC005F00CC006F0DF
:102DF0000DC007F00EC008F0180E04EF17F0D890C1
:102E00000832073206320532E82EFFEF16F0055081
:102E1000096E0A6A09500A10D8A411EF17F013EFCF
:102E200017F033EF17F0D8900B34056E0C34066EA4
:102E30000D34076E0E34086E05500610071008108A
:102E4000D8A425EF17F027EF17F02DEF17F0000E9D
:102E5000026E020E016E62EF17F0000E026E030E9C
:102E6000016E62EF17F009280A10D8A43AEF17F0A4
:102E70003CEF17F05EEF17F00BC005F00CC006F04A
:102E80000DC007F00EC008F0090ED89005360636C2
:102E900007360836E82E45EF17F0055006100710E4
:102EA0000810D8B456EF17F059EF17F0010E5AEF8B
:102EB00017F0000E016E026A62EF17F0000E026E4C
:102EC000040E016E120001C008F002C009F003C038
:102ED0000AF004C00BF00506D8A00606052806E196
:102EE0000628D8A476EF17F078EF17F085EF17F0E3
:102EF000000E026E000E016ECDEF17F0084A092A8F
:102F00000A4A0B2A0506D8A0060608C0D9FF09C040
:102F1000DAFFDF50D8B48FEF17F091EF17F0BCEF66
:102F200017F00AC0F6FF0BC0F7FF0800F5500009C4
:102F3000D8B49DEF17F09FEF17F0BCEF17F00550D6
:102F40000610D8B4A6EF17F0A8EF17F0BCEF17F0F3
:102F500008C0D9FF09C0DAFFDF50076E0AC0F6FFCC
:102F60000BC0F7FF0800F5500718D8B4BAEF17F0F8
:102F7000BCEF17F07EEF17F008C0D9FF09C0DAFFE9
:102F8000DF50076E0AC0F6FF0BC0F7FF0800F550D0
:102F9000075C016E026AD8A00206120003500410FA
:102FA000D8B4D5EF17F0D7EF17F0E0EF17F00350D4
:102FB0000410D8A4DEEF17F0E0EF17F0E5EF17F0FC
:102FC0000150C9EC1CF032EF18F020EE04F0035071
:102FD000D9260450DA22DE50DE10D8B4F2EF17F012
:102FE000F4EF17F00FEF18F020EE04F00350D9269D
:102FF0000450DA2210EE02F00350E1260450E222DF
:10300000DE50E65CE650800A096EDE50800A095800
:10301000D8B00DEF18F00FEF18F032EF18F020EEE7
:1030200002F00350D9260450DA22DECF05F0DDCFBE
:1030300006F003C0D9FF04C0DAFFDECF07F0DDCF12
:1030400008F005500724D96E06500820DA6E01C03A
:10305000DFFF20EE02F00350D9260450DA22DE2AE8
:10306000000EDD221200000E066E04BE3CEF18F0CA
:103070003AEF18F042EF18F0036C041ED8B0042A9F
:10308000010E066E02BE49EF18F047EF18F04FEF41
:1030900018F0016C021ED8B0022A010E061A000EAA
:1030A000086E000E076E03500410D8B45AEF18F0E3
:1030B0005CEF18F084EF18F0010E056E64EF18F065
:1030C000D89003360436052A04AE69EF18F06BEF8A
:1030D00018F060EF18F0D890073608360350015CFE
:1030E00004500258D8A077EF18F079EF18F07EEF6F
:1030F00018F00350015E0450025A0780D890043241
:103100000332052E6BEF18F00650D8B48AEF18F092
:103110008CEF18F090EF18F0076C081ED8B0082A52
:1031200007C001F008C002F012005EA09AEF18F08C
:103130009CEF18F0A6EF18F013C00AF014C00BF0C3
:1031400011C00CF012C00DF0CAEC1BF016BEABEFB4
:1031500018F0ADEF18F0B3EF18F015C01AF016C064
:103160001BF0B7EF18F0000E1B6E000E1A6E000E6B
:10317000196E000E186EC9EF18F0000E026E200EC8
:10318000016E11C003F012C004F0CEEC17F0184A23
:10319000192A1A50185C1950800A176E1B50800AA1
:1031A0001758D8A0D6EF18F0D8EF18F0BDEF18F0E8
:1031B0005EB0DDEF18F0DFEF18F0E9EF18F013C0A4
:1031C0000AF014C00BF011C00CF012C00DF0CAECE4
:1031D0001BF013C001F014C002F061EC1CF01A5097
:1031E0000124116E1B500220126E1200000E066E9A
:1031F00002BEFFEF18F0FDEF18F005EF19F0016CBB
:10320000021ED8B0022A010E066E04BE0CEF19F0A1
:103210000AEF19F010EF19F0036C041ED8B0042A5D
:1032200003500410D8B417EF19F019EF19F03DEF5F
:1032300019F0010E056E21EF19F0D890033604360F
:10324000052A04AE26EF19F028EF19F01DEF19F04A
:103250000350015C04500258D8A031EF19F033EF4D
:1032600019F037EF19F00350015E0450025AD8905C
:1032700004320332052E28EF19F00650D8B443EF7C
:1032800019F045EF19F049EF19F0016C021ED8B0A2
:10329000022A01C001F002C002F01200000E011467
:1032A000096E000E02140A6E800E03140B6E7F0E60
:1032B00004140C6E09500A100B100C10D8A463EF04
:1032C00019F065EF19F06DEF19F0000E016E000EA8
:1032D000026E000E036E000E046E000E0514096EE1
:1032E000000E06140A6E800E07140B6E7F0E081473
:1032F0000C6E09500A100B100C10D8A482EF19F0B4
:1033000084EF19F08CEF19F0000E056E000E066EBA
:10331000000E076E000E086E055001180FE10650F2
:1033200002180CE10750031809E108500418D8B43A
:103330009CEF19F09EEF19F0A1EF19F0D890A2EFD1
:1033400019F0D8801200720ED36EBEEC1CF07CEC2B
:103350001CF0000E036E000E02EC1BF0010E036E5B
:10336000080E046EA5EC1AF0F6EC19F01AC0B4F0D1
:103370001BC0B5F01CC0B6F01DC0B7F0AA0E00010E
:10338000986F000E996F110E9A6F080E9B6FB4C064
:103390009CF0B5C09DF0B6C09EF0B7C09FF02DEC7C
:1033A0001BF0010E036E000E02EC1BF0AA0E036E62
:1033B000000E046EA5EC1AF0010E036E060E02EC70
:1033C0001BF02A0E036E080E046EA5EC1AF0060E12
:1033D0005B6E130E5A6EAE0EE82EFED75A2EFCD739
:1033E0005B2EFAD7B4EF19F000EF00F08B80060ED9
:1033F000E82EFED700D08B9081A001EF1AF003EFEA
:103400001AF0FCEF19F0000ED76E000ED66ED58EB6
:1034100081A00DEF1AF00FEF1AF016EF1AF0F2A4D8
:1034200014EF1AF016EF1AF008EF1AF0D59EF29486
:10343000D6CF01F0D7CF02F0036A046A000E3DEC4C
:1034400014F001C01EF002C01FF003C020F004C041
:1034500021F01EC001F01FC002F020C003F021C007
:1034600004F0000E056E000E066EEA0E076E420EA8
:10347000086E67EC11F001C01AF002C01BF003C027
:103480001CF004C01DF0120054C058F055C059F093
:10349000000E0001C16F000EC06F62EF1AF052C043
:1034A0003AF053C03BF0580E3C6E000E3D6E56C0D5
:1034B0003EF057C03FF044EC0AF03A500001C027FC
:1034C0003B50C12358C0F6FF59C0F7FF0800F55024
:1034D0000009D8A46EEF1AF070EF1AF04FEF1AF04F
:1034E000C0C052F0C1C053F01200BF0E096EFF0EF3
:1034F0000A6E07C00BF008C00CF009500B260A50EA
:103500000C220C500AE11A0E0B5CD8A08AEF1AF0BC
:103510008DEF1AF0010E8EEF1AF0000E0D6E0E6A8E
:103520000D500E10D8B497EF1AF099EF1AF0A0EFE3
:103530001AF0200E0710076E0850086EA4EF1AF05C
:1035400007C007F008C008F01200BBEF1AF003C074
:10355000F6FF04C0F7FFF86A070EF76403D008000F
:10356000F55005D0F6CFE1FFF7CFE2FFE750ECECE6
:103570001BF0034A042A03C0F6FF04C0F7FFF86AF1
:10358000070EF76403D00800F55005D0F6CFE1FF31
:10359000F7CFE2FFE7500009D8A4D1EF1AF0D3EF3C
:1035A0001AF0A7EF1AF0120003C007F004C008F0E9
:1035B00001C009F002C00AF00750056E0850066EFF
:1035C000074A082A05C0F6FF06C0F7FFF86A09C0D7
:1035D000D9FF0AC0DAFF094A0A2A070EF76403D0A6
:1035E0000800F55005D0F6CFE1FFF7CFE2FFE75036
:1035F000DF6EDF50D8A4FFEF1AF001EF1BF0DCEF15
:103600001AF01200066E17EF1BF006500F0B800920
:10361000076E07507FEC1BF02CEF1BF006500F0BD2
:10362000C009076E07507FEC1BF02CEF1BF0035016
:10363000046E056A0550000AD8B421EF1BF02CEF88
:103640001BF00450000AD8B405EF1BF0010AD8B4EF
:103650000EEF1BF02CEF1BF012009C0E0001A26F6E
:10366000000EA36F98C0A4F099C0A5F0000EA76F3C
:10367000000EA66F000EA96F000EA86FA40E526E6A
:10368000000E536E9AC054F09BC055F0A20E566EB9
:10369000000E576E44EC1AF00001A6519825D96E21
:1036A000A7519921DA6E000EDF6E1200010E076E2F
:1036B000200E01180210D8B460EF1BF062EF1BF06F
:1036C0007BEF1BF0F70E036EFF0E046E01C005F0DA
:1036D00002C006F00350052604500622065009E1F8
:1036E000050E055CD8A077EF1BF079EF1BF07BEFA0
:1036F0001BF0000E076E07C001F0026A1200026E96
:1037000002C001F0F00E01168C500F0B01108C6EF0
:103710008C948C8600F08C96030E016E980EE82E29
:10372000FED7012EFCD702C001F0013AF00E0116BF
:103730008C500F0B01108C6E8C8600F08C96080E4E
:10374000016ECA0EE82EFED7012EFCD71200000E25
:103750001E1A000E1F1A000E201A800E211A1AC0FF
:1037600001F01BC002F01CC003F01DC004F01EC01D
:1037700005F01FC006F020C007F021C008F0F2ECF1
:103780000CF001C01AF002C01BF003C01CF004C012
:103790001DF01200000E106E000E0F6EDBEF1BF01E
:1037A0000EC001F0026A0CC003F00DC004F0CEECB4
:1037B00017F00F4A102A0F500A24D96E10500B2010
:1037C000DA6EDF500E6E0E50D8A4E9EF1BF0EBEF6F
:1037D0001BF0D0EF1BF01200026E02C001F0F00EE1
:1037E00001168C500F0B01108C6E8C848C8600F0AF
:1037F0008C9602C001F0013AF00E01168C500F0BAE
:1038000001108C6E8C8600F08C96080E016ECA0E2C
:10381000E82EFED7012EFCD71200BF0E036EFF0E5E
:10382000046E01C005F002C006F0035005260450E6
:10383000062206500AE11A0E055CD8A022EF1CF001
:1038400025EF1CF0010E26EF1CF0000E016E026A3F
:1038500012000150021003100410D8B432EF1CF013
:1038600034EF1CF03CEF1CF0000E011A000E021A9F
:10387000000E031A800E041A01C001F002C002F00B
:1038800003C003F004C004F01200D00E036EFF0E5C
:10389000046E01C005F002C006F003500526045076
:1038A000062206500AE10A0E055CD8A05AEF1CF069
:1038B0005DEF1CF0010E5EEF1CF0000E016E026A5F
:1038C000120001C003F002C004F069EF1CF0014ACD
:1038D000022A01C0D9FF02C0DAFFDF50D8A473EF7B
:1038E0001CF075EF1CF067EF1CF00350015C016EDB
:1038F00004500258026E1200270E036EF50EE82ED9
:10390000FED7032EFCD700F0030E9516020E7FECB7
:103910001BF0280E7FEC1BF0010E7FEC1BF00C0E51
:103920007FEC1BF0060E7FEC1BF0120001EE00F0A6
:10393000500EEE6AE806FDE100EEB8F00C0EEE6AFD
:10394000E806FDE15F6A5E6A5D6A5C6A000EF86E19
:103950000001A3EF19F001500302F3CF05F0F4CFFB
:1039600006F001500402F350062602500302F35001
:10397000062605C001F006C002F012009490938064
:103980008B90080ED56EF294000ED76E000ED66E98
:04399000120012000F
:020000040020DA
:08000000FFFFFFFFFFFFFFFF00
:020000040030CA
:0E00000000081F1EFF0181FF0FC00FE00F4020
:00000001FF
