:04000000803114280F
:1000060008007E1480312E00961E0A280B2812281E
:100016008C1E0E280F2812289031762080317E10F3
:100026000900803116282200903110208031AC0062
:10003600903111208031AD00903112208031AE0018
:10004600903113208031AF00E2308400003085000B
:100056000C3090311A208031203084000130850028
:100066000C3090311A208031A03084000130850098
:10007600503090311A2080317E10200092319B2A18
:100086002100BC00BA01BB01200044082100D000B9
:10009600200043082100CF00200042082100CE00A6
:1000A600200041082100CD0050082000B8002100A2
:1000B6004F082000B70021004E082000B60021009E
:1000C6004D082000B5000030BC000030BB000030F9
:1000D600BA000030B9009531122580310318742812
:1000E60075288E2801302100BA000030BB00500868
:1000F600F3004F08F2004E08F1004D08F000903171
:100106002820803173082100D0007208CF007108C2
:10011600CE007008CD002100D301D4016908C000CB
:100126006808BF003A083B04031D9A289B289F28AD
:100136006C1D9E289F28BD283A083B04031DA42851
:10014600A528AA282B30A0000030A100AE282D300B
:10015600A0000030A10020082000C60046082300A9
:10016600A00001302100D3070030D43DFF30BF0787
:10017600FF30C03D5008F3004F08F2004E08F10072
:100186004D08F00087317727803170037104031D15
:10019600CD28CE28202920004508BF3EC600FF30C6
:1001A60003180030C700003047021A300319460210
:1001B600031CDE28E0280130E1280030C800C90110
:1001C60048082100A200200049082100A3002208B7
:1001D60023040319EF28F028FA280530F000983098
:1001E600F1005308A03E91316821803103290D307A
:1001F600F0009830F1005308A03E9131682180311B
:10020600FD302100BF07FF30C03DA0302000C600F2
:100216004608A400210040082000A60021003F084F
:100226002000A50021003C089331E5238031200001
:100236002508C2002408C100762F21005008F300CB
:100246004F08F2004E08F1004D08F000873177277D
:10025600803170087104031D312932298429200058
:100266004508BF3EC600FF3003180030C700003007
:1002760047021A3003194602031C42294429013059
:1002860045290030C800C90148082100A400200003
:1002960049082100A50024082504031953295429D7
:1002A6005E290930F0009830F1005308A03E9131E4
:1002B6006821803167291130F0009830F100530829
:1002C600A03E913168218031FD302100BF07FF300B
:1002D600C03DA0302000C6004608A400210040080A
:1002E6002000A60021003F082000A50021003C08B0
:1002F6009331E523803120002508C2002408C1007F
:10030600762F3F302100D8008030D7000030D6004D
:100316000030D500D101D2015008F3004F08F20099
:100326004E08F1004D08F0000030F7000030F600EE
:100336000030F5000030F40092314D228031031870
:10034600A529A6295B2AD72941302000A300203001
:10035600A2000030A1000030A000210058082000B3
:10036600A700210057082000A600210056082000FB
:10037600A500210055082000A4008D31A925803153
:10038600200023082100D800200022082100D700E1
:10039600200021082100D600200020082100D500D9
:1003A6000130D1070030D23D210050082000B800AE
:1003B60021004F082000B70021004E082000B6009B
:1003C60021004D082000B5004130A3002030A200D6
:1003D6000030A1000030A000210058082000A7002E
:1003E600210057082000A600210056082000A5007D
:1003F600210055082000A4008D31A9258031200058
:100406002308BC002208BB002108BA002008B90056
:100416009531122580310318112A122AA729342A68
:100426004130F3002030F2000030F1000030F000DF
:1004360021005808F7005708F6005608F500550839
:10044600F40096314C26803173082100D8007208DA
:10045600D7007108D6007008D500FF30D107FF30ED
:10046600D23D210050082000B80021004F0820008E
:10047600B70021004E082000B60021004D082000DC
:10048600B500210058082000BC00210057082000B4
:10049600BB00210056082000BA00210055082000A4
:1004A600B900953112258031031C5A2A5B2A132A7A
:1004B60020004508C600C7014608F6004708F700B1
:1004C6009131AC21803176082000C800480821000F
:1004D600C20042082000C60046082100C10067305D
:1004E6004206031D772A782A9D2A6A086B04031D93
:1004F6007D2A7E2A822A0130EA000030EB006B0852
:10050600803A2000C60080304602031D8D2A013045
:1005160021006A020318902A912A972A06302100A0
:10052600BD000030BE00A22A21006B08BE006A088A
:10053600BD00A22AEB1BA02AA12A912A972A67307E
:100546004206031DA72AA82AE02A5208803A20005C
:10055600C6007F304602031DB32AFC30210051023B
:10056600031CB62AB72ADA2A21003D08FF3E2000DE
:10057600C600FF3021003E3D2000C7004708803AF4
:10058600C80021005208803A20004802031DCF2AE5
:100596002100510820004602031CD22AD32ADA2A57
:1005A60066302000C60046082100C100E02A6530FA
:1005B6002000C60046082100C1003E08B3003D08E1
:1005C600B20067304206031DE92AEA2AF42A663099
:1005D6004106031DEF2AF02AF82AD21FF32AF42A2D
:1005E600F82A0130B2070030B33D66304106031DDC
:1005F600FD2AFE2A162BD21F012B022B0C2B3F3075
:10060600D8008030D7000030D6000030D500D101A8
:10061600D201673042060319112B122B162B5108F3
:10062600B2075208B33DCB01CC015008C6004F08B3
:10063600C5004E08C4004D08C3005808B700570847
:10064600B6005608B5005508B400D72B2100580847
:10065600F3005708F2005608F1005508F000460866
:10066600F7004508F6004408F5004308F400963103
:100676004C26803173082000B0007208AF00710864
:10068600AE007008AD0088314B2080312000300864
:100696002100CA0020002F082100C90020002E08D2
:1006A6002100C80020002D082100C7004A08F300D9
:1006B6004908F2004808F1004708F00094319E24EA
:1006C600803171082100B9007008B8004A0820007E
:1006D600A700210049082000A600210048082000A4
:1006E600A500210047082000A4002100580820008A
:1006F600A300210057082000A20021005608200070
:10070600A100210055082000A0008D31A9258031C7
:1007160020002308B8002208B7002108B6002008E8
:10072600B500210046082000BC0021004508200035
:10073600BB00210044082000BA0021004308200025
:10074600B900913127218031200038082100C600E8
:10075600200037082100C500200036082100C4000B
:10076600200035082100C3004130F3002030F2009C
:100776000030F1000030F0005808F7005708F60086
:100786005608F5005508F40096314C26803173085A
:100796002100D8007208D7007108D6007008D5006D
:1007A6000130CB070030CC3D4C08803A2000C60013
:1007B60021003308803A20004602031DE52B210064
:1007C60032084B02031CE82BE92B292B4030200072
:1007D600A300A030A2000030A1000030A00021003C
:1007E60058082000A700210057082000A600210075
:1007F60056082000A500210055082000A4008D31D0
:10080600A9258031200023082100CA0020002208E3
:100816002100C900200021082100C800200020086E
:100826002100C70046082000B80021004508200026
:10083600B700210044082000B6002100430820002C
:10084600B50021004A082000BC002100490820000C
:10085600BB00210048082000BA00210047082000FC
:10086600B90095311225803103183A2C3B2C452CC2
:1008760000302100CA000030C9000030C800003036
:10088600C7006A2C21004608F3004508F200440818
:10089600F1004308F0004A08F7004908F600480846
:1008A600F5004708F40092314D228031031C5C2C80
:1008B6005D2C6A2C21003818612C622C6A2C0030C1
:1008C600CA000030C9000030C8000030C70021004F
:1008D6004A08F3004908F2004808F1004708F0000A
:1008E6005008F7004F08F6004E08F5004D08F400D2
:1008F6008B316A23803173082100C6007208C50057
:100906007108C4007008C30046082000B800210022
:1009160045082000B700210044082000B600210049
:1009260043082000B5004130A3002030A20000306B
:10093600A1000030A000210037082000A7002100F8
:1009460036082000A600210035082000A500210059
:1009560034082000A4008D31A92580312000230809
:10096600BC002208BB002108BA002008B900953156
:1009760012258031031CC02CC12CFC2C0130210017
:10098600D1070030D23D41302000A3002030A20024
:100996000030A1000030A000210037082000A70089
:1009A600210036082000A600210035082000A500F9
:1009B600210034082000A4008D31A92580312000B3
:1009C60023082100B700200022082100B6002000DD
:1009D60021082100B500200020082100B40066305F
:1009E6004106031DF72CF82CFC2C0130B207003011
:1009F600B33D21003708D8003608D7003508D600A1
:100A06003408D5006530410603190A2D0B2D102D2B
:100A16005208B1005108B000122DB001B101AE016B
:100A2600AF01AC01AD01CB01CC013D2E2100580830
:100A3600F3005708F2005608F1005508F000460882
:100A4600F7004508F6004408F5004308F40096311F
:100A56004C26803173082000B0007208AF00710880
:100A6600AE007008AD0088314B2080312000300880
:100A76002100CA0020002F082100C90020002E08EE
:100A86002100C80020002D082100C7004A08F300F5
:100A96004908F2004808F1004708F00094319E2406
:100AA600803171082100B9007008B8006C1A5C2DFD
:100AB6005D2D722D38083904031D622D632D722DAC
:100AC60067304206031D682D692D722DB11F6C2DEE
:100AD6006D2D722D0130AC070030AD3DCB2D2E08AB
:100AE6002F04031D772D782DAF2DB11F7B2D7C2D67
:100AF600AF2D2E302000C60021005308A03E8600F0
:100B06000130870020004608810001302100D3070C
:100B16000030D43DFF30BF07FF30C03D0130AE008E
:100B26000030AF00AF2D30302000C6002100530842
:100B3600A03E860001308700200046088100013073
:100B46002100D3070030D43DFF30BF07FF30C03D42
:100B5600FF30AC07FF30AD3D2C082D04031DB42D2E
:100B6600B52D962D3808303E2000C60021005308CA
:100B7600A03E860001308700200046088100013033
:100B86002100D3070030D43DFF30BF07FF30C03D02
:100B96004A082000A700210049082000A6002100DD
:100BA60048082000A500210047082000A4002100D5
:100BB60058082000A300210057082000A2002100A9
:100BC60056082000A100210055082000A0008D3104
:100BD600A925803120002308B8002208B700210883
:100BE600B6002008B500210046082000BC00210000
:100BF60045082000BB00210044082000BA0021005F
:100C060043082000B900913127218031200038089F
:100C16002100C600200037082100C5002000360844
:100C26002100C400200035082100C3004130F30034
:100C36002030F2000030F1000030F0005808F700D4
:100C46005708F6005608F5005508F40096314C266C
:100C5600803173082100D8007208D7007108D600C9
:100C66007008D500FF30B007FF30B13D0130CB072B
:100C76000030CC3D4C08803A2000C60021003308E5
:100C8600803A20004602031D4B2E210032084B02FB
:100C960003184E2E4F2E5F2E21005408803A200056
:100CA600C60080304602031D5B2E4B3021005302E6
:100CB600031C5E2E5F2E192D21002E082F04031D06
:100CC600652E662E7B2E6C1E692E6A2E7B2E2E308E
:100CD6002000C60021005308A03E86000130870090
:100CE60020004608810001302100D3070030D43DA2
:100CF6005308A03E86000130870081016530410619
:100D0600031D862E872E5F2F4F30CB000030CC0080
:100D16004B08A03E8600013087008101BA01BB0165
:100D2600D21F962E972EA02E0130BA000030BB009F
:100D3600D109D209D10A0319D20A0230BD00003006
:100D4600BE00DB2EFF302100CB07FF30CC3D0A3042
:100D5600F0000030F1005208F3005108F200933120
:100D66003A2380317008303E2000C60021004B082F
:100D7600A03E8600013087002000460881000A3028
:100D8600F6000030F70021005208F9005108F8007B
:100D960094313E24803177082100D2007608D100B4
:100DA600FF30BD07FF30BE3DFF30BF07FF30C03DFF
:100DB60051085204031DE02EE12EA52E3E08803A6E
:100DC6002000C60080304602031DEC2E01302100B3
:100DD6003D020318EF2EF02EA52EFF302100CB0783
:100DE600FF30CC3D3A083B04031DFA2EFB2E002FA4
:100DF6002B30A6000030A700042F2D30A6000030AF
:100E0600A70026082000C60021004B08A03E860049
:100E160001308700200046088100FF302100BF070F
:100E2600FF30C03DFF30CB07FF30CC3D20004508EA
:100E3600BF3EC600FF3003180030C700003047022F
:100E46001A3003194602031C292F2B2F01302C2F91
:100E56000030C800C90148082100AA00200049083E
:100E66002100AB002A082B04031D3A2F3B2F402FED
:100E76006530A8000030A900442F4530A800003096
:100E8600A90028082000C60021004B08A03E8600C5
:100E960001308700200046088100FF302100BF078F
:100EA600FF30C03D4B08A03EF0000130F100530872
:100EB600A03E913168218031A0302000C60046084E
:100EC600A400210040082000A60021003F082000C1
:100ED600A50021003C089331E52380312000250838
:100EE600C2002408C1000800210065082000A500F2
:100EF600210064082000A400210063082000A3004C
:100F0600210062082000A2007308A5007208A40050
:100F16007108A3007008A2002208F4002308F50057
:100F26002408F6002508F7001730F736F60CF50CFE
:100F3600F40C890B982FFF307405A000003075055E
:100F4600A10020082104031DA92FAA2FCB2F2208B8
:100F5600F4002308F5002408F6002508F700013000
:100F6600F435F50DF60DF70D890BB32F77087604DA
:100F760075047404031DC02FC12FC62F0230F00064
:100F86000030F100F52F0330F0000030F100F52FAE
:100F9600200A2104031DD02FD12FF12F2208F4009F
:100FA6002308F5002408F6002508F7000930F43573
:100FB600F50DF60DF70D890BDA2F77087604750413
:100FC60074040319E72FE92F0130EA2F0030F800E7
:100FD600F9017808F0007908F100F52F0430F000E7
:100FE6000030F1000800603031008D008F01910162
:100FF60002309300920108000800F4007408F20021
:101006007208F3000A280130F2007208F407740827
:101016008600013087000108031D122813280628C0
:1010260073087402F000F101F01BF10308002000C0
:10103600E4006008E6005F08E5002100E601E7013C
:1010460038286530E2006208CA006108E3006308D8
:10105600CB00640889313621883120004A082100F6
:10106600E60720004B082100E73D200065088400C4
:10107600660885001200031D412842282428210005
:1010860067082000E000210066082000DF00080055
:10109600220023082000C000220022082000BF00F2
:1010A600220021082000BE00220020082000BD00EA
:1010B6003008C0002F08BF002E08BE002D08BD0056
:1010C6003D08B1003E08B2003F08B3004008B40036
:1010D6001730B436B30CB20CB10C890B6C28FF3048
:1010E6003105B50000303205B6003508813EBB003B
:1010F600FF30363DBC003C08803AB10080303102FA
:10110600031D872817303B02031C8A288B288C284E
:1011160035292000BC1B90289128EE28FF30B1000D
:10112600FF30B2007F30B3000030B4003B0A9F2886
:10113600B437B30CB20CB10C890B9B283408BA0037
:101146003308B9003208B8003108B7003D08370542
:10115600B1003E083805B2003F083905B300400823
:101166003A05B4003408330432043104031DBC28A4
:10117600BD28BE288B283D08B1003E08B2003F08B6
:10118600B3004008B4001F30B436B30CB20CB10C37
:10119600890BC72834083304320431040319D428D0
:1011A600D528DD283708BD073808BE3D3908BF3DBC
:1011B6003A08C03D3709B1003809B2003909B30011
:1011C6003A09B4003108BD053208BE053308BF052B
:1011D6003408C0052D293D08B1003E08B2003F087D
:1011E600B3004008B4001F30B436B30CB20CB10CD7
:1011F600890BF7283408330432043104031D04290B
:1012060005290E290030C0000030BF000030BE00A6
:101216000030BD002D293D08B1003E08B2003F0850
:10122600B3004008B4000130B135B20DB30DB40DB2
:10123600890B17293408330432043104031924298D
:1012460025292D29BF30C0008030BF000030BE00E8
:101256000030BD004008B0003F08AF003E08AE00B9
:101266003D08AD0008002000DE004A088600870120
:10127600403FCC00413FCD004C0884004D0885001E
:101286001200253A031D48294929462B4A0886009B
:1012960087010130810741310318810A2100E801E5
:1012A600E901EC01ED01FF30EA00FF30EB00200020
:1012B6004A0886008701403FCC00413FCD004C08DC
:1012C60084004D08850012002E3A031D6B296C29F7
:1012D600E1292100EA01EB0120004A088600870186
:1012E6000130810741310318810A4A0886008701C7
:1012F600403FCC00413FCD004C0884004D0885009E
:1013060012002A3A031D882989299F294A0886003E
:1013160087010130810741310318810A4B08860095
:10132600870101088400850102308107003F210002
:10133600EA00013FEB00E1294A0886008701403FA9
:10134600F600413FF70095319D2589317708210048
:10135600EB007608EA00B7294A08860087010130C3
:10136600810741310318810A20004A088600870157
:10137600403FCC00413FCD004C0884004D0885001D
:101386000008D03ECE00FF3003180030CF000030FA
:101396004F020A3003194E02031CD229D429013008
:1013A600D5290030D000D1015008D2005108D30011
:1013B60052085304031DE029E129AF2920004A08F9
:1013C60086008701403FCC00413FCD004C08840099
:1013D6004D0885000008CE00CF014E08F6004F08E4
:1013E600F7009131AC21893176082000D0005008F1
:1013F600DA005A080319002A012A402A4A088600F8
:101406008701403FCC00413FCD0001304C078400AE
:101416004D0803184D0A85000008CE00CF014E087E
:10142600F6004F08F7009131AC218931760820008B
:10143600D0005008DB005B080319222A232A402A21
:101446004A0886008701403FCC00413FCD0002306C
:101456004C0784004D0803184D0A85000008CE008D
:10146600CF014E08F6004F08F7009131AC218931C3
:1014760076082000D0005008DC0066305A06031DAE
:10148600452A462A832A4A0886008701403FCC001F
:10149600413FCD004C0884004D0885000008CE0071
:1014A6004E08DD004A088600870101308107413178
:1014B6000318810A4B08860087010108840085010C
:1014C60004308107003FD600013FD700023FD80015
:1014D600033FD9005908C4005808C3005708C20082
:1014E6005608C1005D08CC004C08C5005E08803176
:1014F6004320893120004208CB004108CA00692BED
:101506001530F0009830F1000230F2000030F300A0
:101516005A3093318D23893170087104031D942A42
:10152600952A102B20004A0886008701403FCC00F0
:10153600413FCD0001304C0784004D0803184D0A89
:1015460085000008CE004E08DD004A0886008701A7
:10155600403FCC00413FCD004C0884004D0885003B
:101566000008BF3ECE00FF3003180030CF00003029
:101576004F021A3003194E02031CC22AC42A013034
:10158600C52A0030D000D1015008D4005108D5003A
:10159600540855040319D02AD12AE22A4B0886009A
:1015A600870101088400850104308107003FD600C9
:1015B600013FD700023FD800033FD900F22A4B086B
:1015C6008600870101088400850104308107003FF9
:1015D600D600013FD700023FD800033FD9004A0892
:1015E600860087010230810741310318810A5908B4
:1015F600C4005808C3005708C2005608C1005D0859
:10160600CC004C08C5005E0880314320893120009B
:101616004208CB004108CA00692B20004A08860010
:101626008701403FCC00413FCD004C0884004D0867
:1016360085001200253A031D212B222B3B2B4A083D
:10164600860087010130810741310318810A253060
:10165600F0000030F1005E08CC004C08F200923138
:10166600EA22893101302000CA000030CB00692B04
:101676004A08860087010130810741310318810A33
:10168600CA01CB01692B4A0886008701403FCC007E
:10169600413FCD004C0884004D0885000008CE006F
:1016A600CF014E08F0004F08F1005E08D000500848
:1016B600F2009231EA22893120004A088600870129
:1016C6000130810741310318810A352B0800730860
:1016D60080392000A0002008F8007335A0002008FB
:1016E600FA00F21F772B782B792B7A147A080319D4
:1016F6007D2B7E2B8E2B7A0A031D822B832B8B2B25
:101706000030F3000030F2000030F1000030F0004D
:10171600F217F301962B0030F3000030F200003090
:10172600F1000030F00077088039A0002008F900A9
:10173600790878060319A02BA12BA22B78177735E9
:10174600A0002008F900F61FA92BAA2BAB2B7914B1
:1017560079080319AF2BB02BC02B790A031DB42BC4
:10176600B52BBD2B0030F7000030F6000030F50039
:101776000030F400F617F701C82B0030F7000030F0
:10178600F6000030F5000030F4007A0879020318FC
:10179600CD2BCE2B122C781FD12BD22BD62B8030D3
:1017A600A0002008F8067A08A0002008FB007908A7
:1017B600A0002008FA007B08A0002008F9007008A5
:1017C600A0002008FB007408A0002008F0007B0899
:1017D600A0002008F4007108A0002008FB0075088E
:1017E600A0002008F1007B08A0002008F500720880
:1017F600A0002008FB007608A0002008F2007B0865
:10180600A0002008F6007308A0002008FB00770857
:10181600A0002008F3007B08A0002008F700FB01C9
:101826007908A000A1012108A3007A082002A200DD
:10183600031CA3032308803AA40080302402031D5E
:10184600262C1A302202031C292C2A2C642C7308FD
:10185600720471047004031D312C332C0130342CB6
:1018660000302000A0002008FB000030F30000300C
:10187600F2000030F1000030F0007908A0002008E6
:10188600FA006A2C7B1C482C492C502C7B360138DC
:101896002000A0002008FB00522C0310FB0C701C3B
:1018A600552C562C572CFB1701302000A000F3377F
:1018B600F20CF10CF00CA00B5A2C0130A000200801
:1018C600FA0779087A02031C692C6A2C452C781BC6
:1018D6006D2C6E2CA82C7A08031D722C732C7C2C74
:1018E6000030F3000030F2000030F1000030F0006C
:1018F600A82D7408F0077508F13D7608F23D7708C3
:10190600F33D731C872C882C352D7B1C8B2C8C2C43
:10191600932C7B3601382000A0002008FB00952C74
:101926000310FB0C701C982C992C9A2CFB17013079
:101936002000A000F337F20CF10CF00CA00B9D2C4C
:101946000130A0002008FA07352D7308803A2000E0
:10195600A0007708803A2002031DBB2C760872028D
:10196600031DBB2C75087102031DBB2C7408700285
:101976000318BE2CBF2CF72CFF30A000FF30A100AF
:10198600FF30A200FF30A30070087402A4007108A3
:10199600753BA5007208763BA6007308773BA70047
:1019A6002408A0072508A13D2608A23D2708A33D37
:1019B6002308F3002208F2002108F1002008F000B5
:1019C6008030A0002008F806FB09FB0A7B08031DEF
:1019D600ED2CEE2CFF2C0130F0070030F13D0030ED
:1019E600F23D0030F33DFF2C7408F0027508F13B20
:1019F6007608F23B7708F33B7308720471047004AF
:101A0600031D062D072D312D7B08031D0B2D0C2DD7
:101A1600312D0030F3000030F2000030F1000030CC
:101A2600F000A82D0130F035F10DF20DF30D890B04
:101A3600162DFB1F1F2D202D212D70147B1C242DF0
:101A4600252D282D0314FB0D2A2D0310FB0D7A08D6
:101A560003192E2D2F2D312D0130FA02F21F342DB0
:101A6600352D152DF901FB1F392D3A2D482D7B08F3
:101A76007F3903193F2D402D432DF901F90A482DD1
:101A8600701C462D472D482D402D790803194C2DE5
:101A96004D2D7B2D0130F0070030F13D0030F23D39
:101AA6000030F33D731C582D592D7B2D70082000F6
:101AB600A0007108A1007208A2007308A3000130FB
:101AC600A400A337A20CA10CA00CA40B642D230820
:101AD600F3002208F2002108F1002008F0007A0A3B
:101AE6000319762D772D7B2D0130A0002008FA07EB
:101AF6007A0A03197F2D802D852D7A08031D842DE2
:101B0600852D932D0030F3000030F2000030F100F7
:101B16000030F0007A08031D912D922D932DF801C7
:101B26007A1C962D972D992DF2179E2D7F30200029
:101B3600A0002008F2057A362000A0002008F30055
:101B4600F81FA62DA72DA82DF3170800200023089F
:101B56008039F9007908A8002335F9007908AE0024
:101B6600A21FB62DB72DB82D2E142E080319BC2D85
:101B7600BD2DCC2D2E0A031DC12DC22DCA2D003020
:101B8600A3000030A2000030A1000030A000A21780
:101B9600D42D0030A3000030A2000030A100003098
:101BA600A00027088039F9007908A8062735F9002A
:101BB6007908AD00A61FE02DE12DE22D2D142D088C
:101BC6000319E62DE72DF62D2D0A031DEB2DEC2D21
:101BD600F42D0030A7000030A6000030A50000302C
:101BE600A400A617FE2D0030A7000030A600003086
:101BF600A5000030A4002D080319022E032E082E7E
:101C06002E08031D072E082E112E0030A3000030CB
:101C1600A2000030A1000030A000FF2F2008F9002C
:101C26007908F0002608913189218D31710820004C
:101C3600B4007008B3003308F900FA01FB01FC0197
:101C46007C08AC007B08AB007A08AA007908A900DA
:101C56003408F900FA01FB01FC017C08B2007B089C
:101C6600B1007A08B0007908AF002108F9007908B8
:101C7600F0002508913189218D3171082000B400CA
:101C86007008B3003308F900FA01FB01FC0179087A
:101C9600A9077A08AA3D7B08AB3D7C08AC3D340811
:101CA600F900FA01FB01FC017908AF077A08B03D9B
:101CB6007B08B13D7C08B23D2208F9007908F000A6
:101CC6002408913189218D3171082000B4007008F3
:101CD600B3003308F900FA01FB01FC017908A907F2
:101CE6007A08AA3D7B08AB3D7C08AC3D3408F90078
:101CF600FA01FB01FC017908AF077A08B03D7B08C1
:101D0600B13D7C08B23D0830A935AA0DAB0DAC0D2E
:101D1600890B872E2108F9007908F00024089131F3
:101D260089218D3171082000B4007008B300330892
:101D3600A9073408AA3D0030AB3DAC3D2008F900A8
:101D46007908F0002508913189218D31710820002C
:101D5600B4007008B3003308A9073408AA3D003060
:101D6600AB3DAC3D0830A935AA0DAB0DAC0D890BCA
:101D7600B62E2008F9007908F0002408913189214F
:101D86008D3171082000B4007008B3003308A9072C
:101D96003408AA3D0030AB3DAC3D2108F900790876
:101DA600F0002608913189218D3171082000B40098
:101DB6007008B3003308AF073408B03D0030B13DBA
:101DC600B23D2208F9007908F000250891318921F1
:101DD6008D3171082000B4007008B3003308AF07D6
:101DE6003408B03D0030B13DB23D2208F900790813
:101DF600F0002608913189218D3171082000B40048
:101E06007008B3003308F9003408FA00FB01FC013E
:101E16000830F935FA0DFB0DFC0D890B0C2F7908EE
:101E2600AF077A08B03D7B08B13D7C08B23D290872
:101E3600F9002A08FA002B08FB002C08FC001830D1
:101E4600FC36FB0CFA0CF90C890B232F7908AF072B
:101E56007A08B03D7B08B13D7C08B23D0830A93513
:101E6600AA0DAB0DAC0D890B322F2E082D07F900EC
:101E7600FA01FA0D7908823EB300FF307A3DB400CC
:101E86005B2F0130AF35B00DB10DB20D890B452F6B
:101E9600AC1F4E2F4F2F502F2F140130A935AA0DEE
:101EA600AB0DAC0D890B512FFF30B307FF30B43D9E
:101EB600B11F5E2F5F2F442FAD01AC1F632F642F20
:101EC600802FFF302905F900FF302A05FA00FF3080
:101ED6002B05FB007F302C05FC007C087B047A0474
:101EE60079040319772F782F7B2FAD01AD0A802F48
:101EF6002F1C7E2F7F2F802F782F2D080319842FDC
:101F0600852FAD2F0130AF070030B03D0030B13D19
:101F16000030B23D321C902F912FAD2F2F08F900C3
:101F26003008FA003108FB003208FC000130FD00E1
:101F3600FC37FB0CFA0CF90CFD0B9B2F7C08B2004E
:101F46007B08B1007A08B0007908AF000130B3070A
:101F56000030B43D3408803AF90080307902031D20
:101F6600B62FFF303302031CB92FBA2FC42F7F3090
:101F76002000B2008030B1000030B0000030AF0069
:101F8600F32F20003408803AF90080307902031DCF
:101F9600CE2F013033020318D12FD22FDD2F003080
:101FA6002000B2000030B1000030B0000030AF00B9
:101FB600A801F32F20003308F9007908AE00FF309E
:101FC600AF05FF30B0057F30B1050030B2052E1CDD
:101FD600ED2FEE2FEF2FB1172E36F9007908B2004C
:101FE6002808F9007908B2043208A3003108A200D3
:0A1FF6003008A1002F08A000080029
:102020007B3400340034003471082200B1007008A1
:10203000B0000800640080010131890B1B280034C6
:102040002F0096019701980199019A019B010800C0
:10205000730872047104700403192F283028322881
:102060008030F3060800803027008E007C308D0021
:10207000C0308C0024001F08F33904389F0008008A
:102080000130250090008F019101F9308D008C0105
:102090002E009010A03025008E000800F300730879
:1020A00021009E009317131313140000210013182E
:1020B0005A285B2856280D08F1000C08F00008008B
:1020C0009031202090319131D12190318731F62704
:1020D000903190313320903190318D20903190317A
:1020E000402090319031EE20903108002E008C126B
:1020F00021006F0820009D0021006E0820009C0038
:102100002200300831040319862887288C283108DA
:102110008A0030080A009031080022008E018F01E9
:1021200090019101920193018D0121009E019B017B
:102130009C0194019501960197019A019901013042
:102140009800843093009D0108007008D03EF20092
:10215000FF30713DF300003073020A300319720240
:10216000031CB328B5280130B6280030F400F5016F
:102170007408F0007508F10008007008BF3EF20016
:10218000FF30713DF300003073021A300319720200
:10219000031CCB28CD280130CE280030F400F501F7
:1021A0007408F0007508F100080020002508FC0004
:1021B0002408FB00FC36FB0CFC36FB0C7B082700DC
:1021C0008D00200024080339FB000530FB35FF3E5D
:1021D000031DE6287B3527008C00080040302000D6
:1021E0009F009D019C011D082100EF0020001C089C
:1021F0002100EE002E008C1296160330F000003005
:10220000F100903114209031903020009E000800A1
:10221000F401F501701C0D290E2912297208F4072A
:102220007308F53D0130F235F30D890B13290130A8
:10223000F136F00C890B182970087104031D21294F
:1022400022290A297508F1007408F000080080307E
:102250002000B8063C08F3003B08F2003A08F10001
:102260003908F0003808F7003708F6003608F5009E
:102270003508F4008B316A23913173082000B800CF
:102280007208B7007108B6007008B5000800F401C4
:10229000F40A20307006710403194F29502960296F
:1022A0007008F73EF200FF30713DF300003073021A
:1022B000053003197202031C5E295F296029F401AD
:1022C0007408F200F3017208F0007308F1000800CE
:1022D000F7007108F5007008F4007708F200720842
:1022E000F6007608860001308700F60A7508F300CC
:1022F0007408F200F40A0319F50A720884007308DE
:1023000085000008C03F8908031D87298829712995
:102310000800F800F401F5017008F200F3017208FA
:10232000F6007308F700781C962997299B297608F0
:10233000F4077708F53D0130F635F70D890B9C2938
:102340000310F80C7808031DA629A72993297508FE
:10235000F1007408F00008007608BF3EF800FF3076
:10236000773DF900003079021A3003197802031C16
:10237000BA29BC290130BD290030FA00FB017A08D6
:10238000FC007B08FD007C087D040319C829C929CD
:10239000D02920307604F60000307704F700D029E9
:1023A00008002000960197019801FF309100FF304E
:1023B0009200FE309300FF303E00CE00FF30C3009D
:1023C000FF30B800E501C401B901CF01BA01C50170
:1023D000D001FF30BB00FF30C600FF30D100FF301E
:1023E000BC00FF30C700FF30D2000830E8000E30DC
:1023F000A00008002000A300A101A201122A2008C9
:10240000F900FA017908F0007A08F1007808FB0079
:102410007B08F2009231EA22913101302000A107BD
:102420000030A23D21082307F90079088600013019
:1024300087000108FA007A08A0002008031D212A5D
:10244000222AFF2908002100DB0069302000EB0070
:102450006B082100DC005B082000EB006B0821000A
:10246000DD00DE01DF01E001E10120006808E0009D
:102470006708DF00DC30EB006B08E100DD308831FD
:102480001A20923121005E085B072000EB006B08E8
:102490008600013087008101080000307005F800D7
:1024A00000307105F90080307205FA007F30730545
:1024B000FB007B087A0479047804031D602A612AF2
:1024C000692A0030F3000030F2000030F1000030E3
:1024D000F00000307405F80000307505F900803018
:1024E0007605FA007F307705FB007B087A047904D3
:1024F0007804031D7C2A7D2A852A0030F7000030ED
:10250000F6000030F5000030F40077087306031D74
:10251000932A76087206031D932A75087106031D17
:10252000932A740870060319962A972A992A031089
:102530009A2A0314080090316020923107309031BC
:102540004E20923170082000EC006C08EE00003044
:10255000E7009830E8006E08EC00ED016C08E90037
:102560006D08EA0024309231232292315530F60072
:102570000130F70020006E08EC00ED016C08F0005F
:102580006D08F1002C30F2000130F3009131082188
:1025900092317108F9007008F80094313E249231AC
:1025A00076080A3E2000A4000030773DA500903157
:1025B000D520923106302000ED001330EC00AD3014
:1025C000890BE02AEC0BE02AED0BE02A00329E2A70
:1025D0008031142872080319EE2AEF2AF42A7208AF
:1025E000031DF32AF42AF92A70088731FF27923154
:1025F000392B7208033E8600870116000104031977
:10260000022B032B202B7208033E86008701403FDC
:10261000F300413FF400720A86008701403FF50055
:10262000413FF6007608803AF7007408803A770256
:10263000031D1C2B7308750203181F2B202B392B2D
:102640007008F300720886008701720A8400850111
:1026500000080107F4007408860001308700730841
:102660008100720A86008701013081074131031819
:10267000810A0800F601F31F3E2B3F2B462BF2097F
:10268000F309F20A0319F30AF601F60AF11F492BBE
:102690004A2B4F2BF009F109F00A0319F10A7008CF
:1026A00071040319542B552B7E2BF501F50A612B70
:1026B0000130F035F10D890B592B0130F40074080D
:1026C000F507F11F642B652B582B71087302031D4E
:1026D0006B2B70087202031C6E2B6F2B732B700810
:1026E000F2027108F33B0130F136F00C890B742BC8
:1026F0000130F502031D7D2B7E2B652B7608031917
:10270000822B832B882BF209F309F20A0319F30AAF
:102710007308F1007208F0000800F5007508F40075
:102720007408F8007108F7007008F6000130F20232
:102730000030F33B720A031DA12B730A031DA12B6A
:10274000A22BB12BF001F101E42B0130F40074084D
:10275000F8070130F6070030F73D0130F202003093
:10276000F33B78088600870101080319B82BB92BC1
:10277000D72B760884007708850012000319C12B37
:10278000C22BD72B720873040319C72BC82BD72B66
:1027900076088400770885000008F4007808860031
:1027A0008701010874060319D62BD72BA52B7808AF
:1027B00086008701760884007708850000080102FA
:1027C000F000F101031CF10308002000AB00210020
:1027D0006C1CEB2BEC2BF52B20002B08FC007C0851
:1027E000F80024089131FA2193312000A61BF92B1F
:1027F000FA2BFF2B2608AA002508A900012CA90105
:10280000AA01A701A801152C2030F0000030F1002A
:1028100020002B08FC007C08F2009231EA22933160
:1028200001302000A7070030A83D2808803AFC00AE
:102830002A08803A7C02031D1F2C29082702031C4A
:10284000222C232C042C21006C18272C282C312C12
:1028500020002B08FC007C08F80024089131FA21A4
:10286000933120002408883100209331200029086A
:102870007007A4002A08713DA50008002000A101EE
:10288000F71F432C442C4B2CF609F709F60A0319C1
:10289000F70AA101A10AF91F4E2C4F2C582CF80958
:1028A000F909F80A0319F90A0130FA007A08A106B1
:1028B000A201A3017608770403195F2C602C8F2CEA
:1028C000A001A00A6C2C0130F635F70D890B642CA1
:1028D0000130FA007A08A007F71F6F2C702C632CC8
:1028E0000130A235A30D890B712C77087902031DE5
:1028F0007B2C76087802031C7E2C7F2C842C760897
:10290000F8027708F93B22140130F736F60C890BF0
:10291000852C0130A002031D8E2C8F2C702C2108D9
:102920000319932C942C992CA209A309A20A031928
:10293000A30A2308F7002208F60008000310720D0E
:10294000730DF4007408FA007A08031DA82CA92C52
:10295000B22C0030F3000030F2000030F100003003
:10296000F000112D7008F4007108F5007208F600EF
:102970007308F7001F30F736F60CF50CF40C890BD2
:10298000BB2C7408F8007808F900F217FF30F00546
:10299000FF30F105FF30F2050030F3059630FA0202
:1029A000FA1FD32CD42CEC2C7A08803A973E0318CB
:1029B000DA2CDB2CDC2CA92C0130F336F20CF10CD8
:1029C000F00C890BDD2C0130F4007408FA07031DAC
:1029D000EA2CEB2CDC2C012D20307A02031CF12C8C
:1029E000F22CFC2CA92C0130F035F10DF20DF30D79
:1029F000890BF42C0130FA027A08031D002D012DF9
:102A0000F32C79080319052D062D112DF009F10974
:102A1000F209F309F00A0319F10A0319F20A03197A
:102A2000F30A0800003020003505BD0000303605EF
:102A3000BE0080303705BF007F303805C000400839
:102A40003F043E043D04031D262D272D2F2D00306D
:102A5000B8000030B7000030B6000030B5000030DC
:102A60003905BD0000303A05BE0080303B05BF008F
:102A70007F303C05C00040083F043E043D04031D78
:102A8000422D432D4B2D0030BC000030BB000030E8
:102A9000BA000030B900B81F4E2D4F2D672D003001
:102AA000BD000030BE000030BF008030C0003508DF
:102AB000BD023608BE3B3708BF3B3808C03B400864
:102AC000B8003F08B7003E08B6003D08B500BC1F7F
:102AD0006A2D6B2D832D0030BD000030BE0000300C
:102AE000BF008030C0003908BD023A08BE3B3B0839
:102AF000BF3B3C08C03B4008BC003F08BB003E0851
:102B0000BA003D08B9008030B8068030BC063C08E9
:102B10003802031D952D3B083702031D952D3A08F9
:102B20003602031D952D390835020318982D992D6D
:102B30009B2D03109C2D031408002000A701A80161
:102B4000A001A101A72D0130F6070030F73DA60135
:102B5000A60A76088400770885001200203A031937
:102B6000B22DB32DC82D76088400770885000008A3
:102B7000F73EF800FF3003180030F900003079020A
:102B8000053003197802031CC62DC72DC82DA601D8
:102B90002608F800F9017808A2007908A3002208A5
:102BA0002304031DD42DD52DA32DDF2D0130A0002E
:102BB0000030A1000130F6070030F73D132E7608F3
:102BC0008400770885000008F800F9017908003AC8
:102BD0000319EB2D132E78082B3A0319DA2D063A38
:102BE0000319D62D132E7608840077088500000877
:102BF000F8002808F1002708F0000A30F200003041
:102C0000F3009131082195317108FA0078087002BB
:102C1000F900031CFA037908303E2000A7000030B9
:102C20007A3DA800DA2D7608840077088500000830
:102C3000D03EF800FF3003180030F9000030790270
:102C40000A3003197802031C262E282E0130292E63
:102C50000030FA00FB017A08A4007B08A5002408D4
:102C60002504031D342E352EF32D20082104031DC9
:102C70003A2E3B2E472E2709F8002809F900F80ABA
:102C80000319F90A7808F6007908F7004B2E28088E
:102C9000F7002708F600080077088039F800780860
:102CA0002000A4007735F8007808AB00F61F592EF5
:102CB0005A2E5B2E2B142B0803195F2E602E702EBC
:102CC0002B0A031D642E652E6D2E0030F700003098
:102CD000F6000030F5000030F400F617F701782E0A
:102CE0000030F7000030F6000030F5000030F4004E
:102CF00073088039F8007808A4067335F80078085E
:102D0000AC00F21F842E852E862E2C142C0803195D
:102D10008A2E8B2E9B2E2C0A031D8F2E902E982EE2
:102D20000030F3000030F2000030F1000030F0001D
:102D3000F217F301A32E0030F3000030F200003050
:102D4000F1000030F0007308720471047004031D78
:102D5000AA2EAB2EC42E0030F7000030F600003053
:102D6000F5000030F4008030F6047F30F7042408CA
:102D7000F8007808F7047708F3007608F200750881
:102D8000F1007408F000FF2F2B08031DC82EC92E78
:102D9000D22E0030F3000030F2000030F10000309D
:102DA000F000FF2F2B08F800F9017908FB002C0830
:102DB0007802FA00031CFB037A087F3EA50000306E
:102DC0007B3DA6007708A3007608A2007508A10045
:102DD0007408A0000030F7000030F6000030F50065
:102DE0000030F4000030AA000030A9000030A80034
:102DF0000030A700AC013A2F2C080319002F012F37
:102E00001B2F0130A035A10DA20DA30D890B022FA0
:102E10000130F435F50DF60DF70D890B092FAA1FBA
:102E2000122F132F142F74140130A735A80DA90DDC
:102E3000AA0D890B152F73082302031D292F720871
:102E40002202031D292F71082102031D292F70085A
:102E50002002031C2C2F2D2F362F2A177008A002BA
:102E60007108A13B7208A23B7308A33B0130F80034
:102E70007808AC071A302C02031C3F2F402FFC2E81
:102E800023082204210420040319472F482F612F0F
:102E90002714612F0130F435F50DF60DF70D890B70
:102EA0004B2FAA1F542F552F562F74140130A735BE
:102EB000A80DA90DAA0D890B572FFF30A507FF30CC
:102EC000A63DF61F642F652F4A2FAC01AA1F692F5C
:102ED0006A2F862FFF302705F800FF302805F900FC
:102EE000FF302905FA007F302A05FB007B087A04B1
:102EF0007904780403197D2F7E2F812FAC01AC0A51
:102F0000862F741C842F852F862F7E2F2C08031963
:102F10008A2F8B2FB32F0130F4070030F53D00309E
:102F2000F63D0030F73D771C962F972FB32F74088E
:102F3000F8007508F9007608FA007708FB00013000
:102F4000FC00FB37FA0CF90CF80CFC0BA12F7B08EA
:102F5000F7007A08F6007908F5007808F4000130E7
:102F6000A5070030A63D2608803AF8008030780298
:102F7000031DBC2FFF302502031CBF2FC02FCD2FF8
:102F8000FF302000A5000030A6000030F700003020
:102F9000F6000030F5000030F40020002608803AEA
:102FA000F80080307802031DD72F01302502031866
:102FB000DA2FDB2FE72F2000A501A6010030F70054
:102FC0000030F6000030F5000030F400A4012000CD
:102FD0002508F8007808AB002B1CEF2FF02FF22FFC
:102FE000F617F62F7F30F8007808F6052B36F80034
:102FF0007808F7002408F8007808F704BB2E0800CA
:1030000025342E3432346634003449344E34463458
:1030100000344E3441344E34003469346E346634F6
:1030200000346E3461346E3400346C3466340034F1
:020000040001F9
:0A000E00EC3FFF3F9F3FFF3FFF3F25
:00000001FF
