:0400000007EF00F016
:100008001282A3ED00F08CEF00F081500B6E0C6AA9
:10001800F00E0B1A000E0C1A040E0D6E0C340C3276
:100028000B320D2E12EF00F00B500E6E2CEF00F07D
:1000380001C08CFF49EF00F002C08CFF49EF00F0CF
:1000480003C08CFF49EF00F004C08CFF49EF00F0BB
:100058000E500B6E0C6A0C50000AD8B436EF00F044
:1000680049EF00F00B50010AD8B41CEF00F0030A66
:10007800D8B420EF00F0060AD8B424EF00F00C0A38
:10008800D8B428EF00F049EF00F00E50D8B44FEF85
:1000980000F051EF00F05CEF00F00B0E0C6E260E36
:1000A8000B6E5E0EE82EFED70B2EFCD70C2EFAD761
:1000B800F29012000F0EC16E720ED36E000E956E86
:1000C800F00E9312F19EF28EF286F290000E116EEF
:1000D800010E1124D96EDA6A000EDA22DF508C6E16
:1000E8000B0E106E260E0F6E5E0EE82EFED70F2E2C
:1000F800FCD7102EFAD7112A090E116486EF00F0EA
:1001080088EF00F06CEF00F06AEF00F007EF00F006
:100118005E0EF66E010EF76E000EF86E00EE01F040
:1001280010EE0AF00900F5CFEEFFE550E150FAE1D4
:1001380012901292000EF86E00015EEF00F00600B9
:10014800F2A0A9EF00F0ABEF00F0ADEF00F009EC82
:1001580000F012921100C0F9A4B0999282F8809030
:020000040020DA
:08000000FFFFFFFFFFFFFFFF00
:020000040030CA
:0E00000000091F1EFF0181FF0FC00FE00F401F
:00000001FF
