:0400000007EF00F016
:10000800038228ED00F03BEF00F0010E8C1A020E7F
:100018008C1A040E026E0C0E016E340EE82EFED7FA
:10002800012EFCD7022EFAD7F29212000F0EC16EE3
:10003800720ED36EFC0E95168C908C8234EC00F008
:1000480024EF00F007EF00F00600F2A22EEF00F018
:1000580030EF00F032EF00F009EC00F003921100ED
:100068009380F28EF288F292000EF16E12000390E5
:08007800039200011AEF00F0F1
:020000040020DA
:08000000FFFFFFFFFFFFFFFF00
:020000040030CA
:0E00000000091F1EFF0181FF0FC00FE00F401F
:00000001FF
