:0400000007EF00F016
:10000800028234ED00F04BEF00F00F0EC16E720E5D
:10001800D36E93908A8040EC00F0928095908C90FB
:1000280080B019EF00F01BEF00F013EF00F08C80A8
:1000380014EF00F007EF00F0012A3C0ECF6EB00E6F
:10004800CE6E050E0118D8A42CEF00F02EEF00F0AC
:1000580032EF00F0010E8A1A000E016E9E90120017
:1000680006009EA03AEF00F03CEF00F03EEF00F0F3
:1000780020EC00F002921100B50ECD6E9E90F28E2B
:10008800F28C9D803C0ECF6EB00ECE6E1200016ACF
:0A00980002900292000109EF00F04F
:020000040020DA
:08000000FFFFFFFFFFFFFFFF00
:020000040030CA
:0E00000000081F1EFF0181FF0FC00FE00F4020
:00000001FF
