:020000040000FA
:0400000007EF00F016
:100008004B8272ED2DF002EF3DF0BEC0B8F1BFC0DB
:10001800B9F1C0C0BAF1C1C0BBF1B8C160F1B9C192
:1000280061F1BAC162F1BBC163F1C2C0B8F1C3C02A
:10003800B9F1C4C0BAF1C5C0BBF1B8C17CF1B9C14E
:100048007DF1BAC17EF1BBC17FF1FF0E01016015E0
:10005800A86FFF0E6115A96FFF0E6215AA6F7F0EBC
:100068006315AB6FFF0E7C15906FFF0E7D15916FBA
:10007800FF0E7E15926F7F0E7F15936F9051911131
:1000880092119311D8A44BEF00F04DEF00F058EF08
:1000980000F0000E0001BE6F000EBF6F800EC06F33
:1000A8003F0EC16F24EF15F0800E621909E13F0E73
:1000B800631960116111D8A464EF00F066EF00F0D5
:1000C80071EF00F0000E0001BE6F000EBF6F800ED2
:1000D800C06F3F0EC16F24EF15F0ABBF82EF00F089
:1000E800A805000EA959800EAA597F0EAB59D8B0A1
:1000F80080EF00F082EF00F093EF00F093BF91EFF4
:1001080000F09005000E9159800E92597F0E935978
:10011800D8A091EF00F093EF00F0AFEF00F0BEC071
:100128006DF0BFC06EF0C0C06FF0C1C070F0C2C04B
:1001380071F0C3C072F0C4C073F0C5C074F0DDECD8
:100148001EF06DC0BEF06EC0BFF06FC0C0F070C0D2
:10015800C1F024EF15F0000E506F000E516F000E25
:10016800526F000E536F63BFBEEF00F0BCEF00F09C
:100178008AEF01F093BFCAEF00F0800E925D4B0E3C
:100188009359D8A0CAEF00F0CCEF00F0D6EF00F0FA
:10019800020E506F000E516F000E526F000E536F1B
:1001A8008AEF01F093BFE2EF00F0800E925D3F0E00
:1001B8009359D8A0E2EF00F0E4EF00F08AEF01F0E5
:1001C800170E0001C66F90C1C7F091C1C8F092C167
:1001D800C9F093C1CAF0C667F4EF00F0FCEF00F075
:1001E800CA35CA33C933C833C733C62FEFEF00F057
:1001F800810E0001C7250101A06FFF0E0001C82173
:100208000101A16FFF0E0001C9210101A26FFF0EBC
:100218000001CA210101A36FA05117080001C66F90
:1002280090C1C7F091C1C8F092C1C9F093C1CAF09A
:10023800C66721EF01F029EF01F0CA35CA33C93387
:10024800C833C733C62F1CEF01F0C7C0ACF1C8C014
:10025800ADF1C9C0AEF1CAC0AFF10101A051170894
:100268000001C66FACC1C7F0ADC1C8F0AEC1C9F0DE
:10027800AFC1CAF0C62B46EF01F0D890C737C837D0
:10028800C937CA37C62F41EF01F00101905100016B
:10029800C71913E1010191510001C8190EE10101CB
:1002A80092510001C91909E1010193510001CA19CC
:1002B800D8A461EF01F063EF01F08AEF01F0010EBD
:1002C8000101AC150001C66F000E0101AD1500015A
:1002D800C76F000E0101AE150001C86F000E0101C5
:1002E800AF150001C96FC65102080101506F000E19
:1002F8000001C7550101516F000E0001C8550101E9
:10030800526F000E0001C9550101536F800E0101A3
:10031800921909E17F0E931990119111D8A497EFC2
:1003280001F099EF01F005EF02F0800EAA1909E13A
:100338003F0EAB19A811A911D8A4A5EF01F0A7EF9A
:1003480001F0B2EF01F0000E0001BE6F000EBF6FAA
:10035800800EC06F3F0EC16F24EF15F0ABBFC1EF29
:1003680001F0A805000EA959800EAA593F0EAB59F5
:10037800D8A0C1EF01F0C3EF01F0DFEF01F07FBFBC
:10038800CAEF01F0C8EF01F0D5EF01F0000E00014F
:10039800BE6F000EBF6F000EC06F000EC16F24EF5E
:1003A80015F0C2C0BEF0C3C0BFF0C4C0C0F0C5C025
:1003B800C1F024EF15F07FBFE6EF01F0E4EF01F0A4
:1003C800FAEF01F0C2C015F0C3C016F0C4C017F0B0
:1003D800C5C018F0C7EC3DF015C0BEF016C0BFF0A0
:1003E80017C0C0F018C0C1F024EF15F0000E0001CE
:1003F800BE6F000EBF6F000EC06F000EC16F24EFFE
:1004080015F0800E921909E13F0E93199011911180
:10041800D8A411EF02F013EF02F041EF02F07FBF12
:100428001AEF02F018EF02F037EF02F0000E0001A9
:10043800816F000E826F800E836F3F0E846FBEC087
:1004480085F0BFC086F0C0C087F0C1C088F0B2ECAC
:1004580025F081C0BEF082C0BFF083C0C0F084C068
:10046800C1F024EF15F0BEC0BEF0BFC0BFF0C0C0E1
:10047800C0F0C1C0C1F024EF15F0400E7F197C1107
:100488007D117E11D8A44BEF02F04DEF02F069EF19
:1004980002F0BEC028F0BFC029F0C0C02AF0C1C019
:1004A8002BF0BEC02CF0BFC02DF0C0C02EF0C1C0D4
:1004B8002FF09CEC23F028C0BEF029C0BFF02AC062
:1004C800C0F02BC0C1F024EF15F03F0E7F197C114E
:1004D8007D117E11D8A473EF02F075EF02F090EF52
:1004E80002F063BF7AEF02F07CEF02F090EF02F0C7
:1004F800BEC08DF0BFC08EF0C0C08FF0C1C090F0FC
:100508003EEC21F08DC0BEF08EC0BFF08FC0C0F0B1
:1005180090C0C1F024EF15F0BEC015F0BFC016F0B2
:10052800C0C017F0C1C018F052EC3EF015C070F111
:1005380016C071F117C072F118C073F1800E010175
:10054800AA190BE17F0EAB19A811A911D8B4AFEF06
:1005580002F0B1EF02F0CAEF02F0A851A911AA11F6
:10056800AB11D8B4BAEF02F0BCEF02F0CAEF02F058
:10057800800EAA1909E13F0EAB19A811A911D8A438
:10058800C8EF02F0CAEF02F096EF03F070C1B4F1C1
:1005980071C1B5F172C1B6F173C1B7F17FBFD9EFBF
:1005A80002F0D7EF02F0F4EF02F0000E0001816FC5
:1005B800000E826F800E836F3F0E846FB4C185F08A
:1005C800B5C186F0B6C187F0B7C188F0B2EC25F0A6
:1005D80081C0B4F182C0B5F183C0B6F184C0B7F16F
:1005E800010163BFFCEF02F0FAEF02F08CEF03F0B9
:1005F800000EA8250001C66F000E0101A921000107
:10060800C76F800E0101AA210001C86FC00E010149
:10061800AB210001C96F010150510001C611CA6F19
:10062800010151510001C711CB6F01015251000165
:10063800C811CC6F010153510001C911CD6FCA51C6
:10064800CB11CC11CD11D8A42CEF03F02EEF03F071
:100658006EEF03F0B4C17DF0B5C17EF0B6C17FF096
:10066800B7C180F0B4C179F0B5C17AF0B6C17BF0FA
:10067800B7C17CF02AEC3DF079C081F07AC082F0F5
:100688007BC083F07CC084F0B4C17DF0B5C17EF03E
:10069800B6C17FF0B7C180F0B4C179F0B5C17AF0C6
:1006A800B6C17BF0B7C17CF02AEC3DF079C085F08B
:1006B8007AC086F07BC087F07CC088F0B2EC25F069
:1006C80081C0B4F182C0B5F183C0B6F184C0B7F17E
:1006D8008CEF03F001015005511152115311D8A4A8
:1006E80078EF03F07AEF03F08CEF03F0B4C115F064
:1006F800B5C116F0B6C117F0B7C118F0C7EC3DF098
:1007080015C0B4F116C0B5F117C0B6F118C0B7F1ED
:10071800B4C1BEF0B5C1BFF0B6C1C0F0B7C1C1F039
:1007280024EF15F0000E886F000E896F800E8A6F17
:100738003F0E8B6F63BFA5EF03F0A3EF03F003EF4A
:1007480004F05051511152115311D8A4AEEF03F0D7
:10075800B0EF03F0F0EF03F0BEC07DF0BFC07EF055
:10076800C0C07FF0C1C080F0BEC079F0BFC07AF0D1
:10077800C0C07BF0C1C07CF02AEC3DF079C081F0AC
:100788007AC082F07BC083F07CC084F0BEC07DF06C
:10079800BFC07EF0C0C07FF0C1C080F0BEC079F09D
:1007A800BFC07AF0C0C07BF0C1C07CF02AEC3DF03D
:1007B80079C085F07AC086F07BC087F07CC088F06D
:1007C800B2EC25F081C0BEF082C0BFF083C0C0F09B
:1007D80084C0C1F024EF15F0500551115211531186
:1007E800D8A4F9EF03F0FBEF03F003EF04F0000ED9
:1007F800886F000E896F800E8A6FBF0E8B6F93BF54
:1008080012EF04F09005000E9159000E92594D0E0A
:100818009359D8A012EF04F014EF04F09CEF06F0FF
:10082800ABBF26EF04F0F80EA85DFF0EA9597F0EA6
:10083800AA593F0EAB59D8B024EF04F026EF04F0C4
:1008480099EF04F07FBF2BEF04F02DEF04F063EF76
:1008580004F0600E2C6E420E2D6EA20E2E6E0D0E42
:100868002F6E88C128F089C129F08AC12AF08BC16E
:100878002BF09CEC23F028C0A4F129C0A5F12AC0D4
:10088800A6F12BC0A7F1A4C128F0A5C129F0A6C1E3
:100898002AF0A7C12BF0600E2C6E420E2D6EA20E10
:1008A8002E6E0D0E2F6E9CEC23F028C0BEF029C0D2
:1008B800BFF02AC0C0F02BC0C1F024EF15F0CA0E5B
:1008C8002C6EF20E2D6E490E2E6E710E2F6E88C193
:1008D80028F089C129F08AC12AF08BC12BF09CEC41
:1008E80023F028C0A4F129C0A5F12AC0A6F12BC085
:1008F800A7F1A4C128F0A5C129F0A6C12AF0A7C173
:100908002BF0CA0E2C6EF20E2D6E490E2E6E710E45
:100918002F6E9CEC23F028C0BEF029C0BFF02AC07F
:10092800C0F02BC0C1F024EF15F0ABBFA9EF04F065
:10093800080EA85D000EA959800EAA593F0EAB59A2
:10094800D8A0A9EF04F0ABEF04F026EF05F07FBFC5
:10095800BAEF04F07F517E117D1106E17C05D8B015
:10096800B8EF04F0BAEF04F0F0EF04F0600E2C6E6C
:10097800420E2D6EA20E2E6E0D0E2F6E88C128F01F
:1009880089C129F08AC12AF08BC12BF09CEC23F095
:1009980028C0A4F129C0A5F12AC0A6F12BC0A7F14F
:1009A800A4C128F0A5C129F0A6C12AF0A7C12BF03F
:1009B800600E2C6E420E2D6EA20E2E6E0D0E2F6E38
:1009C8009CEC23F028C0BEF029C0BFF02AC0C0F0BC
:1009D8002BC0C1F024EF15F0CA0E2C6EF20E2D6E4E
:1009E800490E2E6E710E2F6E88C128F089C129F02C
:1009F8008AC12AF08BC12BF09CEC23F028C0A4F10B
:100A080029C0A5F12AC0A6F12BC0A7F1A4C128F0DE
:100A1800A5C129F0A6C12AF0A7C12BF0CA0E2C6ED9
:100A2800F20E2D6E490E2E6E710E2F6E9CEC23F079
:100A380028C0BEF029C0BFF02AC0C0F02BC0C1F04A
:100A480024EF15F070C16DF071C16EF072C16FF0D6
:100A580073C170F0000E0001716F000E726F800E8E
:100A6800736FBF0E746FDDEC1EF06DC0B0F16EC019
:100A7800B1F16FC0B2F170C0B3F1000E2C6E000E70
:100A88002D6E800E2E6E3E0E2F6EB0C128F0B1C1B5
:100A980029F0B2C12AF0B3C12BF09CEC23F028C096
:100AA8007DF029C07EF02AC07FF02BC080F0AB0E0D
:100AB8000001796FAA0E7A6FAA0E7B6F3E0E7C6FCB
:100AC8002AEC3DF079C0A4F17AC0A5F17BC0A6F16B
:100AD8007CC0A7F1B0C12CF0B1C12DF0B2C12EF08D
:100AE800B3C12FF0B0C128F0B1C129F0B2C12AF0CA
:100AF800B3C12BF09CEC23F028C054F129C055F168
:100B08002AC056F12BC057F1B0C12CF0B1C12DF05D
:100B1800B2C12EF0B3C12FF0A4C128F0A5C129F0AD
:100B2800A6C12AF0A7C12BF09CEC23F028C07DF0C9
:100B380029C07EF02AC07FF02BC080F0000E000193
:100B4800796F000E7A6F000E7B6F3F0E7C6F2AEC78
:100B58003DF079C048F17AC049F17BC04AF17CC0C8
:100B68004BF154C128F055C129F056C12AF057C19C
:100B78002BF048C12CF049C12DF04AC12EF04BC1D1
:100B88002FF09CEC23F028C044F129C045F12AC07D
:100B980046F12BC047F1B0C128F0B1C129F0B2C16C
:100BA8002AF0B3C12BF0000E2C6EAA0E2D6EB80ED3
:100BB8002E6E3F0E2F6E9CEC23F028C074F129C0D6
:100BC80075F12AC076F12BC077F1700E2C6EA50E48
:100BD8002D6EEC0E2E6E360E2F6EB0C128F0B1C100
:100BE80029F0B2C12AF0B3C12BF09CEC23F028C045
:100BF80079F029C07AF02AC07BF02BC07CF03B0E3C
:100C08002C6EAA0E2D6EB80E2E6E3F0E2F6E44C19E
:100C180028F045C129F046C12AF047C12BF09CECC9
:100C280023F028C07DF029C07EF02AC07FF02BC0B9
:100C380080F02AEC3DF079C078F17AC079F17BC078
:100C48007AF17CC07BF174C16DF075C16EF076C12C
:100C58006FF077C170F078C171F079C172F07AC124
:100C680073F07BC174F0DDEC1EF06DC084F16EC0D2
:100C780085F16FC086F170C087F184C1B8F185C174
:100C8800B9F186C1BAF187C1BBF1B8C194F1B9C154
:100C980095F1BAC196F1BBC197F1000E0101941507
:100CA800B86FF00E9515B96FFF0E9615BA6FFF0E57
:100CB8009715BB6FB8C184F1B9C185F1BAC186F186
:100CC800BBC187F174C17DF075C17EF076C17FF03C
:100CD80077C180F084C179F085C17AF086C17BF054
:100CE80087C17CF02AEC3DF079C098F17AC099F17F
:100CF8007BC09AF17CC09BF178C179F079C17AF018
:100D08007AC17BF07BC17CF098C17DF099C17EF0FF
:100D18009AC17FF09BC180F02AEC3DF079C01CF1AC
:100D28007AC01DF17BC01EF17CC01FF111EF0EF0DF
:100D3800000E806F000E816F000E826F000E836FB1
:100D4800ABBFB2EF06F0AB5107E1800EAA5DD8B099
:100D5800B0EF06F0B2EF06F0E5EF06F070C128F04C
:100D680071C129F072C12AF073C12BF0000E2C6EEC
:100D7800000E2D6E800E2E6E4B0E2F6E9CEC23F007
:100D880028C070F129C071F12AC072F12BC073F12B
:100D9800E80E01018027FF0E8123FF0E8223FF0E3C
:100DA800832370C1B8F171C1B9F172C1BAF173C1CD
:100DB800BBF1B8C1A8F1B9C1A9F1BAC1AAF1BBC1C7
:100DC800ABF1170E0001C66FA8C1C7F0A9C1C8F0E2
:100DD800AAC1C9F0ABC1CAF0C667F5EF06F0FDEFCE
:100DE80006F0CA35CA33C933C833C733C62FF0EF44
:100DF80006F0810E0001C725CB6FFF0EC821CC6F0E
:100E0800FF0EC921CD6FFF0ECA21CE6FCB51010154
:100E180080270001CC51010181230001CD5101013E
:100E280082230001CE5101018323FF0EA815AC6F68
:100E3800FF0EA915AD6F7F0EAA15AE6F000EAB158C
:100E4800AF6F000EAC11A86F000EAD11A96F800E28
:100E5800AE11AA6F3F0EAF11AB6FAFBF43EF07F0F4
:100E6800AF510BE1720EAC5DC40EAD591C0EAE59FC
:100E7800D8B041EF07F043EF07F04DEF07F0000E51
:100E8800A06F000EA16F000EA26F000EA36F7FEF80
:100E980007F0AFBF5FEF07F0AF510BE1D70EAC5DC6
:100EA800B30EAD595D0EAE59D8B05DEF07F05FEFE8
:100EB80007F069EF07F0010EA06F000EA16F000E9A
:100EC800A26F000EA36F7FEF07F0000EA06F000E59
:100ED800A16F000EA26F000EA36F010E8027000EF7
:100EE800812382238323000EA827000EA923800EC6
:100EF800AA23FF0EAB23A8C1B8F1A9C1B9F1AAC1B1
:100F0800BAF1ABC1BBF1B8C170F1B9C171F1BAC1E5
:100F180072F1BBC173F170C179F071C17AF072C11D
:100F28007BF073C17CF0A0C1C6F0A1C1C7F000017D
:100F3800D890C637C737D890C637C7374B0EC6259F
:100F4800F66E7F0EC721F76E0900F5CF7DF0090018
:100F5800F5CF7EF00900F5CF7FF00A00F5CF80F0DD
:100F68002AEC3DF079C074F17AC075F17BC076F156
:100F78007CC077F1000E0001816F000E826F800E39
:100F8800836F3F0E846F70C171F071C172F072C1CE
:100F980073F073C174F0A0C1C6F0A1C1C7F0D890B6
:100FA800C637C737D890C637C7374B0EC625F66E33
:100FB8007F0EC721F76E0900F5CF6DF00900F5CF58
:100FC8006EF00900F5CF6FF00A00F5CF70F0DDEC98
:100FD8001EF06DC085F06EC086F06FC087F070C0DF
:100FE80088F0B2EC25F081C078F182C079F183C035
:100FF8007AF184C07BF174C128F075C129F076C1FB
:101008002AF077C12BF078C12CF079C12DF07AC184
:101018002EF07BC12FF09CEC23F028C05CF129C096
:101028005DF12AC05EF12BC05FF15CC16CF15DC15E
:101038006DF15EC16EF15FC16FF16CC1B8F16DC148
:10104800B9F16EC1BAF16FC1BBF1B8C194F1B9C1C0
:1010580095F1BAC196F1BBC197F1000E0101941543
:10106800B86FF00E9515B96FFF0E9615BA6FFF0E93
:101078009715BB6FB8C16CF1B9C16DF1BAC16EF10A
:10108800BBC16FF1A8C1C6F0A9C1C7F0AAC1C8F019
:10109800ABC1C9F00001C935C933C833C733C6333A
:1010A800000EC615CA6FF00EC715CB6FFF0EC81518
:1010B800CC6FFF0EC915CD6F000ECA110101946FD8
:1010C800000E0001CB110101956F000E0001CC113B
:1010D8000101966F200E0001CD110101976FA0C18B
:1010E800C6F0A1C1C7F0A2C1C8F0A3C1C9F0150ECE
:1010F800D8900001C637C737C837C937E82E7CEF04
:1011080008F0010194510001C625CA6F01019551EB
:101118000001C721CB6F010196510001C821CC6F96
:10112800010197510001C921CD6F000ECA250101A7
:10113800B86F000E0001CB210101B96F400E00010C
:10114800CC210101BA6F000E0001CD210101BB6F56
:10115800B8C168F1B9C169F1BAC16AF1BBC16BF133
:10116800A0C1C6F0A1C1C7F00001D890C637C737E3
:10117800D890C637C7374B0EC625F66E7F0EC721E7
:10118800F76E0900F5CF7DF00900F5CF7EF0090074
:10119800F5CF7FF00A00F5CF80F068C179F069C11A
:1011A8007AF06AC17BF06BC17CF02AEC3DF079C023
:1011B80098F17AC099F17BC09AF17CC09BF170C11B
:1011C80079F071C17AF072C17BF073C17CF098C17B
:1011D8007DF099C17EF09AC17FF09BC180F02AEC26
:1011E8003DF079C034F17AC035F17BC036F17CC06E
:1011F80037F168C12CF069C12DF06AC12EF06BC1BE
:101208002FF06CC128F06DC129F06EC12AF06FC1B2
:101218002BF09CEC23F028C07DF029C07EF02AC07A
:101228007FF02BC080F074C179F075C17AF076C177
:101238007BF077C17CF02AEC3DF079C098F17AC058
:1012480099F17BC09AF17CC09BF134C12CF035C177
:101258002DF036C12EF037C12FF06CC128F06DC1CA
:1012680029F06EC12AF06FC12BF09CEC23F028C046
:101278007DF029C07EF02AC07FF02BC080F098C195
:1012880079F099C17AF09AC17BF09BC17CF02AEC85
:101298003DF079C054F17AC055F17BC056F17CC05D
:1012A80057F154C128F055C129F056C12AF057C149
:1012B8002BF078C12CF079C12DF07AC12EF07BC1CA
:1012C8002FF09CEC23F028C030F129C031F12AC05E
:1012D80032F12BC033F15CC128F05DC129F05EC149
:1012E8002AF05FC12BF05CC12CF05DC12DF05EC10E
:1012F8002EF05FC12FF09CEC23F028C08CF129C0A0
:101308008DF12AC08EF12BC08FF1550E0001716F3F
:10131800320E726F6C0E736F3E0E746F420E2C6E2F
:10132800F10E2D6E530E2E6E3E0E2F6E8CC128F0D0
:101338008DC129F08EC12AF08FC12BF09CEC23F0CF
:1013480028C06DF029C06EF02AC06FF02BC070F075
:10135800DDEC1EF06DC0A4F16EC0A5F16FC0A6F162
:1013680070C0A7F1050E0001716FA30E726F8B0E8E
:10137800736F3E0E746F8CC12CF08DC12DF08EC131
:101388002EF08FC12FF0A4C128F0A5C129F0A6C165
:101398002AF0A7C12BF09CEC23F028C06DF029C0DF
:1013A8006EF02AC06FF02BC070F0DDEC1EF06DC03F
:1013B80054F16EC055F16FC056F170C057F1AB0EC5
:1013C8000001716FAA0E726FAA0E736F3E0E746FD2
:1013D8008CC12CF08DC12DF08EC12EF08FC12FF055
:1013E80054C128F055C129F056C12AF057C12BF035
:1013F8009CEC23F028C06DF029C06EF02AC06FF075
:101408002BC070F0DDEC1EF06DC048F16EC049F1E4
:101418006FC04AF170C04BF1B70E0001716F6D0ECD
:10142800726FDB0E736F3E0E746F8CC12CF08DC122
:101438002DF08EC12EF08FC12FF048C128F049C180
:1014480029F04AC12AF04BC12BF09CEC23F028C0AC
:101458006DF029C06EF02AC06FF02BC070F0DDEC83
:101468001EF06DC038F16EC039F16FC03AF170C02E
:101478003BF19A0E0001716F990E726F190E736F1E
:101488003F0E746F8CC12CF08DC12DF08EC12EF0E3
:101498008FC12FF038C128F039C129F03AC12AF09C
:1014A8003BC12BF09CEC23F028C06DF029C06EF0F6
:1014B8002AC06FF02BC070F0DDEC1EF06DC000F19B
:1014C8006EC001F16FC002F170C003F18CC12CF045
:1014D8008DC12DF08EC12EF08FC12FF08CC128F058
:1014E8008DC129F08EC12AF08FC12BF09CEC23F01E
:1014F80028C004F129C005F12AC006F12BC007F164
:1015080000C128F001C129F002C12AF003C12BF063
:1015180004C12CF005C12DF006C12EF007C12FF033
:101528009CEC23F028C04CF129C04DF12AC04EF1A3
:101538002BC04FF130C12CF031C12DF032C12EF04B
:1015480033C12FF05CC171F05DC172F05EC173F000
:101558005FC174F06CC16DF06DC16EF06EC16FF05B
:101568006FC170F0DDEC1EF06DC028F06EC029F080
:101578006FC02AF070C02BF09CEC23F028C058F103
:1015880029C059F12AC05AF12BC05BF14CC16DF04A
:101598004DC16EF04EC16FF04FC170F058C171F07F
:1015A80059C172F05AC173F05BC174F0DDEC1EF0E2
:1015B8006DC04CF16EC04DF16FC04EF170C04FF16F
:1015C8006CC128F06DC129F06EC12AF06FC12BF0F3
:1015D8006CC12CF06DC12DF06EC12EF06FC12FF0D3
:1015E8009CEC23F028C08CF129C08DF12AC08EF123
:1015F8002BC08FF1000E0001716F000E726F400E4C
:10160800736F400E746F8CC16DF08DC16EF08EC11A
:101618006FF08FC170F0DDEC1EF06DC058F16EC038
:1016280059F16FC05AF170C05BF158C16DF059C1E2
:101638006EF05AC16FF05BC170F04CC171F04DC1D2
:1016480072F04EC173F04FC174F0DDEC1EF06DC046
:1016580068F16EC069F16FC06AF170C06BF168C162
:10166800B8F169C1B9F16AC1BAF16BC1BBF1B8C1CE
:1016780094F1B9C195F1BAC196F1BBC197F1000EC9
:1016880001019415B86FF00E9515B96FFF0E9615F8
:10169800BA6FFF0E9715BB6FB8C168F1B9C169F190
:1016A800BAC16AF1BBC16BF1000E0001716F000E87
:1016B800726F400E736FC00E746F68C16DF069C1B0
:1016C8006EF06AC16FF06BC170F0DDEC1EF06DC09A
:1016D8003CF16EC03DF16FC03EF170C03FF18CC16E
:1016E8007DF08DC17EF08EC17FF08FC180F03CC14E
:1016F80079F03DC17AF03EC17BF03FC17CF02AEC25
:101708003DF079C040F17AC041F17BC042F17CC024
:1017180043F14CC179F04DC17AF04EC17BF04FC115
:101728007CF040C17DF041C17EF042C17FF043C1F1
:1017380080F02AEC3DF079C034F17AC035F17BC0F5
:1017480036F17CC037F16CC128F06DC129F06EC14B
:101758002AF06FC12BF068C12CF069C12DF06AC165
:101768002EF06BC12FF09CEC23F028C074F129C037
:1017780075F12AC076F12BC077F168C12CF069C1E8
:101788002DF06AC12EF06BC12FF030C128F031C1A5
:1017980029F032C12AF033C12BF09CEC23F028C089
:1017A8006DF029C06EF02AC06FF02BC070F05CC1DC
:1017B8002CF05DC12DF05EC12EF05FC12FF034C159
:1017C80028F035C129F036C12AF037C12BF09CEC3E
:1017D80023F028C071F029C072F02AC073F02BC022
:1017E80074F0DDEC1EF06DC078F16EC079F16FC059
:1017F8007AF170C07BF174C16DF075C16EF076C17D
:101808006FF077C170F078C171F079C172F07AC168
:1018180073F07BC174F0DDEC1EF06DC09CF16EC0FE
:101828009DF16FC09EF170C09FF19CC1B8F19DC140
:10183800B9F19EC1BAF19FC1BBF1B8C194F1B9C168
:1018480095F1BAC196F1BBC197F1000E010194154B
:10185800B86FF00E9515B96FFF0E9615BA6FFF0E9B
:101868009715BB6FB8C19CF1B9C19DF1BAC19EF182
:10187800BBC19FF174C17DF075C17EF076C17FF068
:1018880077C180F09CC179F09DC17AF09EC17BF050
:101898009FC17CF02AEC3DF079C098F17AC099F1AB
:1018A8007BC09AF17CC09BF178C179F079C17AF05C
:1018B8007AC17BF07BC17CF098C17DF099C17EF044
:1018C8009AC17FF09BC180F02AEC3DF079C064F1A9
:1018D8007AC065F17BC066F17CC067F19CC128F0D5
:1018E8009DC129F09EC12AF09FC12BF0000E2C6EDD
:1018F800400E2D6E760E2E6E3F0E2F6E9CEC23F052
:1019080028C020F129C021F12AC022F12BC023F1DF
:101918004F0E2C6E380E2D6E760E2E6E3F0E2F6EDD
:1019280064C128F065C129F066C12AF067C12BF0AF
:101938009CEC23F028C071F029C072F02AC073F023
:101948002BC074F0C60E2C6E230E2D6EF60E2E6E66
:10195800B80E2F6E9CC128F09DC129F09EC12AF0B7
:101968009FC12BF09CEC23F028C06DF029C06EF0CD
:101978002AC06FF02BC070F0DDEC1EF06DC058F17E
:101988006EC059F16FC05AF170C05BF158C16DF06B
:1019980059C16EF05AC16FF05BC170F0A0C1C6F0BA
:1019A800A1C1C7F00001D890C637C737D890C6374D
:1019B800C737E30EC625F66E7E0EC721F76E0900FF
:1019C800F5CF71F00900F5CF72F00900F5CF73F08B
:1019D8000A00F5CF74F0DDEC1EF06DC024F16EC086
:1019E80025F16FC026F170C027F180C11AF081C1BE
:1019F8001BF082C11CF083C11DF0010E53EC2EF0C8
:101A08001AC0B0F11BC0B1F11CC0B2F11DC0B3F1D6
:101A180024C171F025C172F026C173F027C174F09A
:101A280020C16DF021C16EF022C16FF023C170F0AA
:101A3800DDEC1EF06DC058F16EC059F16FC05AF15F
:101A480070C05BF1A0C1C6F0A1C1C7F00001D89079
:101A5800C637C737D890C637C737EB0EC625F66ED8
:101A68007E0EC721F76E0900F5CF71F00900F5CF9A
:101A780072F00900F5CF73F00A00F5CF74F058C181
:101A88006DF059C16EF05AC16FF05BC170F0DDECBA
:101A98001EF06DC008F16EC009F16FC00AF170C088
:101AA8000BF108C16DF009C16EF00AC16FF00BC1EE
:101AB80070F0B0C171F0B1C172F0B2C173F0B3C1CE
:101AC80074F0DDEC1EF06DC084F16EC085F16FC05E
:101AD80086F170C087F184C1B8F185C1B9F186C1BA
:101AE800BAF187C1BBF1B8C194F1B9C195F1BAC1D6
:101AF80096F1BBC197F1000E01019415B86FF00E75
:101B08009515B96FFF0E9615BA6FFF0E9715BB6F37
:101B1800B8C184F1B9C185F1BAC186F1BBC187F1F9
:101B2800B0C17DF0B1C17EF0B2C17FF0B3C180F029
:101B380084C179F085C17AF086C17BF087C17CF0D9
:101B48002AEC3DF079C098F17AC099F17BC09AF1FE
:101B58007CC09BF1A0C1C6F0A1C1C7F00001D8901C
:101B6800C637C737D890C637C737EB0EC625F66EC7
:101B78007E0EC721F76E0900F5CF7DF00900F5CF7D
:101B88007EF00900F5CF7FF00A00F5CF80F098C10C
:101B980079F099C17AF09AC17BF09BC17CF02AEC6C
:101BA8003DF079C040F17AC041F17BC042F17CC080
:101BB80043F120C17DF021C17EF022C17FF023C115
:101BC80080F040C179F041C17AF042C17BF043C155
:101BD8007CF02AEC3DF079C00CF17AC00DF17BC0A5
:101BE8000EF17CC00FF124C179F025C17AF026C12D
:101BF8007BF027C17CF00CC17DF00DC17EF00EC1D9
:101C08007FF00FC180F02AEC3DF079C01CF17AC05A
:101C18001DF17BC01EF17CC01FF1C2C0B8F1C3C06A
:101C2800B9F1C4C0BAF1C5C0BBF1B8C194F1B9C12A
:101C380095F1BAC196F1BBC197F1000E0101941557
:101C4800B86FF00E9515B96FFF0E9615BA6FFF0EA7
:101C58009715BB6FB8C128F1B9C129F1BAC12AF1EA
:101C6800BBC12BF184C12CF085C12DF086C12EF0AB
:101C780087C12FF028C17DF029C17EF02AC17FF0ED
:101C88002BC180F0C2C079F0C3C07AF0C4C07BF029
:101C9800C5C07CF02AEC3DF079C028F07AC029F064
:101CA8007BC02AF07CC02BF09CEC23F028C010F1FC
:101CB80029C011F12AC012F12BC013F110C16DF027
:101CC80011C16EF012C16FF013C170F01CC12CF07D
:101CD8001DC12DF01EC12EF01FC12FF0C2C028F06B
:101CE800C3C029F0C4C02AF0C5C02BF09CEC23F077
:101CF80028C071F029C072F02AC073F02BC074F0AC
:101D0800DDEC1EF06DC064F16EC065F16FC066F168
:101D180070C067F128C128F029C129F02AC12AF02A
:101D28002BC12BF084C12CF085C12DF086C12EF07B
:101D380087C12FF09CEC23F028C09CF129C09DF1AD
:101D48002AC09EF12BC09FF164C16DF065C16EF091
:101D580066C16FF067C170F09CC171F09DC172F0EF
:101D68009EC173F09FC174F0DDEC1EF06DC0B4F13C
:101D78006EC0B5F16FC0B6F170C0B7F1B4C1B8F1BB
:101D8800B5C1B9F1B6C1BAF1B7C1BBF1B8C1ACF1CF
:101D9800B9C1ADF1BAC1AEF1BBC1AFF10101AFBF7D
:101DA800E2EF0EF0AC05000EAD59000EAE59430E31
:101DB800AF59D8A0E2EF0EF0E4EF0EF01AEF0FF0F3
:101DC800CA0E2C6EF20E2D6E490E2E6E710E2F6EEF
:101DD80088C128F089C129F08AC12AF08BC12BF06B
:101DE8009CEC23F028C0A4F129C0A5F12AC0A6F1D3
:101DF8002BC0A7F1A4C128F0A5C129F0A6C12AF0DB
:101E0800A7C12BF0CA0E2C6EF20E2D6E490E2E6E47
:101E1800710E2F6E9CEC23F028C0BEF029C0BFF0D5
:101E28002AC0C0F02BC0C1F024EF15F0430EAF1943
:101E3800AC11AD11AE11D8A424EF0FF026EF0FF0BE
:101E48009BEF0FF09CC17DF09DC17EF09EC17FF09D
:101E58009FC180F0B4C179F0B5C17AF0B6C17BF00A
:101E6800B7C17CF02AEC3DF079C081F07AC082F0ED
:101E78007BC083F07CC084F03C0E0001716FAA0E19
:101E8800726F380E736F330E746F64C16DF065C175
:101E98006EF066C16FF067C170F0DDEC1EF06DC0CA
:101EA80085F06EC086F06FC087F070C088F080EC57
:101EB80033F00001D8B063EF0FF065EF0FF066EF75
:101EC80010F0CA0E2C6EF20E2D6E490E2E6E710E8B
:101ED8002F6E88C128F089C129F08AC12AF08BC1E8
:101EE8002BF09CEC23F028C0A4F129C0A5F12AC04E
:101EF800A6F12BC0A7F1A4C128F0A5C129F0A6C15D
:101F08002AF0A7C12BF0CA0E2C6EF20E2D6E490EC8
:101F18002E6E710E2F6E9CEC23F028C0BEF029C0E7
:101F2800BFF02AC0C0F02BC0C1F024EF15F0FF0E9F
:101F3800AC150001C66FFF0E0101AD150001C76F9A
:101F4800FF0E0101AE150001C86F7F0E0101AF152C
:101F58000001C96FC9BFBDEF0FF0C605000EC75914
:101F6800160EC859430EC959D8A0BDEF0FF0BFEFE0
:101F78000FF0F5EF0FF0600E2C6E420E2D6EA20ED4
:101F88002E6E0D0E2F6E88C128F089C129F08AC1E6
:101F98002AF08BC12BF09CEC23F028C0A4F129C0B7
:101FA800A5F12AC0A6F12BC0A7F1A4C128F0A5C1AC
:101FB80029F0A6C12AF0A7C12BF0600E2C6E420EA4
:101FC8002D6EA20E2E6E0D0E2F6E9CEC23F028C0E7
:101FD800BEF029C0BFF02AC0C0F02BC0C1F024EF6A
:101FE80015F0160E0101AE1909E1C30EAF19AC11B7
:101FF800AD11D8A402EF10F004EF10F066EF10F066
:102008009CC17DF09DC17EF09EC17FF09FC180F094
:10201800B4C179F0B5C17AF0B6C17BF0B7C17CF034
:102028002AEC3DF079C081F07AC082F07BC083F061
:102038007CC084F064C185F065C186F066C187F014
:1020480067C188F080EC33F00001D8A02EEF10F0C3
:1020580030EF10F066EF10F0600E2C6E420E2D6E11
:10206800A20E2E6E0D0E2F6E88C128F089C129F0A0
:102078008AC12AF08BC12BF09CEC23F028C0A4F174
:1020880029C0A5F12AC0A6F12BC0A7F1A4C128F048
:10209800A5C129F0A6C12AF0A7C12BF0600E2C6EAD
:1020A800420E2D6EA20E2E6E0D0E2F6E9CEC23F09E
:1020B80028C0BEF029C0BFF02AC0C0F02BC0C1F0B4
:1020C80024EF15F0FF0E0101AC152C6FFF0EAD15B6
:1020D8002D6FFF0EAE152E6F7F0EAF152F6F170EDB
:1020E8000001C66F2CC1C7F02DC1C8F02EC1C9F0C0
:1020F8002FC1CAF0C66783EF10F08BEF10F0CA3516
:10210800CA33C933C833C733C62F7EEF10F0810EE8
:102118000001C7250101A06FFF0E0001C8210101C0
:10212800A16FFF0E0001C9210101A26FFF0E00017E
:10213800CA210101A36F000E806F000E816F000E8F
:10214800826F000E836F2FBFB6EF10F02C05000EC4
:102158002D59000E2E593F0E2F59D8A0B6EF10F06A
:10216800B8EF10F0BCEF11F0A0C1C6F0010E0001ED
:10217800C627000EC76F000EC86F800EC96F000E0D
:10218800CA6FC667CAEF10F0D2EF10F0CA35CA336B
:10219800C933C833C733C62FC5EF10F00101AC519E
:1021A8000001C7250101806FAD510001C82101015F
:1021B800816FAE510001C9210101826FAF51000149
:1021C800CA210101836F810E0001C66FFF0EC76F20
:1021D800FF0EC86FFF0EC96F170ECA6F80C1CBF014
:1021E80081C1CCF082C1CDF083C1CEF0CA67FFEFC8
:1021F80010F007EF11F0CE35CE33CD33CC33CB33DF
:10220800CA2FFAEF10F00001CB51C6250101A06FCB
:10221800000E0001C7210101A16F000E0001C821B5
:102228000101A26F000E0001C9210101A36FA0C125
:10223800C6F0FF0E0001C76FFF0EC86F7F0EC96F93
:10224800000ECA6FC6672BEF11F033EF11F0CA35D5
:10225800CA33C933C833C733C62F26EF11F000017C
:10226800C71DCB6FC81DCC6FC91DCD6FCA1DCE6FE2
:10227800010180510001CB150101B86F81510001A6
:10228800CC150101B96F82510001CD150101BA6F5A
:1022980083510001CE150101BB6FB8C1B0F1B9C1BE
:1022A800B1F1BAC1B2F1BBC1B3F1A0511708000135
:1022B800C66FFF0E010180150001C76FFF0E0101F7
:1022C80081150001C86F7F0E010182150001C96FD9
:1022D800000E010183150001CA6F000EC711CB6FF4
:1022E800000EC811CC6F800EC911CD6F000ECA1137
:1022F800CE6FC66782EF11F08AEF11F0CE35CE337C
:10230800CD33CC33CB33C62F7DEF11F0CBC080F16A
:10231800CCC081F1CDC082F1CEC083F10101AFBF45
:102328009AEF11F098EF11F0A2EF11F0831F821FBE
:10233800811F806D000E8123822383239CC179F045
:102348009DC17AF09EC17BF09FC17CF0B0C17DF049
:10235800B1C17EF0B2C17FF0B3C180F02AEC3DF08C
:1023680079C09CF17AC09DF17BC09EF17CC09FF141
:1023780064C16DF065C16EF066C16FF067C170F041
:102388009CC171F09DC172F09EC173F09FC174F041
:10239800DDEC1EF06DC0B0F16EC0B1F16FC0B2F1EE
:1023A80070C0B3F1B0C1B8F1B1C1B9F1B2C1BAF1FD
:1023B800B3C1BBF1B8C194F1B9C195F1BAC196F1F5
:1023C800BBC197F1000E01019415B86F800E9515E9
:1023D800B96FFF0E9615BA6FFF0E9715BB6FB8C190
:1023E800B0F1B9C1B1F1BAC1B2F1BBC1B3F1B0C179
:1023F80028F0B1C129F0B2C12AF0B3C12BF0000E08
:102408002C6E720E2D6E310E2E6E3F0E2F6E9CECC2
:1024180023F028C074F129C075F12AC076F12BC0C9
:1024280077F19CC17DF09DC17EF09EC17FF09FC178
:1024380080F0B0C179F0B1C17AF0B2C17BF0B3C11C
:102448007CF02AEC3DF079C098F17AC099F17BC014
:102458009AF17CC09BF1180E2C6E720E2D6E310E07
:102468002E6E3F0E2F6E98C17DF099C17EF09AC1F5
:102478007FF09BC180F064C179F065C17AF066C1D4
:102488007BF067C17CF02AEC3DF079C028F07AC077
:1024980029F07BC02AF07CC02BF09CEC23F028C0EC
:1024A80014F129C015F12AC016F12BC017F114C177
:1024B8006DF015C16EF016C16FF017C170F08C0E7B
:1024C8002C6EBE0E2D6EBF0E2E6E350E2F6EB0C149
:1024D80028F0B1C129F0B2C12AF0B3C12BF09CECAD
:1024E80023F028C071F029C072F02AC073F02BC005
:1024F80074F0DDEC1EF06DC078F16EC079F16FC03C
:102508007AF170C07BF174C16DF075C16EF076C15F
:102518006FF077C170F078C171F079C172F07AC14B
:1025280073F07BC174F0DDEC1EF06DC0B4F16EC0C9
:10253800B5F16FC0B6F170C0B7F174C17DF075C167
:102548007EF076C17FF077C180F0B4C179F0B5C173
:102558007AF0B6C17BF0B7C17CF02AEC3DF079C0C7
:1025680098F17AC099F17BC09AF17CC09BF178C14F
:1025780079F079C17AF07AC17BF07BC17CF098C19F
:102588007DF099C17EF09AC17FF09BC180F02AEC62
:102598003DF079C044F17AC045F17BC046F17CC07A
:1025A80047F1B4C128F0B5C129F0B6C12AF0B7C1C6
:1025B8002BF0B4C12CF0B5C12DF0B6C12EF0B7C1C7
:1025C8002FF09CEC23F028C0B0F129C0B1F12AC04B
:1025D800B2F12BC0B3F10E0E0001716FEA0E726FEB
:1025E800DD0E736FB50E746F4C0E2C6EBB0E2D6E18
:1025F800310E2E6E330E2F6EB0C128F0B1C129F006
:10260800B2C12AF0B3C12BF09CEC23F028C06DF0C6
:1026180029C06EF02AC06FF02BC070F0DDEC1EF000
:102628006DC0A4F16EC0A5F16FC0A6F170C0A7F18E
:10263800550E0001716FB30E726F8A0E736F380EEC
:10264800746FB0C12CF0B1C12DF0B2C12EF0B3C17E
:102658002FF0A4C128F0A5C129F0A6C12AF0A7C16E
:102668002BF09CEC23F028C06DF029C06EF02AC036
:102678006FF02BC070F0DDEC1EF06DC054F16EC031
:1026880055F16FC056F170C057F1610E0001716FBE
:102698000B0E726F360E736FBB0E746FB0C12CF0D9
:1026A800B1C12DF0B2C12EF0B3C12FF054C128F042
:1026B80055C129F056C12AF057C12BF09CEC23F0E4
:1026C80028C06DF029C06EF02AC06FF02BC070F0E2
:1026D800DDEC1EF06DC048F16EC049F16FC04AF1E3
:1026E80070C04BF1AB0E0001716FAA0E726F2A0E0B
:1026F800736F3E0E746FB0C12CF0B1C12DF0B2C132
:102708002EF0B3C12FF048C128F049C129F04AC1C1
:102718002AF04BC12BF09CEC23F028C06DF029C0A7
:102728006EF02AC06FF02BC070F0DDEC1EF06DC0AB
:1027380038F16EC039F16FC03AF170C03BF1B4C1E5
:1027480079F0B5C17AF0B6C17BF0B7C17CF0B0C101
:102758002CF0B1C12DF0B2C12EF0B3C12FF038C1A9
:1027680028F039C129F03AC12AF03BC12BF09CEC82
:1027780023F028C07DF029C07EF02AC07FF02BC04E
:1027880080F02AEC3DF079C084F17AC085F17BC0F5
:1027980086F17CC087F1000E0001716F000E726F28
:1027A800000E736FC00E746F84C16DF085C16EF03A
:1027B80086C16FF087C170F0DDEC1EF06DC085F04A
:1027C8006EC086F06FC087F070C088F084C12CF0AE
:1027D80085C12DF086C12EF087C12FF0B4C128F035
:1027E800B5C129F0B6C12AF0B7C12BF09CEC23F093
:1027F80028C081F029C082F02AC083F02BC084F061
:10280800B2EC25F081C03CF182C03DF183C03EF1BD
:1028180084C03FF144C171F045C172F046C173F004
:1028280047C174F044C12CF045C12DF046C12EF0CB
:1028380047C12FF0B4C128F0B5C129F0B6C12AF0BC
:10284800B7C12BF09CEC23F028C06DF029C06EF0C6
:102858002AC06FF02BC070F0DDEC1EF06DC018F1CF
:102868006EC019F16FC01AF170C01BF13CC179F04C
:102878003DC17AF03EC17BF03FC17CF018C17DF0CC
:1028880019C17EF01AC17FF01BC180F02AEC3DF01F
:1028980079C04CF17AC04DF17BC04EF17CC04FF14C
:1028A800B4C17DF0B5C17EF0B6C17FF0B7C180F08C
:1028B8004CC179F04DC17AF04EC17BF04FC17CF02C
:1028C8002AEC3DF079C098F17AC099F17BC09AF171
:1028D8007CC09BF1000E0001796F000E7A6F800EAC
:1028E8007B6F3F0E7C6F98C17DF099C17EF09AC1D5
:1028F8007FF09BC180F02AEC3DF079C0B4F17AC03A
:10290800B5F17BC0B6F17CC0B7F1B4C1B8F1B5C1BF
:10291800B9F1B6C1BAF1B7C1BBF1B8C1ACF1B9C12F
:10292800ADF1BAC1AEF1BBC1AFF180C1C6F081C192
:10293800C7F082C1C8F083C1C9F0170ED890000152
:10294800C637C737C837C937E82EA2EF14F0C651C3
:102958000101AC270001C7510101AD230001C85195
:102968000101AE230001C9510101AF23170E000177
:10297800C66FACC1C7F0ADC1C8F0AEC1C9F0AFC138
:10298800CAF0C667CAEF14F0D2EF14F0CA35CA33DA
:10299800C933C833C733C62FC5EF14F00001CABF07
:1029A800E2EF14F0CA51C911C81106E1C705D8B041
:1029B800E0EF14F0E2EF14F0FAEF14F0B4C134F0E1
:1029C800B5C135F0B6C136F0B7C137F080C138F0BF
:1029D80081C139F04BEC29F034C0B4F135C0B5F100
:1029E80036C0B6F137C0B7F10AEF15F0ACC1B8F18F
:1029F800ADC1B9F1AEC1BAF1AFC1BBF1B8C1B4F163
:102A0800B9C1B5F1BAC1B6F1BBC1B7F188C128F0F7
:102A180089C129F08AC12AF08BC12BF0B4C12CF0EE
:102A2800B5C12DF0B6C12EF0B7C12FF09CEC23F044
:102A380028C0BEF029C0BFF02AC0C0F02BC0C1F02A
:102A48001200000E0101D76F000ED66FDBC0E8F14F
:102A5800DCC0E9F1DDC0EAF1DEC0EBF1EBBF39EF34
:102A680015F037EF15F04FEF15F0000ED76F010E88
:102A7800D66FE8C115F0E9C116F0EAC117F0EBC14D
:102A880018F0C7EC3DF015C0E8F116C0E9F117C021
:102A9800EAF118C0EBF1000E0101EF6F000EEE6FC6
:102AA800FCC1DAF1FDC1DBF1D651D711D8A45FEF33
:102AB80015F061EF15F068EF15F042A466EF15F018
:102AC80068EF15F082EF15F0D651D711D8A46FEF43
:102AD80015F071EF15F077EF15F0000EBD6F2B0EA6
:102AE800BC6F7BEF15F0000EBD6F2D0EBC6FBCC127
:102AF8001DF2EE4BEF2BDA07D8A0DB07E8C115F083
:102B0800E9C116F0EAC117F0EBC118F003EC34F094
:102B180015041610D8A493EF15F095EF15F0EDEF06
:102B280015F0BF0E0001E06FFF0EE16FDF51E26F9D
:102B3800E36BE051E227E151E323E3510AE11A0E86
:102B4800E25DD8A0AAEF15F0ADEF15F0010EAEEFDB
:102B580015F0000E0101BE6FBF6BBE51BF11D8B496
:102B6800B8EF15F0BAEF15F0C8EF15F01D0EEE2509
:102B7800156E020EEF21166EDD0E176E7F0E186EA3
:102B8800F4EC3BF0D4EF15F01D0EEE25156E020E99
:102B9800EF21166EE50E176E7F0E186EF4EC3BF003
:102BA8000101FD0EDA27FF0EDB23D9C025F0DAC0BC
:102BB80026F01D0E276E020E286EDAC129F0DBC141
:102BC8002AF079EC38F025C0D9F026C0DAF06AEF9F
:102BD8001BF0E8C115F0E9C116F0EAC117F0EBC126
:102BE80018F003EC34F015501610D8A4FEEF15F0C9
:102BF80000EF16F041EF16F0BF0E0001E06FFF0E78
:102C0800E16FDF51E26FE36BE051E227E151E3232B
:102C1800E3510AE11A0EE25DD8A015EF16F018EF9D
:102C280016F0010E19EF16F0000E0101C06FC16B0E
:102C3800C051C111D8B423EF16F025EF16F033EFC9
:102C480016F01D0EEE25156E020EEF21166EE10E22
:102C5800176E7F0E186EF4EC3BF0D4EF15F01D0ED6
:102C6800EE25156E020EEF21166EE90E176E7F0E19
:102C7800186EF4EC3BF0D4EF15F0000E0101F06F84
:102C8800000EF16F800EF26F3F0EF36F000EED6FC6
:102C9800000EEC6FE8C115F0E9C116F0EAC117F0B3
:102CA800EBC118F0000E196E000E1A6E000E1B6EA6
:102CB800000E1C6E32EC39F0D8B065EF16F067EFF5
:102CC80016F0ECEF16F086EF16F0F0C128F0F1C11F
:102CD80029F0F2C12AF0F3C12BF0000E2C6E000E81
:102CE8002D6E200E2E6E410E2F6E9CEC23F028C008
:102CF800F0F129C0F1F12AC0F2F12BC0F3F1010182
:102D0800EC4BED2BE8C181F0E9C182F0EAC183F018
:102D1800EBC184F0000E2C6E000E2D6E200E2E6E70
:102D2800410E2F6EF0C128F0F1C129F0F2C12AF04E
:102D3800F3C12BF09CEC23F028C085F029C086F065
:102D48002AC087F02BC088F080EC33F00001D8B09F
:102D5800B0EF16F0B2EF16F069EF16F0D2EF16F0FA
:102D6800F0C181F0F1C182F0F2C183F0F3C184F0C7
:102D7800000E856F000E866F200E876F410E886FDC
:102D8800B2EC25F081C0F0F182C0F1F183C0F2F11C
:102D980084C0F3F10101EC07D8A0ED07E8C181F088
:102DA800E9C182F0EAC183F0EBC184F0F0C185F09B
:102DB800F1C186F0F2C187F0F3C188F080EC33F0FE
:102DC8000001D8A0EAEF16F0ECEF16F0B4EF16F019
:102DD800DFC01BF01C6A95EC3BF01B500101DD6F56
:102DE800DDC1DCF1670EDD19D8A4FDEF16F0FFEFA9
:102DF80016F025EF17F0FE51FF11D8A406EF17F0D3
:102E080008EF17F00CEF17F0000EFF6F010EFE6FC2
:102E1800FFBF19EF17F0FF5106E1FE05D8B017EF15
:102E280017F019EF17F01FEF17F0000ED96F060E05
:102E3800D86F2EEF17F0FEC1D8F1FFC1D9F12EEFF0
:102E480017F0FFBF2AEF17F02CEF17F019EF17F064
:102E58001FEF17F0670EDD19D8A435EF17F037EF1D
:102E680017F06DEF17F0EDAF45EF17F0FC0EEC5DC6
:102E7800FF0EED59D8A043EF17F045EF17F06AEFB2
:102E880017F0FF0E0001E06FFF0EE16FD8C1E2F00E
:102E9800D9C1E3F0E051E227E151E3230101EC510C
:102EA8000001E25DE351800AE46F0101ED51800AFF
:102EB8000001E459D8A063EF17F065EF17F06AEF47
:102EC80017F0660E0101DC6F6DEF17F0650E01015A
:102ED800DC6FD8C1CEF1D9C1CFF1670EDD19D8A406
:102EE80078EF17F07AEF17F08AEF17F0660EDC1913
:102EF800D8A481EF17F083EF17F08CEF17F0EDBF30
:102F08008AEF17F088EF17F08CEF17F0CE4BCF2B26
:102F1800660EDC19D8A493EF17F095EF17F0B5EF0C
:102F280017F0EDBF9CEF17F09AEF17F0A8EF17F026
:102F3800000EF06F000EF16F800EF26F3F0EF36F10
:102F4800000EED6F000EEC6F670EDD19D8B4AFEF11
:102F580017F0B1EF17F0B5EF17F0EC51CE27ED51A0
:102F6800CF23000EE76F000EE66FE8C1DEF1E9C17E
:102F7800DFF1EAC1E0F1EBC1E1F1F0C1D0F1F1C15B
:102F8800D1F1F2C1D2F1F3C1D3F147EF18F0DEC1AC
:102F980081F0DFC182F0E0C183F0E1C184F0F0C1CB
:102FA80085F0F1C186F0F2C187F0F3C188F0B2EC88
:102FB80025F081C09AF082C09BF083C09CF084C049
:102FC8009DF066EC2AF09AC0E2F19BC0E3F19CC048
:102FD800E4F19DC0E5F1E2C1CFF0E3C1D0F0E4C176
:102FE800D1F0E5C1D2F0FCEC32F0CFC0D4F1D0C0C2
:102FF800D5F1DEC179F0DFC17AF0E0C17BF0E1C143
:103008007CF0F0C12CF0F1C12DF0F2C12EF0F3C12B
:103018002FF0E2C128F0E3C129F0E4C12AF0E5C1AC
:103028002BF09CEC23F028C07DF029C07EF02AC04C
:103038007FF02BC080F02AEC3DF079C0DEF17AC039
:10304800DFF17BC0E0F17CC0E1F1F0C181F0F1C1BA
:1030580082F0F2C183F0F3C184F0000E0001856FA5
:10306800000E866F200E876F410E886FB2EC25F038
:1030780081C0F0F182C0F1F183C0F2F184C0F3F1B4
:103088000101E64BE72BCE51E65DE751800A0001CE
:10309800E06F0101CF51800A0001E059D8A057EF35
:1030A80018F059EF18F0CBEF17F0F0C128F0F1C184
:1030B80029F0F2C12AF0F3C12BF0000E2C6E000E9D
:1030C8002D6EA00E2E6E400E2F6E9CEC23F028C0A5
:1030D800E2F129C0E3F12AC0E4F12BC0E5F1DEC139
:1030E80081F0DFC182F0E0C183F0E1C184F0E2C188
:1030F80085F0E3C186F0E4C187F0E5C188F080EC93
:1031080033F00001D8B08BEF18F08DEF18F098EF7E
:1031180018F0000E0101E26F000EE36F000EE46F7D
:10312800000EE56FC1EF18F0DEC115F0DFC116F033
:10313800E0C117F0E1C118F0E2C119F0E3C11AF0DB
:10314800E4C11BF0E5C11CF032EC39F0D8A0AFEFB8
:1031580018F0B1EF18F0C1EF18F00101D4B1B7EFD2
:1031680018F0B9EF18F0C1EF18F0000EE26F000E7A
:10317800E36F000EE46F000EE56FE8C16DF0E9C182
:103188006EF0EAC16FF0EBC170F0E2C171F0E3C11B
:1031980072F0E4C173F0E5C174F0DDEC1EF06DC0AF
:1031A800DEF16EC0DFF16FC0E0F170C0E1F1DEC1A9
:1031B80081F0DFC182F0E0C183F0E1C184F0000E4C
:1031C8002C6E000E2D6E200E2E6E410E2F6ED0C16D
:1031D80028F0D1C129F0D2C12AF0D3C12BF09CEC40
:1031E80023F028C085F029C086F02AC087F02BC0BC
:1031F80088F080EC33F00001D8A005EF19F007EF54
:1032080019F030EF19F00101EC4BED2BD0C128F08B
:10321800D1C129F0D2C12AF0D3C12BF0000E2C6EF7
:10322800000E2D6E200E2E6E410E2F6E9CEC23F09C
:1032380028C0D0F129C0D1F12AC0D2F12BC0D3F1D6
:10324800660E0101DC19D8A42CEF19F02EEF19F045
:1032580030EF19F0CE4BCF2BD0C1F0F1D1C1F1F145
:10326800D2C1F2F1D3C1F3F1650E0101DC19D8B472
:1032780040EF19F042EF19F048EF19F0ECC1CCF12A
:10328800EDC1CDF14CEF19F0000ECD6F000ECC6FF3
:10329800000ECB6F000ECA6F000EC96F000EC86F0C
:1032A800000EE76F000EE66F49EF1AF0DEC181F0FD
:1032B800DFC182F0E0C183F0E1C184F0F0C185F0A4
:1032C800F1C186F0F2C187F0F3C188F0B2EC25F0C5
:1032D80081C09AF082C09BF083C09CF084C09DF0AE
:1032E80066EC2AF09AC0E2F19BC0E3F19CC0E4F1DD
:1032F8009DC0E5F1E2C1CFF0E3C1D0F0E4C1D1F067
:10330800E5C1D2F0FCEC32F0CFC0D4F1D0C0D5F199
:1033180042B891EF19F093EF19F0B1EF19F00101EC
:10332800D451D511D8A49BEF19F09DEF19F0B1EF46
:1033380019F0670EDD19D8A4A4EF19F0A6EF19F05B
:10334800B1EF19F0CDBFADEF19F0ABEF19F0B1EF58
:1033580019F0C84BC92BFCEF19F00101CA51CB1168
:10336800D8A4B9EF19F0BBEF19F0E5EF19F0CDBF0C
:10337800C2EF19F0C0EF19F0E5EF19F01D0EEE25B8
:10338800D96E020EEF21DA6E2E0EDF6EEE4BEF2BAA
:10339800DA07D8A0DB07000ECB6F010ECA6FE5EF86
:1033A80019F01D0EEE25D96E020EEF21DA6E300EE1
:1033B800DF6EEE4BEF2BDA07D8A0DB07C807D8A0E3
:1033C800C907C851C911D8A4ECEF19F0EEEF19F0EC
:1033D800D5EF19F01D0EEE25D96E020EEF21DA6E2B
:1033E800D451300FDF6EEE4BEF2BDA07D8A0DB0796
:1033F800DEC179F0DFC17AF0E0C17BF0E1C17CF099
:10340800F0C12CF0F1C12DF0F2C12EF0F3C12FF074
:10341800E2C128F0E3C129F0E4C12AF0E5C12BF0AC
:103428009CEC23F028C07DF029C07EF02AC07FF0F4
:103438002BC080F02AEC3DF079C0DEF17AC0DFF1D4
:103448007BC0E0F17CC0E1F1F0C181F0F1C182F014
:10345800F2C183F0F3C184F0000E0001856F000E05
:10346800866F200E876F410E886FB2EC25F081C001
:10347800F0F182C0F1F183C0F2F184C0F3F10101EF
:10348800CC07D8A0CD07E64BE72BCE51E65DE75138
:10349800800A0001E06F0101CF51800A0001E05964
:1034A800D8B059EF1AF05BEF1AF06AEF1AF0010181
:1034B800EFBF68EF1AF0EF5109E14B0EEE5DD8A0AF
:1034C80068EF1AF06AEF1AF05AEF19F00101CA51C1
:1034D800CB11D8A472EF1AF074EF1AF085EF1AF036
:1034E80042A879EF1AF07BEF1AF085EF1AF01D0E5B
:1034F800EE25D96E020EEF21DA6E2E0EDF6EEE4B40
:10350800EF2B1D0EEE25D96E020EEF21DA6E000E9E
:10351800DF6E650EDC19D8A494EF1AF096EF1AF056
:10352800D9EF15F0000EE76F4F0EE66F1D0EE6257A
:10353800D96E020EE721DA6E000EDF6E000ED76F2D
:10354800000ED66FEDBFADEF1AF0ABEF1AF0B5EF86
:103558001AF0000ED76F010ED66FEC6DED1FD8B0C4
:10356800ED2B000ED96F020ED86FE6EF1AF0E607C2
:10357800D8A0E7071D0EE625D96E020EE721DA6E00
:10358800ECC115F0EDC116F0000E186E0A0E176E9C
:10359800DAEC38F01550300FDF6EECC115F0EDC1E4
:1035A80016F0000E186E0A0E176E17EC38F015C0DC
:1035B800ECF116C0EDF10101D807D8A0D907DA0758
:1035C800D8A0DB07EC51ED11D8A4EDEF1AF0EFEF1E
:1035D8001AF0BBEF1AF0D9BFFCEF1AF0D95106E187
:1035E800D805D8B0FAEF1AF0FCEF1AF0BBEF1AF0D2
:1035F800E607D8A0E707D651D711D8A406EF1BF0E5
:1036080008EF1BF00EEF1BF0000EC36F2B0EC26FFE
:1036180012EF1BF0000EC36F2D0EC26F1D0EE625B4
:10362800D96E020EE721DA6EC2C1DFFFDA07D8A031
:10363800DB07E607D8A0E707BF0E0001E06FFF0E23
:10364800E16FDF51E26FE36BE051E227E151E323E1
:10365800E3510AE11A0EE25DD8A035EF1BF038EF0E
:103668001BF0010E39EF1BF0000E0101C66FC76B8E
:10367800C651C711D8A443EF1BF045EF1BF04BEF21
:103688001BF0000EC56F650EC46F4FEF1BF0000EE8
:10369800C56F450EC46F1D0EE625D96E020EE721D3
:1036A800DA6EC4C1DFFFDA07D8A0DB071D0EEE25EE
:1036B800156E020EEF21166E1D0EE625176E020E10
:1036C800E721186EF4EC3BF0D9EF15F01200E7C0D3
:1036D800D9FFE8C0DAFFDECFF6FFDDCFF7FF08003D
:1036E800F550250AD8A47BEF1BF07DEF1BF0C1EF46
:1036F8001EF0E7C0D9FFE8C0DAFFDE2A000EDD229F
:10370800000E0101FD6F000EFC6FFCC142F0FDC10F
:1037180043F0FE69FF69000E0201F06F000EEF6FC3
:10372800DEEF1BF04280E7C0D9FFE8C0DAFFDE2AEF
:10373800000EDD22DEEF1BF0428297EF1BF0428481
:1037480097EF1BF0428697EF1BF0428897EF1BF02C
:10375800000E0201F06F010EEF6FDEEF1BF0E7C005
:10376800D9FFE8C0DAFFDECFF6FFDDCFF7FF0800AC
:10377800F5500001EB6FEC6BEC51000AD8B4C7EFC1
:103788001BF0ACEF1BF0EB51200AD8B4A6EF1BF0EE
:10379800030AD8B4A9EF1BF0080AD8B4A3EF1BF0AA
:1037A800060AD8B496EF1BF01D0AD8B4A0EF1BF098
:1037B800ACEF1BF00201EF51F011D8B4E6EF1BF0AB
:1037C800E8EF1BF0B3EF1BF042A0EDEF1BF0EFEFBB
:1037D8001BF0F0EF1BF04292E7C0D9FFE8C0DAFF18
:1037E800DECFF6FFDDCFF7FF0800F5502A0AD8A490
:1037F80000EF1CF002EF1CF02CEF1CF0E7C0D9FF23
:10380800E8C0DAFFDE2A000EDD22E9C0D9FFEAC0EF
:10381800DAFFDFCFEBF0020EDE26DFCFECF0000E92
:10382800DD22EBC0D9FFECC0DAFFDECFFCF1DDCF43
:10383800FDF10101FDBF25EF1CF023EF1CF071EF36
:103848001CF04280FC6DFD1FD8B0FD2B71EF1CF001
:10385800E7C0D9FFE8C0DAFFDECF1CF0DDCF1DF0EE
:1038680076EC2CF01CC0FCF11DC0FDF143EF1CF000
:10387800E7C0D9FFE8C0DAFFDE2A000EDD22D00E4D
:103888000001EB6FFF0EEC6FE7C0D9FFE8C0DAFF6D
:10389800DECFF6FFDDCFF7FF0800F550ED6FEE6BDA
:1038A800EB51ED27EC51EE23EE510AE10A0EED5DE6
:1038B800D8A061EF1CF064EF1CF0010E65EF1CF05E
:1038C800000E0201F16FF26BF151F211D8A46FEF03
:1038D8001CF071EF1CF03CEF1CF0E7C0D9FFE8C00A
:1038E800DAFFDECFF6FFDDCFF7FF0800F5502E0A2E
:1038F800D8A481EF1CF083EF1CF003EF1DF0000E3D
:103908000101FF6F000EFE6FE7C0D9FFE8C0DAFFC4
:10391800DE2A000EDD22E7C0D9FFE8C0DAFFDECFDD
:10392800F6FFDDCFF7FF0800F5502A0AD8A49FEF6D
:103938001CF0A1EF1CF0BEEF1CF0E7C0D9FFE8C0F7
:10394800DAFFDE2A000EDD22E9C0D9FFEAC0DAFF7D
:10395800DFCFEBF0020EDE26DFCFECF0000EDD222B
:10396800EBC0D9FFECC0DAFFDECFFEF1DDCFFFF10F
:1039780003EF1DF0E7C0D9FFE8C0DAFFDECF1CF087
:10398800DDCF1DF076EC2CF01CC0FEF11DC0FFF160
:10399800D5EF1CF0E7C0D9FFE8C0DAFFDE2A000E39
:1039A800DD22D00E0001EB6FFF0EEC6FE7C0D9FFF0
:1039B800E8C0DAFFDECFF6FFDDCFF7FF0800F550ED
:1039C800ED6FEE6BEB51ED27EC51EE23EE510AE172
:1039D8000A0EED5DD8A0F3EF1CF0F6EF1CF0010E17
:1039E800F7EF1CF0000E0201F36FF46BF351F411C2
:1039F800D8A401EF1DF003EF1DF0CEEF1CF0E7C0D7
:103A0800D9FFE8C0DAFFDECFF6FFDDCFF7FF080009
:103A1800F5501B6E1C6A95EC3BF01B500201FB6FC6
:103A2800FB51D8B41AEF1DF01CEF1DF058EF1DF034
:103A3800E7C0D9FFE8C0DAFFDECFEBF0DDCFECF06E
:103A4800010E0001EB27000EEC23EBC0F6FFECC0E3
:103A5800F7FF0800F5501B6E1C6A95EC3BF01B50F5
:103A68000201FC6FFC51D8B43CEF1DF03EEF1DF095
:103A780058EF1DF0E7C0D9FFE8C0DAFFDECFEBF062
:103A8800DDCFECF0020E0001EB27000EEC23EBC0BB
:103A9800F6FFECC0F7FF0800F5501B6E1C6A95ECAA
:103AA8003BF01B500201FD6F660EFB19D8A45FEFB7
:103AB8001DF061EF1DF0A1EF1DF0E7C0D9FFE8C0D0
:103AC800DAFFDECFF6FFDDCFF7FF0800F5CFFEF215
:103AD800E7C0D9FFE8C0DAFFDE2A000EDD22E9C020
:103AE800D9FFEAC0DAFFDFCFEBF0040EDE26DFCF26
:103AF800ECF0000EDD22EBC0D9FFECC0DAFFDECF20
:103B0800F7F2DECFF8F2DECFF9F2DECFFAF2E5C057
:103B1800D9F0E6C0DAF0F7C2DBF0F8C2DCF0F9C29F
:103B2800DDF0FAC2DEF0FEC2DFF025EC15F0D9C0F8
:103B3800E5F0DAC0E6F0DCEF1EF0FB0E156E020EC3
:103B4800166EED0E176E7F0E186E000E1A6E020EB0
:103B5800196EDFEC36F015501610D8A4B6EF1DF02C
:103B6800B8EF1DF035EF1EF0E7C0D9FFE8C0DAFF67
:103B7800DECFEBF0DDCFECF0010E0001EB27000EFD
:103B8800EC23EBC0F6FFECC0F7FF0800F5CFFEF220
:103B9800BF0EEB6FFF0EEC6FE7C0D9FFE8C0DAFF8E
:103BA800DECFF6FFDDCFF7FF0800F550ED6FEE6BC7
:103BB800EB51ED27EC51EE23EE510AE11A0EED5DC3
:103BC800D8A0E9EF1DF0ECEF1DF0010EEDEF1DF0B0
:103BD800000E0201F56FF66BF551F611D8B4F7EF48
:103BE8001DF0F9EF1DF013EF1EF0E9C0D9FFEAC090
:103BF800DAFFDFCFEBF0040EDE26DFCFECF0000EAD
:103C0800DD22EBC0D9FFECC0DAFFDECFF7F2DECF62
:103C1800F8F2DECFF9F2DECFFAF22BEF1EF0E9C0B0
:103C2800D9FFEAC0DAFFDFCFEBF0040EDE26DFCFE4
:103C3800ECF0000EDD22EBC0D9FFECC0DAFFDECFDE
:103C4800F7F2DECFF8F2DECFF9F2DECFFAF2020EAB
:103C5800E7C0D9FFE8C0DAFFDE26000EDD228BEFD1
:103C68001DF0E7C0D9FFE8C0DAFFDECFF6FFDDCFF1
:103C7800F7FF0800F550750AD8A445EF1EF047EF86
:103C88001EF089EF1EF0E7C0D9FFE8C0DAFFDE2A90
:103C9800000EDD22E9C0D9FFEAC0DAFFDFCFEBF082
:103CA800020EDE26DFCFECF0000EDD22EBC0D9FFDE
:103CB800ECC0DAFFDECFEDF0DDCFEEF0EDC0E7F2DD
:103CC800EEC0E8F20201E96BEA6BEB6BEC6BED6BB3
:103CD800EE6BE5C030F0E6C031F0E7C232F0E8C282
:103CE80033F0E9C234F0EAC235F0EBC236F0ECC288
:103CF80037F0EDC238F0EEC239F071EC2BF030C07D
:103D0800E5F031C0E6F0DCEF1EF0E7C0D9FFE8C00F
:103D1800DAFFDECFF6FFDDCFF7FF0800F550250A02
:103D2800D8A499EF1EF09BEF1EF0B3EF1EF0E7C08A
:103D3800D9FFE8C0DAFFDE2A000EDD22000E166E7B
:103D4800250E156EE5C017F0E6C018F0B2EC37F096
:103D5800000E0001E66F010EE56FDCEF1EF0E7C014
:103D6800D9FFE8C0DAFFDE2A000EDD22000E0001CE
:103D7800E66F000EE56FDCEF1EF0E7C0D9FFE8C084
:103D8800DAFFDECFF6FFDDCFF7FF0800F550156E3E
:103D9800166AE5C017F0E6C018F0B2EC37F0E7C0D5
:103DA800D9FFE8C0DAFFDE2A000EDD22ACEF1EF0F4
:103DB800120000017051800B756F70517025776F7C
:103DC8006FAFE9EF1EF0EBEF1EF0ECEF1EF077811E
:103DD8007751D8B4F2EF1EF0F4EF1EF009EF1FF0A0
:103DE8007729D8A4FAEF1EF0FCEF1EF004EF1FF0BD
:103DF800000E6D6F000E6E6F000E6F6F000E706F0D
:103E08006F8F000E706F11EF1FF0000E6D6F000EB8
:103E18006E6F000E6F6F000E706F7451800B766FAF
:103E280075517619D8B41BEF1FF01DEF1FF01EEF68
:103E38001FF0758D74517425766F73AF26EF1FF0E0
:103E480028EF1FF029EF1FF076817651D8B42FEFB5
:103E58001FF031EF1FF046EF1FF07629D8A437EF97
:103E68001FF039EF1FF041EF1FF0000E716F000EC9
:103E7800726F000E736F000E746F738F000E746F85
:103E88004EEF1FF0000E716F000E726F000E736F11
:103E9800000E746F7751765DD8B055EF1FF057EF6D
:103EA8001FF07EEF1FF075AD5CEF1FF05EEF1FF0A7
:103EB80060EF1FF0800E751B77C078F076C077F042
:103EC80078C076F06DC078F071C06DF078C071F090
:103ED8006EC078F072C06EF078C072F06FC078F083
:103EE80073C06FF078C073F070C078F074C070F071
:103EF80078C074F0000E786F775176C034F0356A68
:103F0800345E000E355A35BE93EF1FF0355009E187
:103F18001A0E345CD8A093EF1FF095EF1FF0CCEF8A
:103F28001FF06D516E116F117011D8A49EEF1FF024
:103F3800A1EF1FF0010EA2EF1FF0000E786F000E28
:103F48006D6F000E6E6F000E6F6F000E706F76C093
:103F580077F0D5EF1FF078A1B4EF1FF0B6EF1FF0A0
:103F6800BCEF1FF0D89078310109786FBEEF1FF0D1
:103F7800D89078336DA1C3EF1FF0C5EF1FF0C6EFDF
:103F88001FF0788F703570336F336E336D33772B46
:103F98007651775DD8A0D3EF1FF0D5EF1FF0AFEFC4
:103FA8001FF075BDDAEF1FF0DCEF1FF01CEF20F0FB
:103FB8007751D8A4E2EF1FF0E4EF1FF0EEEF1FF007
:103FC800000E6D6F000E6E6F000E6F6F000E706F3B
:103FD8003DEF21F071516D2772516E2373516F239C
:103FE8007451702370A1FBEF1FF0FDEF1FF0A9EFD4
:103FF80020F078A102EF20F004EF20F00AEF20F083
:10400800D89078310109786F0CEF20F0D890783388
:104018006DA111EF20F013EF20F014EF20F0788F4E
:10402800703570336F336E336D33772BA9EF20F013
:1040380071516D5D72516E5973516F597051800A8B
:10404800346E7451800A3458D8B02DEF20F02FEF19
:1040580020F05AEF20F06D51715D346E6E51725937
:10406800356E6F517359366E70517459376EFF0E35
:1040780034246D6FFF0E35206E6FFF0E36206F6F84
:10408800FF0E3720706F800E751B786D7851D8A49D
:1040980050EF20F052EF20F062EF20F0010E6D2774
:1040A800000E6E236F23702362EF20F071516D5F55
:1040B80072516E5B73516F5B7451705B6D516E1111
:1040C8006F117011D8A46BEF20F06DEF20F0A2EF04
:1040D80020F07851D8A473EF20F075EF20F0A2EF0C
:1040E80020F0000E6D6F000E6E6F000E6F6F000EE9
:1040F800706F3DEF21F0D8906D376E376F3770379E
:1041080078AF89EF20F08BEF20F08CEF20F06D81F5
:1041180078A191EF20F093EF20F097EF20F0D8806E
:10412800783799EF20F0D89078377751D8B49FEF47
:1041380020F0A1EF20F0A2EF20F077076FAFA7EFF4
:1041480020F0A9EF20F07FEF20F0000E766F78AF17
:10415800B0EF20F0B2EF20F0CAEF20F078C034F0D2
:104168007F0E3416D8B4BBEF20F0BDEF20F0C1EFBE
:1041780020F0010E766FCAEF20F06DA1C6EF20F097
:10418800C8EF20F0CAEF20F0BDEF20F07651D8B488
:10419800D0EF20F0D2EF20F0FDEF20F0010E6D27D8
:1041A800000E6E236F23702370A1DDEF20F0DFEF88
:1041B80020F0FDEF20F06DC034F06EC035F06FC018
:1041C80036F070C037F03734373236323532343261
:1041D80034C06DF035C06EF036C06FF037C070F087
:1041E8007729D8B4FAEF20F0FCEF20F0FDEF20F0AB
:1041F800772B7729D8B403EF21F005EF21F00DEFE5
:1042080021F07751D8A40BEF21F00DEF21F01FEF2B
:1042180021F0000E6D6F000E6E6F000E6F6F000EB6
:10422800706F7751D8A41BEF21F01DEF21F01FEF1D
:1042380021F0000E756F77A124EF21F026EF21F011
:1042480029EF21F06F8F2AEF21F06F9FD8907731F7
:10425800706F75AF32EF21F034EF21F035EF21F0B8
:10426800708F6DC06DF06EC06EF06FC06FF070C073
:1042780070F012008DC0A2F08EC0A3F08FC0A4F021
:1042880090C0A5F0A2C0BAF0A3C0BBF0A4C0BCF017
:10429800A5C0BDF0000E0001BA15916F000EBB1548
:1042A800926F800EBC15936F7F0EBD15946F800EB4
:1042B800931909E17F0E941991119211D8A467EF0F
:1042C80021F069EF21F097EF21F08DC02CF08EC01E
:1042D8002DF08FC02EF090C02FF08DC028F08EC02A
:1042E80029F08FC02AF090C02BF09CEC23F028C056
:1042F8006DF029C06EF02AC06FF02BC070F08DC031
:1043080071F08EC072F08FC073F090C074F0DDEC65
:104318001EF06DC08DF06EC08EF06FC08FF070C053
:1043280090F09BEF23F0BDBFA6EF21F0BD51BC116B
:10433800BB1106E1BA05D8B0A4EF21F0A6EF21F031
:10434800E2EF21F0FF0EBA15916FFF0EBB15926FC9
:10435800FF0EBC15936F7F0EBD15946F915192118E
:1043680093119411D8A4BBEF21F0BDEF21F0C7EF52
:1043780021F08DC08DF08EC08EF08FC08FF090C070
:1043880090F09BEF23F0BDBFCEEF21F0CCEF21F0F2
:10439800E2EF21F0000E3F6E210E3E6EA10E156E6B
:1043A8007F0E166E92EC3EF015C08DF016C08EF0A2
:1043B80017C08FF018C090F09BEF23F0170E916F85
:1043C800BAC092F0BBC093F0BCC094F0BDC095F0E9
:1043D8009167F1EF21F0F9EF21F09535953394339A
:1043E80093339233912FECEF21F092C0B2F093C047
:1043F800B3F094C0B4F095C0B5F00001B251B31158
:10440800B411B511D8A40BEF22F00DEF22F03DEF57
:1044180022F0000E9E6F000E9F6F000EA06F000E20
:10442800A16F22EF22F0D890BA37BB37BC37BD371F
:10443800010E9E27000E9F23A023A123BCAF27EFC8
:1044480022F029EF22F017EF22F0FF0E9E25916F40
:10445800FF0E9F21926FFF0EA021936FFF0EA121E7
:10446800946F9151B25F9251B35B9351B45B945185
:10447800B55B810EB227FF0EB323FF0EB423FF0EE8
:10448800B523FF0EBA15916FFF0EBB15926F7F0E05
:10449800BC15936F000EBD15946F000E9111BA6F85
:1044A800000E9211BB6F800E9311BC6F000E941119
:1044B800BD6FB2A162EF22F064EF22F06CEF22F040
:1044C800BA51BA27BB51BB23BC51BC23BD51BD2334
:1044D800B535B533B433B333B233BA51BA27BB5158
:1044E800BB23BC51BC23BD51BD23000E9A6F000EE7
:1044F8009B6F000E9C6F000E9D6F9AC0A6F09BC02C
:10450800A7F09CC0A8F09DC0A9F0000EB66F000EE1
:10451800B76F000EB86F010EB96FDBEF22F09A513A
:10452800B625AA6F9B51B721AB6F9C51B821AC6FD0
:104538009D51B921AD6FAA51BA5DAB51BB59AC5170
:10454800BC59BD51800A916FAD51800A9159D8A0CC
:10455800B0EF22F0B2EF22F0CEEF22F0AA51B6254A
:104568009A6FAB51B7219B6FAC51B8219C6FAD517D
:10457800B9219D6FAA51BA5FAB51BB5BAC51BC5B13
:10458800AD51BD5BB651A627B751A723B851A82393
:10459800B951A923BA51BA27BB51BB23BC51BC237B
:1045A800BD51BD23D890B933B833B733B633B651FC
:1045B800B711B811B911D8A4E4EF22F0E6EF22F050
:1045C80093EF22F0BA51BB11BC11BD11D8B4EFEF73
:1045D80022F0F1EF22F051EF23F0000EAE6F000E43
:1045E800AF6F800EB06F3F0EB16FAEC081F0AFC03D
:1045F80082F0B0C083F0B1C084F0000E856F000E69
:10460800866F800E876F3F0E886F80EC33F0000155
:10461800D8A011EF23F013EF23F051EF23F0000E91
:10462800AE6F000EAF6F800EB06F3F0EB16F000E11
:10463800816F000E826F800E836F3F0E846FAEC055
:1046480085F0AFC086F0B0C087F0B1C088F080ECCC
:1046580033F00001D8B033EF23F035EF23F03DEF0E
:1046680023F0020EA627000EA723A823A92351EFA3
:1046780023F0010EA615916F000EA715926F000E7C
:10468800A815936F000EA915946F9151A627925102
:10469800A7239351A8239451A923A6C091F0A7C09A
:1046A80092F0A8C093F0A9C094F094359433933352
:1046B80092339133000E9125BA6F000E9221BB6F91
:1046C800000E9321BC6F3F0E9421BD6FB2C091F0D4
:1046D800B3C092F0B4C093F0B5C094F0170ED89060
:1046E8009137923793379437E82E73EF23F091512F
:1046F800BA279251BB239351BC239451BD23BAC00E
:10470800A2F0BBC0A3F0BCC0A4F0BDC0A5F0A2C07D
:10471800AEF0A3C0AFF0A4C0B0F0A5C0B1F0AEC079
:104728008DF0AFC08EF0B0C08FF0B1C090F0120025
:104738002B50800B0001606F2B502B24666F2AAE24
:10474800A8EF23F0AAEF23F0ABEF23F066816651C0
:10475800D8B4B1EF23F0B3EF23F0C6EF23F0662906
:10476800D8A4B9EF23F0BBEF23F0C3EF23F0000E7A
:10477800286E000E296E000E2A6E000E2B6E2A8EF1
:10478800CEEF23F0000E286E000E296E000E2A6E62
:10479800000E2B6E2F50800B601B2F502F24616F43
:1047A8002EAED9EF23F0DBEF23F0DCEF23F06181AD
:1047B8006151D8B4E2EF23F0E4EF23F0F7EF23F0F0
:1047C8006129D8A4EAEF23F0ECEF23F0F4EF23F00B
:1047D800000E2C6E000E2D6E000E2E6E000E2F6E2B
:1047E8002E8EFFEF23F0000E2C6E000E2D6E000EA5
:1047F8002E6E000E2F6E6151D8B405EF24F007EF2E
:1048080024F00FEF24F06651D8A40DEF24F00FEF39
:1048180024F019EF24F0000E286E000E296E000E09
:104828002A6E000E2B6EB1EF25F02E502802F3CF22
:104838006BF0F4CF6CF06B51626F636B646B656BFC
:104848006C51676F686B696B6A6B2D502902F3CFE7
:104858006BF0F4CF6CF06B516227000E6323642376
:1048680065236C516727000E682369236A232C503F
:104878002A02F3CF6BF0F4CF6CF06B516227000E75
:104888006323642365236C516727000E682369231B
:104898006A2364C065F063C064F062C063F0626B51
:1048A8002C502902F3CF6BF0F4CF6CF06B516227D8
:1048B8006C516323000E6423000E65232D502802DB
:1048C800F3CF6BF0F4CF6CF06B5162276C5163231C
:1048D800000E6423000E652364C065F063C064F0B5
:1048E80062C063F0626B2C502802F3CF6BF0F4CFF8
:1048F8006CF06B5162276C516323000E6423000E29
:1049080065232E502902F3CF6BF0F4CF6CF06B5176
:1049180067276C516823000E6923000E6A232D5007
:104928002A02F3CF6BF0F4CF6CF06B5167276C5110
:104938006823000E6923000E6A232E502A02F3CF43
:104948006BF0F4CF6CF06B51306E6C51316E326A93
:10495800336A32C033F031C032F030C031F0306ADF
:1049680030506727315068233250692333506A2307
:1049780062C030F063C031F064C032F065C033F01B
:10498800190ECCEF24F0D890333232323132303233
:10499800E82EC7EF24F03050672731506823325093
:1049A800692333506A2364C065F063C064F062C051
:1049B80063F0626B615166C030F0316A3026000ED8
:1049C8003122820E30246B6FFF0E31206C6F02EFA4
:1049D80025F0D8906737683769376A3765AFF7EFDA
:1049E80024F0F9EF24F0FAEF24F06781D8906237C9
:1049F8006337643765376B07D8A06C0769AF07EF73
:104A080025F009EF25F0EDEF24F0000E616F65AF9A
:104A180010EF25F012EF25F036EF25F0FF0E6215A6
:104A2800306EFF0E6315316EFF0E6415326E7F0E09
:104A38006515336E3050311032103310D8B427EF6B
:104A480025F029EF25F02DEF25F0010E616F36EFE7
:104A580025F067A132EF25F034EF25F036EF25F089
:104A680029EF25F06151D8B43CEF25F03EEF25F051
:104A780062EF25F0010E6727000E682369236A2379
:104A88006AA149EF25F04BEF25F062EF25F067C0EA
:104A980030F068C031F069C032F06AC033F03334A6
:104AA800333232323132303230C067F031C068F0E0
:104AB80032C069F033C06AF06B4B6C2B6CBF6DEF82
:104AC80025F06C5108E16B29D8A06DEF25F06FEF48
:104AD80025F079EF25F0000E676F000E686F800EE5
:104AE800696F7F0E6A6FA7EF25F06CBF86EF25F020
:104AF8006C5106E16B05D8B084EF25F086EF25F000
:104B080092EF25F0000E676F000E686F000E696F58
:104B1800000E6A6F000E606FA7EF25F06BC066F09D
:104B2800FF0E6717FF0E68177F0E6917000E6A17CA
:104B380066A1A1EF25F0A3EF25F0A4EF25F0698F7A
:104B4800D89066316A6F60516A1367C028F068C0F0
:104B580029F069C02AF06AC02BF0120000018451C4
:104B6800800B916F84518425986F83AFBEEF25F039
:104B7800C0EF25F0C1EF25F098819851D8B4C7EF60
:104B880025F0C9EF25F0DEEF25F09829D8A4CFEF5E
:104B980025F0D1EF25F0D9EF25F0000E816F000E3A
:104BA800826F000E836F000E846F838F000E846FF8
:104BB800E6EF25F0000E816F000E826F000E836F06
:104BC800000E846F8851800B911B88518825996F3E
:104BD80087AFF1EF25F0F3EF25F0F4EF25F0998199
:104BE8009951D8B4FAEF25F0FCEF25F011EF26F033
:104BF8009929D8A402EF26F004EF26F00CEF26F04E
:104C0800000E856F000E866F000E876F000E886F8E
:104C1800878F000E886F19EF26F0000E856F000E43
:104C2800866F000E876F000E886F85518611871179
:104C38008811D8A422EF26F024EF26F03CEF26F0C6
:104C4800000E816F000E826F000E836F000E846F5E
:104C5800800E83137F0E84139151841381C081F0D9
:104C680082C082F083C083F084C084F07FEF27F095
:104C78009851D8A442EF26F044EF26F04EEF26F0E4
:104C8800000E816F000E826F000E836F000E846F1E
:104C98007FEF27F0995198C089F08A6B895F000EE1
:104CA8008A5B7F0E8925926F000E8A21936F81C0DF
:104CB8008DF082C08EF083C08FF084C090F0000E1B
:104CC800816F000E826F000E836F000E846F000EDE
:104CD800946F000E956F000E966F000E976F000E82
:104CE800996FAFEF26F09951D8B47DEF26F07FEF9A
:104CF80026F096EF26F0D8908D378E378F3790377D
:104D0800D890813782378337843797AF8EEF26F074
:104D180090EF26F091EF26F08181D890943795375F
:104D28009637973785518D5D86518E5987518F59A2
:104D380088519059D8A0A3EF26F0A5EF26F0AEEF42
:104D480026F0978D85518D5F86518E5B87518F5BDD
:104D58008851905B992B190E9965B5EF26F0B7EF3E
:104D680026F077EF26F08D518E118F119011D8B45F
:104D7800C0EF26F0C2EF26F0DAEF26F09481DAEFE2
:104D880026F0D890813782378337843797AFCFEFB3
:104D980026F0D1EF26F0D2EF26F08181D890943713
:104DA8009537963797379207D8A0930783AFDFEFE9
:104DB80026F0E1EF26F0C5EF26F0000E996F97AFC9
:104DC800E8EF26F0EAEF26F00EEF27F0FF0E941535
:104DD800896FFF0E95158A6FFF0E96158B6F7F0EE4
:104DE80097158C6F89518A118B118C11D8B4FFEFEC
:104DF80026F001EF27F005EF27F0010E996F0EEF6F
:104E080027F081A10AEF27F00CEF27F00EEF27F02B
:104E180001EF27F09951D8B414EF27F016EF27F0D7
:104E28003AEF27F0010E8127000E82238323842383
:104E380084A121EF27F023EF27F03AEF27F081C074
:104E480089F082C08AF083C08BF084C08CF08C35E6
:104E58008C338B338A33893389C081F08AC082F0DE
:104E68008BC083F08CC084F0924B932B93BF45EF9B
:104E780027F0935108E19229D8A045EF27F047EF92
:104E880027F052EF27F0000E936F9269000E816FA2
:104E9800000E826F000E836F000E846F93BF5FEF6A
:104EA80027F0935106E19205D8B05DEF27F05FEF48
:104EB80027F06DEF27F0000E936F000E926F000E33
:104EC800816F000E826F000E836F000E846F000EDC
:104ED800916F92C098F098A174EF27F076EF27F0C1
:104EE80079EF27F0838F7AEF27F0839FD890983156
:104EF800846F30EF26F01200D3508F0B6009D36E09
:104F08007FEC3EF0000E956E929492969298929A4B
:104F1800949094929494969096929694F00E936EA0
:104F2800F00E8A6E000E8C6E8B908B928B948D9007
:104F38008D928D94F7EC3EF0F4EC3EF0C3EC3EF02D
:104F4800F1EC3EF0250E236E800E226E7EEC3CF0D6
:104F5800EDEC3EF0AB0E156E020E166E000E186EDE
:104F6800000E176E000E1A6E050E196EF9EC2FF072
:104F780090EC3AF0E6EC3EF057EC3AF0DFEC3EF01D
:104F880070EC3DF0000E02011C6FDC51E525146F3A
:104F9800DD51E621156F000E1BEC3EF015C01AF02E
:104FA80016C01BF01C6A1D6A000E53EC2EF01AC0C6
:104FB80028F01BC029F01CC02AF01DC02BF0900E51
:104FC8002C6E3E0E2D6EFA0E2E6E3E0E2F6E9CEC43
:104FD80023F028C00CF229C00DF22AC00EF22BC013
:104FE8000FF2010E1BEC3EF015C01AF016C01BF0B4
:104FF8001C6A1D6A000E53EC2EF01AC028F01BC064
:1050080029F01CC02AF01DC02BF0900E2C6E3E0E0D
:105018002D6EFA0E2E6E3E0E2F6E9CEC23F028C0DD
:1050280008F229C009F22AC00AF22BC00BF2A30E1B
:105038000101F46F020EF56FD30EF66F7F0EF76F56
:105048000CC2F8F10DC2F9F10EC2FAF10FC2FBF170
:10505800ACEC3CF09B0E0101F46F020EF56FD30E21
:10506800F66F7F0EF76F08C2F8F109C2F9F10AC2AC
:10507800FAF10BC2FBF1ACEC3CF0930E0101F46FBA
:10508800020EF56FD80EF66F7F0EF76F12C2F8F1A9
:1050980013C2F9F1ACEC3CF08B0E0101F46F020E77
:1050A800F56FD80EF66F7F0EF76F10C2F8F111C2C8
:1050B800F9F1ACEC3CF0C80E0101F46F020EF56F8B
:1050C800D80EF66F7F0EF76F1BC2F8F1F96BACECD8
:1050D8003CF0C40E0101F46F020EF56FD80EF66FA6
:1050E8007F0EF76F1AC2F8F1F96BACEC3CF0C00E0A
:1050F8000101F46F020EF56FD80EF66F7F0EF76F91
:1051080019C2F8F1F96BACEC3CF0BC0E0101F46F7C
:10511800020EF56FD80EF66F7F0EF76FE5C2F8F145
:10512800E6C2F9F1ACEC3CF0B40E0101F46F020EEA
:10513800F56FD80EF66F7F0EF76FDCC2F8F1DDC29F
:10514800F9F1ACEC3CF0B80E0101F46F020EF56F0A
:10515800D80EF66F7F0EF76F14C2F8F115C2F9F189
:10516800ACEC3CF0B00E0101F46F020EF56FF90ED5
:10517800F66F7F0EF76F18C2F8F1F96BACEC3CF0E4
:10518800D6EF28F001EC35F0F5EF28F074EC32F0AA
:10519800F5EF28F0DFEC31F0F5EF28F04AEC31F0CC
:1051A800F5EF28F002011C510001F76FF86BF85178
:1051B800000AD8B4E2EF28F0F5EF28F0F751000A1A
:1051C800D8B4C6EF28F0010AD8B4CAEF28F0030A09
:1051D800D8B4CEEF28F0010AD8B4D2EF28F0F5EF12
:1051E80028F02DEC2FF002011705D8A4FEEF28F0C7
:1051F80000EF29F0C9EF27F01EEF29F0DE0E1C6E34
:10520800020E1D6E76EC2CF01CC0E5F21DC0E6F215
:10521800000E456E000E446E34EF29F0DE0E1C6E53
:10522800020E1D6E76EC2CF01CC0DCF21DC0DDF207
:105238000CEF29F016510001F76FF86BF851000ACE
:10524800D8B429EF29F034EF29F0F751000AD8B47F
:1052580002EF29F0010AD8B412EF29F034EF29F04F
:10526800DE0E156E020E166E000E186E000E176E0C
:10527800000E1A6E070E196EF9EC2FF070EC3DF067
:10528800000E0201176FC9EF27F007EF00F034C0D6
:1052980075F035C076F036C077F037C078F039BE93
:1052A8005FEF29F0395009E1800E385CD8A05FEF34
:1052B80029F061EF29F0BFEF29F075C028F076C01A
:1052C80029F077C02AF078C02BF0000E2C6E000E63
:1052D8002D6E000E2E6E7F0E2F6E9CEC23F028C0D4
:1052E80075F029C076F02AC077F02BC078F0810ECF
:1052F8003826FF0E392239BE8BEF29F0395009E1E3
:10530800800E385CD8A08BEF29F08DEF29F029EFBB
:105318002AF075C028F076C029F077C02AF078C046
:105328002BF0000E2C6E000E2D6E000E2E6E7F0ED2
:105338002F6E9CEC23F028C075F029C076F02AC0A7
:1053480077F02BC078F0810E3826FF0E392239BE4F
:10535800B7EF29F0395009E1800E385CD8A0B7EFD3
:1053680029F0B9EF29F029EF2AF0000E396E7F0EE7
:10537800386E29EF2AF039AECBEF29F0820E385C6F
:10538800FF0E3958D8B0CBEF29F0CDEF29F029EF2F
:105398002AF075C028F076C029F077C02AF078C0C6
:1053A8002BF0000E2C6E000E2D6E800E2E6E0C0E45
:1053B8002F6E9CEC23F028C075F029C076F02AC027
:1053C80077F02BC078F0660E3826000E392239AEF9
:1053D800F7EF29F0820E385CFF0E3958D8B0F7EF96
:1053E80029F0F9EF29F029EF2AF075C028F076C0E6
:1053F80029F077C02AF078C02BF0000E2C6E000E32
:105408002D6E800E2E6E0C0E2F6E9CEC23F028C095
:1054180075F029C076F02AC077F02BC078F0660EB8
:105428003826000E392239AE23EF2AF0820E385C76
:10543800FF0E3958D8B023EF2AF025EF2AF029EFCC
:105448002AF0FF0E396E820E386E7F0E3824000166
:105458006D6F000E39206E6F6F6B706B170ED890E2
:105468006D376E376F377037E82E33EF2AF06DC01F
:1054780071F06EC072F06FC073F070C074F071C0DC
:1054880028F072C029F073C02AF074C02BF075C0E0
:105498002CF076C02DF077C02EF078C02FF09CEC61
:1054A80023F028C034F029C035F02AC036F02BC0CC
:1054B80037F034C034F035C035F036C036F037C078
:1054C80037F0120004C2AAF005C2ABF006C2ACF075
:1054D80007C2ADF09AC0AAF09BC0ABF09CC0ACF07C
:1054E8009DC0ADF0810E00019E6FFF0E9F6FAAC098
:1054F800A0F0ABC0A1F0ACC0A2F0ADC0A3F0180EF4
:105508008BEF2AF0D890A333A233A133A033E82E2F
:1055180086EF2AF0A0519E25A86F000E9F21A96F43
:10552800A9BFA0EF2AF0A95109E1170EA85DD8A0DC
:10553800A0EF2AF0A2EF2AF0ACEF2AF09AC09AF076
:105548009BC09BF09CC09CF09DC09DF070EF2BF021
:10555800A9BFB1EF2AF0B3EF2AF024EF2BF0A8C0CF
:105568009EF0FF0E9F6FFF0EA06F7F0EA16F000EC3
:10557800A26F9E67C2EF2AF0CAEF2AF0A235A233C3
:10558800A133A0339F339E2FBDEF2AF09FC0A4F014
:10559800A0C0A5F0A1C0A6F0A2C0A7F00001A45128
:1055A800AA159E6FA551AB159F6FA651AC15A06F9C
:1055B800A751AD15A16F9E519F11A011A111D8A49B
:1055C800E8EF2AF0EAEF2AF0ECEF2AF0A2EF2AF04F
:1055D800AAC09EF0ABC09FF0ACC0A0F0ADC0A1F0D7
:1055E800200EFCEF2AF0D890A133A0339F339E33CE
:1055F800E82EF7EF2AF09E519F11A011A111D8B4FF
:1056080008EF2BF00AEF2BF012EF2BF0A451AA278A
:10561800A551AB23A651AC23A751AD23A41D9E6F62
:10562800A51D9F6FA61DA06FA71DA16F9E51AA174C
:105638009F51AB17A051AC17A151AD1768EF2BF0D4
:10564800AAC09EF0ABC09FF0ACC0A0F0ADC0A1F066
:10565800200E34EF2BF0D890A133A0339F339E3324
:10566800E82E2FEF2BF09E519F11A011A111D8A465
:1056780040EF2BF042EF2BF04CEF2BF0000EAA6F0F
:10568800000EAB6F000EAC6F000EAD6F68EF2BF025
:10569800D890AA359E6FAB359F6FAC35A06FAD35EE
:1056A800A16F9E519F11A011A111D8B45EEF2BF0EC
:1056B80060EF2BF068EF2BF0000EAA6F000EAB6FB7
:1056C800800EAC6FBF0EAD6FAAC09AF0ABC09BF056
:1056D800ACC09CF0ADC09DF012000101FFBF77EF98
:1056E8002BF079EF2BF07AEF2BF04292FFBF87EF88
:1056F8002BF0FF5106E1FE05D8B085EF2BF087EFC0
:105708002BF08EEF2BF0000E0001696F010E686F11
:1057180092EF2BF0FEC168F0FFC169F0FCC16AF09E
:10572800FDC16BF032C06CF033C06DF034C06EF068
:1057380035C06FF036C070F037C071F038C072F005
:1057480039C073F0000E0001756F4F0E746F000EB4
:1057580002016C6F27EF2CF07407D8A075071D0E97
:105768007425D96E020E7521DA6E6CC015F06DC005
:1057780016F06EC017F06FC018F070C019F071C045
:105788001AF072C01BF073C01CF00A0E1D6E000EDA
:105798001E6E000E1F6E000E206E000E216E000E93
:1057A800226E000E236E000E246E4AEC37F015C0F0
:1057B80060F016C061F017C062F018C063F019C03D
:1057C80064F01AC065F01BC066F01CC067F00001E9
:1057D8006051300FDF6E6807D8A069076A07D8A044
:1057E8006B076CC015F06DC016F06EC017F06FC077
:1057F80018F070C019F071C01AF072C01BF073C0B5
:105808001CF00A0E1D6E000E1E6E000E1F6E000E9E
:10581800206E000E216E000E226E000E236E000E0A
:10582800246E7DEC35F015C06CF016C06DF017C015
:105838006EF018C06FF019C070F01AC071F01BC07C
:1058480072F01CC073F0000174517511D8B42FEFB9
:105858002CF031EF2CF061EF2CF06C516D116E11C2
:105868006F117011711172117311D8A43EEF2CF0E1
:1058780040EF2CF0B0EF2BF069BF4DEF2CF06951E1
:1058880006E16805D8B04BEF2CF04DEF2CF0B0EFE7
:105898002BF06BBF58EF2CF06B5108E16A05D8A0CC
:1058A80058EF2CF05AEF2CF061EF2CF042B25FEF7A
:1058B8002CF061EF2CF0B0EF2BF030C025F031C0A8
:1058C80026F01D0E7425276E020E7521286E6AC0FB
:1058D80029F06BC02AF079EC38F025C030F026C0EA
:1058E80031F01200000E2A6E000E296E000E236E93
:1058F800000E226E82EF2CF01C4A1D2A010E286E23
:105908001CC0F6FF1DC0F7FFF86A070EF76403D046
:105918000800F55005D0F6CFE1FFF7CFE2FFE750DA
:10592800200AD8B49AEF2CF09CEF2CF0C3EF2CF09F
:10593800F70E1E6EFF0E1F6E1CC0F6FF1DC0F7FF90
:10594800F86A070EF76403D00800F55005D0F6CFC3
:10595800E1FFF7CFE2FFE750206E216A1E502026B4
:105968001F502122215009E1050E205CD8A0BFEF6D
:105978002CF0C1EF2CF0C3EF2CF0000E286E28C0DD
:1059880024F0256A24502510D8A4CDEF2CF0CFEFB1
:105998002CF080EF2CF0D9EF2CF0000E236E010EC6
:1059A800226E1C4A1D2A24EF2DF01CC0F6FF1DC0D4
:1059B800F7FFF86A070EF76403D00800F55005D022
:1059C800F6CFE1FFF7CFE2FFE7501E6E1F6A1F50C8
:1059D800000AD8B4F2EF2CF024EF2DF01E502B0A59
:1059E800D8B4D5EF2CF0060AD8B4D1EF2CF024EFB8
:1059F8002DF029C015F02AC016F0000E186E0A0EF8
:105A0800176E6CEC3EF01CC0F6FF1DC0F7FFF86A7D
:105A1800070EF76403D00800F55005D0F6CFE1FF74
:105A2800F7CFE2FFE7501E6E1E50155E000E165AA5
:105A3800300E1524296E000E16202A6ED5EF2CF094
:105A4800D00E1E6EFF0E1F6E1CC0F6FF1DC0F7FFA6
:105A5800F86A070EF76403D00800F55005D0F6CFB2
:105A6800E1FFF7CFE2FFE750206E216A1E502026A3
:105A78001F50212221500AE10A0E205CD8A047EFCE
:105A88002DF04AEF2DF0010E4BEF2DF0000E266E93
:105A9800276A26502710D8A454EF2DF056EF2DF082
:105AA800FDEF2CF022502310D8A45DEF2DF05FEF0E
:105AB8002DF06DEF2DF029C01EF02AC01FF01E1E1C
:105AC8001F1E1E4A1F2A1EC01CF01FC01DF071EFAA
