:100000000C945A000C9477000C9477000C947700B1
:100010000C9477000C9477000C9477000C94770084
:100020000C9477000C9477000C9477000C94770074
:100030000C9477000C9477000C9477000C94770064
:100040000C9477000C9477000C9477000C94770054
:100050000C9477000C9477000C9477000C94770044
:100060000C9477000C9477000C9477000C94770034
:100070000C9477000C9477000C9477000C94770024
:100080000C9477000C9477000C9477000C94770014
:100090000C9477000C9477000C9477000C94770004
:1000A0000C9477000C9477000C9477000C947700F4
:1000B0000C94770011241FBECFEFD8E0DEBFCDBF78
:1000C00011E0A0E0B1E0E0EDF4E002C005900D9297
:1000D000AE34B107D9F721E0AEE4B1E001C01D9222
:1000E000A635B207E1F70E94DF010C9466020C947A
:1000F000000080FF0BC05C9A81FF0AC05D9A82FFFE
:1001000009C05E9A83FD08C05F9808955C98F4CF9B
:100110005D98F5CF5E98F6CF5F9A08955A980E9441
:1001200079005B9A8FE79EE30197F1F700C000002A
:100130005B9808958AB1806F8AB98AB18C608AB958
:1001400080E00E9479002FEF89EF90E021508040FD
:100150009040E1F700C0000083E00E948E008FE134
:100160009EE40197F1F700C0000083E00E948E003A
:100170008FED9BEA0197F1F700C0000083E00E9439
:100180008E0082E00E948E0082E00E948E0088E055
:100190000E948E0080E00E948E008CE00E948E0003
:1001A00080E00E948E0086E00E948E00089580E02C
:1001B0000E948E0081E00E948E000895CF938130CE
:1001C00021F0823071F0CF910895CFE7C60F8C2FC8
:1001D00082958F700E948E008C2F8F700E948E00EF
:1001E000F2CFCFEBC60F8C2F82958F700E948E00BE
:1001F0008C2F8F700E948E00E6CFCF93C82F5A9A13
:1002000082958F700E9479005B9A85ED8A95F1F74F
:1002100000005B988C2F8F700E9479005B9A85EDAF
:100220008A95F1F700005B98CF910895CF93DF9303
:10023000EC018881882331F021960E94FD0089918C
:100240008111FBCFDF91CF91089584B18F6084B984
:1002500087B1807F87B985B18F6085B9089595B1E1
:100260009F6095B9813041F028F0823039F08330B9
:1002700039F0089528980895299808952A9808959E
:100280002B98089530990AC083EC99E00197F1F713
:1002900000C00000309BFECF80E0089531990AC075
:1002A00083EC99E00197F1F700C00000319BFECF8D
:1002B00081E0089532990AC083EC99E00197F1F743
:1002C00000C00000329BFECF82E0089533990AC03F
:1002D00083EC99E00197F1F700C00000339BFECF5B
:1002E00083E0089584E00895CF9380E00E942F0179
:1002F0000E944201C0E0843088F4C0910101813045
:1003000069F0C0910001813048F0C0910201823053
:1003100029F0C0910301833009F0C0E081E00E9420
:100320002F010E944201843038F4813039F118F1F4
:10033000823039F1833041F182E00E942F010E9426
:100340004201843038F4813029F108F1823029F1FA
:10035000833031F183E00E942F010E9442018430FA
:1003600038F4813019F1F8F0823019F1833021F13D
:100370008C2FCF910895C0910401DECFC09105016B
:10038000DBCFC0910601D8CFC0910701D5CFC09176
:100390000801E0CFC0910901DDCFC0910A01DACF99
:1003A000C0910B01D7CFC0910C01E2CFC0910D01DC
:1003B000DFCFC0910E01DCCFC0910F01D9CF0E94D9
:1003C0009A000E94D7000E94250161E081E00E940E
:1003D000DE0086E191E00E94160113E0D2E0C1E068
:1003E00051C00E94740180935001882309F44AC0CF
:1003F000609115018D2F0E94DE00809150010E94B6
:10040000FD0080914F01E82FF0E0EF5AFE4F9091F0
:10041000500190838F5F80934F01809115018F5F12
:1004200080931501853070F12FEF83ED90E321501B
:1004300080409040E1F700C0000010921501C09389
:100440004E010E94D7001EC061E571E080E191E09D
:100450000E945D02892B19F4D0934E0113C01093B2
:100460004E0110C06C2F8C2F0E94DE0084E291E0C0
:100470000E9416016C2F8D2F0E94DE008FE291E00A
:100480000E94160180914E018130F1F208F4A9CF4B
:10049000823041F38330C1F76C2F8C2F0E94DE0035
:1004A00088E391E00E9416016C2F8D2F0E94DE00E0
:1004B00083E491E00E941601E5CFFB01DC018D9100
:1004C000019080190110D9F3990B0895F894FFCF8A
:1004D0003132334134353642373839432A302344B8
:1004E0002A3530230001496E677265736520436CBD
:1004F00061766500496E677265736F206F6B004DA2
:100500006F746F72204F4E004E6F20496E67726598
:0E051000736F004D6F746F72204F46460000EF
:00000001FF
