:020000040000FA
:060000000A128A11EE2F26
:100EF6007E088A007F0882000A128A117B270A125E
:100F06008A118000840A04087D0603190034FF0A4A
:100F16000319FE0A7F2FC0340034F9340034A43498
:100F26000034B034003499340034923400348334BD
:100F36000034F8340034803400341834003420305F
:100F460084003630F4000408F5001430F600740806
:100F5600840083130008F700F40A750884007708F4
:100F66008000F50AF60BAA2F831603138701831256
:100F76000313B401B501831203133408F400740794
:100F8600203E84008313000887000230F6004530B7
:100F9600F500A930F400F40BCE2FF50BCE2FF60B8F
:100FA600CE2FD52F013083120313B4070318B50AC9
:100FB6000030B5073508803AFF0080307F02031DF8
:100FC600E62F0A303402031CE92FEA2FBE2FBA2F70
:100FD6000A128A11002883134A30FD000730FE00EA
:100FE6008E30FF00363084000A128A117F270A12DB
:0A0FF6008A1183010A128A11A22F4A
:04400E00F43FFF3F3D
:00000001FF
