:04000000CFEF3EF010
:107D9400C0F9A4B0999282F88090940EF66E7D0E8C
:107DA400F76E000EF86E00EE0FF010EE0AF0090008
:107DB400F5CFEEFFE550E150FAE10001E2EF3EF0CD
:107DC400000E0E6E0F0EC16E720ED36E000E956E07
:107DD400FC0E9616030E8D120E5001EC3FF00E2A87
:107DE4000F0E0E18D8A4F9EF3EF0FBEF3EF0EEEFC5
:107DF4003EF0000E0E6EEEEF3EF000EF00F00C6E63
:107E04000CC001F0026A000E046E0A0E036E46EC0A
:107E14003FF001500A6E0CC001F0026A000E046EBD
:107E24000A0E036E9EEC3FF001500B6E000E0D6EB9
:107E34000F0E0A24D96EDA6A000EDA22DF508C6E35
:107E44008D92030E096E980EE82EFED7092EFCD7EC
:107E54008D820F0E0B24D96EDA6A000EDA22DF50FF
:107E64008C6E8D90030E096E980EE82EFED7092EA7
:107E7400FCD78D800D2AC70E0D6443EF3FF045EF0C
:107E84003FF01AEF3FF01200000E066E02BE4FEFF5
:107E94003FF04DEF3FF055EF3FF0016C021ED8B0BC
:107EA400022A010E066E04BE5CEF3FF05AEF3FF06B
:107EB40060EF3FF0036C041ED8B0042A0350041092
:107EC400D8B467EF3FF069EF3FF08DEF3FF0010E5C
:107ED400056E71EF3FF0D89003360436052A04AEE0
:107EE40076EF3FF078EF3FF06DEF3FF00350015C29
:107EF40004500258D8A081EF3FF083EF3FF087EFA2
:107F04003FF00350015E0450025AD8900432033209
:107F1400052E78EF3FF00650D8B493EF3FF095EF7D
:107F24003FF099EF3FF0016C021ED8B0022A01C065
:107F340001F002C002F01200000E066E04BEA7EFAC
:107F44003FF0A5EF3FF0ADEF3FF0036C041ED8B057
:107F5400042A010E066E02BEB4EF3FF0B2EF3FF00A
:107F6400BAEF3FF0016C021ED8B0022A010E061AC5
:107F7400000E086E000E076E03500410D8B4C5EF4F
:107F84003FF0C7EF3FF0EFEF3FF0010E056ECFEF8C
:107F94003FF0D89003360436052A04AED4EF3FF000
:107FA400D6EF3FF0CBEF3FF0D890073608360350BA
:107FB400015C04500258D8A0E2EF3FF0E4EF3FF038
:107FC400E9EF3FF00350015E0450025A0780D89055
:107FD40004320332052ED6EF3FF00650D8B4F5EF45
:107FE4003FF0F7EF3FF0FBEF3FF0076C081ED8B00F
:0C7FF400082A07C001F008C002F01200CB
:020000040020DA
:08000000FFFFFFFFFFFFFFFF00
:020000040030CA
:0E00000000081F1EFF0181FF0FC00FE00F4020
:00000001FF
