:0400000048EF0CF0C9
:0D08000000486F6C61204D756E646F000044
:10080E004450800B4D6E445044244F6E43AE12EF55
:10081E0004F014EF04F015EF04F04F804F50D8B4ED
:10082E001BEF04F01DEF04F032EF04F04F28D8A4B4
:10083E0023EF04F025EF04F02DEF04F0000E416ECF
:10084E00000E426E000E436E000E446E438E000E7E
:10085E00446E3AEF04F0000E416E000E426E000E32
:10086E00436E000E446E4850800B4E6E4D504E1827
:10087E00D8B444EF04F046EF04F047EF04F04D8C8B
:10088E00485048244E6E47AE4FEF04F051EF04F03F
:10089E0052EF04F04E804E50D8B458EF04F05AEF99
:1008AE0004F06FEF04F04E28D8A460EF04F062EF6E
:1008BE0004F06AEF04F0000E456E000E466E000E58
:1008CE00476E000E486E478E000E486E77EF04F0AE
:1008DE00000E456E000E466E000E476E000E486E00
:1008EE004F504E5CD8B07EEF04F080EF04F0A7EFCF
:1008FE0004F04DAC85EF04F087EF04F089EF04F0BF
:10090E00800E4D1A4FC050F04EC04FF050C04EF0FA
:10091E0041C050F045C041F050C045F042C050F0CB
:10092E0046C042F050C046F043C050F047C043F0BE
:10093E0050C047F044C050F048C044F050C048F09A
:10094E00000E506E4F504EC049F04A6A495E000E7E
:10095E004A5A4ABEBCEF04F04A5009E11A0E495CED
:10096E00D8A0BCEF04F0BEEF04F0F5EF04F0415058
:10097E00421043104410D8A4C7EF04F0CAEF04F09D
:10098E00010ECBEF04F0000E506E000E416E000E05
:10099E00426E000E436E000E446E4EC04FF0FEEFE0
:1009AE0004F050A0DDEF04F0DFEF04F0E5EF04F00B
:1009BE00D89050300109506EE7EF04F0D8905032C5
:1009CE0041A0ECEF04F0EEEF04F0EFEF04F0508EE8
:1009DE00443444324332423241324F2A4E504F5CFD
:1009EE00D8A0FCEF04F0FEEF04F0D8EF04F04DBCFD
:1009FE0003EF05F005EF05F045EF05F04F50D8A4D5
:100A0E000BEF05F00DEF05F017EF05F0000E416E40
:100A1E00000E426E000E436E000E446E66EF06F040
:100A2E0045504126465042224750432248504422C8
:100A3E0044A024EF05F026EF05F0D2EF05F050A00C
:100A4E002BEF05F02DEF05F033EF05F0D890503079
:100A5E000109506E35EF05F0D890503241A03AEFB3
:100A6E0005F03CEF05F03DEF05F0508E4434443276
:100A7E004332423241324F2AD2EF05F04550415CAB
:100A8E0046504258475043584450800A496E485089
:100A9E00800A4958D8B056EF05F058EF05F083EFAD
:100AAE0005F04150455C496E425046584A6E4350DF
:100ABE0047584B6E445048584C6EFF0E4924416EB9
:100ACE00FF0E4A20426EFF0E4B20436EFF0E4C204F
:100ADE00446E800E4D1A506C5050D8A479EF05F02C
:100AEE007BEF05F08BEF05F0010E4126000E422242
:100AFE00432244228BEF05F04550415E4650425A48
:100B0E004750435A4850445A4150421043104410E3
:100B1E00D8A494EF05F096EF05F0CBEF05F050500A
:100B2E00D8A49CEF05F09EEF05F0CBEF05F0000E7C
:100B3E00416E000E426E000E436E000E446E66EF66
:100B4E0006F0D890413642364336443650AEB2EFB8
:100B5E0005F0B4EF05F0B5EF05F0418050A0BAEF07
:100B6E0005F0BCEF05F0C0EF05F0D8805036C2EFAF
:100B7E0005F0D89050364F50D8B4C8EF05F0CAEFF4
:100B8E0005F0CBEF05F04F0643AED0EF05F0D2EFF8
:100B9E0005F0A8EF05F0000E4E6E50AED9EF05F041
:100BAE00DBEF05F0F3EF05F050C049F07F0E49166C
:100BBE00D8B4E4EF05F0E6EF05F0EAEF05F0010E2C
:100BCE004E6EF3EF05F041A0EFEF05F0F1EF05F0FB
:100BDE00F3EF05F0E6EF05F04E50D8B4F9EF05F05F
:100BEE00FBEF05F026EF06F0010E4126000E422225
:100BFE004322442244A006EF06F008EF06F026EF4B
:100C0E0006F041C049F042C04AF043C04BF044C028
:100C1E004CF04C344C324B324A32493249C041F0DE
:100C2E004AC042F04BC043F04CC044F04F28D8B4F9
:100C3E0023EF06F025EF06F026EF06F04F2A4F2899
:100C4E00D8B42CEF06F02EEF06F036EF06F04F502C
:100C5E00D8A434EF06F036EF06F048EF06F0000E9B
:100C6E00416E000E426E000E436E000E446E4F50EB
:100C7E00D8A444EF06F046EF06F048EF06F0000E5B
:100C8E004D6E4FA04DEF06F04FEF06F052EF06F00F
:100C9E00438E53EF06F0439ED8904F30446E4DAEC8
:100CAE005BEF06F05DEF06F05EEF06F0448E41C09E
:100CBE0041F042C042F043C043F044C044F0120041
:100CCE001250800B1B6E12501224216E11AE72EF59
:100CDE0006F074EF06F075EF06F021802150D8B4BF
:100CEE007BEF06F07DEF06F090EF06F02128D8A4FA
:100CFE0083EF06F085EF06F08DEF06F0000E0F6E17
:100D0E00000E106E000E116E000E126E118E98EF08
:100D1E0006F0000E0F6E000E106E000E116E000E1D
:100D2E00126E1650800B1B1A16501624206E15AE1E
:100D3E00A3EF06F0A5EF06F0A6EF06F020802050F8
:100D4E00D8B4ACEF06F0AEEF06F0C1EF06F02028F7
:100D5E00D8A4B4EF06F0B6EF06F0BEEF06F0000E24
:100D6E00136E000E146E000E156E000E166E158E9E
:100D7E00C9EF06F0000E136E000E146E000E156E07
:100D8E00000E166E2050D8B4CFEF06F0D1EF06F05D
:100D9E00D9EF06F02150D8A4D7EF06F0D9EF06F020
:100DAE00E3EF06F0000E0F6E000E106E000E116EC9
:100DBE00000E126E7BEF08F015500F02F3CF26F0E7
:100DCE00F4CF27F026501C6E1D6A1E6A1F6A27502C
:100DDE00226E236A246A256A14501002F3CF26F07D
:100DEE00F4CF27F026501C26000E1D221E221F2295
:100DFE0027502226000E23222422252213501102D0
:100E0E00F3CF26F0F4CF27F026501C26000E1D221D
:100E1E001E221F2227502226000E232224222522A4
:100E2E001EC01FF01DC01EF01CC01DF01C6A13500A
:100E3E001002F3CF26F0F4CF27F026501C262750B1
:100E4E001D22000E1E22000E1F2214500F02F3CF81
:100E5E0026F0F4CF27F026501C2627501D22000E18
:100E6E001E22000E1F221EC01FF01DC01EF01CC031
:100E7E001DF01C6A13500F02F3CF26F0F4CF27F0AB
:100E8E0026501C2627501D22000E1E22000E1F2249
:100E9E0015501002F3CF26F0F4CF27F0265022265D
:100EAE0027502322000E2422000E25221450110258
:100EBE00F3CF26F0F4CF27F02650222627502322F8
:100ECE00000E2422000E252215501102F3CF26F01B
:100EDE00F4CF27F02650176E2750186E196A1A6A2B
:100EEE0019C01AF018C019F017C018F0176A175069
:100EFE00222618502322195024221A5025221CC0B3
:100F0E0017F01DC018F01EC019F01FC01AF0190EF0
:100F1E0096EF07F0D8901A32193218321732E82E9F
:100F2E0091EF07F017502226185023221950242231
:100F3E001A5025221EC01FF01DC01EF01CC01DF031
:100F4E001C6A205021C017F0186A1726000E1822AE
:100F5E00820E1724266EFF0E1820276ECCEF07F098
:100F6E00D89022362336243625361FAEC1EF07F031
:100F7E00C3EF07F0C4EF07F02280D8901C361D3661
:100F8E001E361F362606D8A0270624AED1EF07F050
:100F9E00D3EF07F0B7EF07F0000E206E1FAEDAEFBB
:100FAE0007F0DCEF07F000EF08F0FF0E1C14176ED1
:100FBE00FF0E1D14186EFF0E1E14196E7F0E1F14D9
:100FCE001A6E1750181019101A10D8B4F1EF07F046
:100FDE00F3EF07F0F7EF07F0010E206E00EF08F0C9
:100FEE0022A0FCEF07F0FEEF07F000EF08F0F3EFA2
:100FFE0007F02050D8B406EF08F008EF08F02CEFF9
:10100E0008F0010E2226000E23222422252225A0DE
:10101E0013EF08F015EF08F02CEF08F022C017F0D0
:10102E0023C018F024C019F025C01AF01A341A3251
:10103E0019321832173217C022F018C023F019C017
:10104E0024F01AC025F0264A272A27BE37EF08F0CB
:10105E00275008E12628D8A037EF08F039EF08F01E
:10106E0043EF08F0000E226E000E236E800E246EEB
:10107E007F0E256E71EF08F027BE50EF08F0275057
:10108E0006E12604D8B04EEF08F050EF08F05CEF02
:10109E0008F0000E226E000E236E000E246E000E5F
:1010AE00256E000E1B6E71EF08F026C021F0FF0EAC
:1010BE002216FF0E23167F0E2416000E251621A0D3
:1010CE006BEF08F06DEF08F06EEF08F0248ED890FD
:1010DE002130256E1B50251222C00FF023C010F0B8
:1010EE0024C011F025C012F012002B50800B386E68
:1010FE002B502B243F6E2AAE87EF08F089EF08F0B5
:10110E008AEF08F03F803F50D8B490EF08F092EF8E
:10111E0008F0A7EF08F03F28D8A498EF08F09AEF50
:10112E0008F0A2EF08F0000E286E000E296E000ED9
:10113E002A6E000E2B6E2A8E000E2B6EAFEF08F06D
:10114E00000E286E000E296E000E2A6E000E2B6EFB
:10115E002F50800B381A2F502F24406E2EAEBAEF20
:10116E0008F0BCEF08F0BDEF08F040804050D8B456
:10117E00C3EF08F0C5EF08F0DAEF08F04028D8A466
:10118E00CBEF08F0CDEF08F0D5EF08F0000E2C6E87
:10119E00000E2D6E000E2E6E000E2F6E2E8E000E79
:1011AE002F6EE2EF08F0000E2C6E000E2D6E000E6C
:1011BE002E6E000E2F6E2C502D102E102F10D8A428
:1011CE00EBEF08F0EDEF08F005EF09F0000E286EDA
:1011DE00000E296E000E2A6E000E2B6E800E2A1245
:1011EE007F0E2B1238502B1228C028F029C029F060
:1011FE002AC02AF02BC02BF048EF0AF03F50D8A49B
:10120E000BEF09F00DEF09F017EF09F0000E286E45
:10121E00000E296E000E2A6E000E2B6E48EF0AF09D
:10122E0040503FC030F0316A305E000E315A7F0EB2
:10123E003024396E000E31203A6E28C034F029C0A9
:10124E0035F02AC036F02BC037F0000E286E000E97
:10125E00296E000E2A6E000E2B6E000E3B6E000ED7
:10126E003C6E000E3D6E000E3E6E000E406E78EF30
:10127E0009F04050D8B446EF09F048EF09F05FEF9F
:10128E0009F0D8903436353636363736D89028367B
:10129E0029362A362B363EAE57EF09F059EF09F0B4
:1012AE005AEF09F02880D8903B363C363D363E3614
:1012BE002C50345C2D5035582E5036582F503758F0
:1012CE00D8A06CEF09F06EEF09F077EF09F03E8CC5
:1012DE002C50345E2D50355A2E50365A2F50375AC8
:1012EE00402A190E40647EEF09F080EF09F040EFBE
:1012FE0009F03450351036103710D8B489EF09F094
:10130E008BEF09F0A3EF09F03B80A3EF09F0D89023
:10131E00283629362A362B363EAE98EF09F09AEF4C
:10132E0009F09BEF09F02880D8903B363C363D36CD
:10133E003E363906D8A03A062AAEA8EF09F0AAEF33
:10134E0009F08EEF09F0000E406E3EAEB1EF09F0DF
:10135E00B3EF09F0D7EF09F0FF0E3B14306EFF0E1E
:10136E003C14316EFF0E3D14326E7F0E3E14336E02
:10137E003050311032103310D8B4C8EF09F0CAEF24
:10138E0009F0CEEF09F0010E406ED7EF09F028A05C
:10139E00D3EF09F0D5EF09F0D7EF09F0CAEF09F056
:1013AE004050D8B4DDEF09F0DFEF09F003EF0AF09B
:1013BE00010E2826000E29222A222B222BA0EAEF2C
:1013CE0009F0ECEF09F003EF0AF028C030F029C065
:1013DE0031F02AC032F02BC033F033343332323294
:1013EE003132303230C028F031C029F032C02AF00C
:1013FE0033C02BF0394A3A2A3ABE0EEF0AF03A5071
:10140E0008E13928D8A00EEF0AF010EF0AF01BEF12
:10141E000AF0000E3A6E3968000E286E000E296E24
:10142E00000E2A6E000E2B6E3ABE28EF0AF03A50CE
:10143E0006E13904D8B026EF0AF028EF0AF036EFAD
:10144E000AF0000E3A6E000E396E000E286E000E77
:10145E00296E000E2A6E000E2B6E000E386E39C0ED
:10146E003FF03FA03DEF0AF03FEF0AF042EF0AF0E7
:10147E002A8E43EF0AF02A9ED8903F302B6EF9EF5A
:10148E0008F01200096E0950D8B450EF0AF052EF6E
:10149E000AF074EF0AF004BE59EF0AF057EF0AF0A3
:1014AE0074EF0AF001C005F002C006F003C007F0A9
:1014BE0004C008F0051E061E071E081E052A000E93
:1014CE0006220722082205C00BF006C00CF007C04A
:1014DE000DF008C00EF07CEF0AF001C00BF002C058
:1014EE000CF003C00DF004C00EF0015002100310FA
:1014FE000410D8A485EF0AF087EF0AF091EF0AF0F6
:10150E00000E016E000E026E000E036E000E046ED3
:10151E0022EF0BF0960E0A6E9BEF0AF00A2AD89075
:10152E000E320D320C320B32000E0B14056E000E05
:10153E000C14066E000E0D14076EFE0E0E14086EC1
:10154E000550061007100810D8A4B0EF0AF0B2EF3D
:10155E000AF095EF0AF0C0EF0AF00A2A010E0B26E8
:10156E00000E0C220D220E22D8900E320D320C32AD
:10157E000B32000E0B14056E000E0C14066E000ED0
:10158E000D14076EFF0E0E14086E05500610071090
:10159E000810D8A4D5EF0AF0D7EF0AF0B4EF0AF08E
:1015AE00DFEF0AF00A06D8900B360C360D360E36E3
:1015BE000DBEE4EF0AF0E6EF0AF0EEEF0AF0020ECF
:1015CE000A60ECEF0AF0EEEF0AF0D9EF0AF00AB07B
:1015DE00F3EF0AF0F5EF0AF0F6EF0AF00D9ED89051
:1015EE000A320AC005F0066A076A086A05C008F0E2
:1015FE00076A066A056A05500B1206500C12075050
:10160E000D1208500E120950D8B410EF0BF012EF55
:10161E000BF01AEF0BF004BE19EF0BF017EF0BF0F7
:10162E001AEF0BF00E8E0BC001F00CC002F00DC0C5
:10163E0003F00EC004F01200033404340A6E0A5094
:10164E00D8A42CEF0BF02EEF0BF038EF0BF0000EB2
:10165E00016E000E026E000E036E000E046EA5EFFC
:10166E000BF001C005F002C006F003C007F004C085
:10167E0008F0200E48EF0BF0D890083207320632F1
:10168E000532E82E43EF0BF00550096E038EFF0E68
:10169E000116FF0E0216FF0E0316000E0416960E0E
:1016AE000A5E0ABE5FEF0BF05DEF0BF075EF0BF00D
:1016BE000A50800A970FD8B067EF0BF069EF0BF066
:1016CE006BEF0BF02EEF0BF0D89004320332023298
:1016DE0001320A3E6BEF0BF08DEF0BF01F0E0A641A
:1016EE007BEF0BF07DEF0BF085EF0BF02EEF0BF099
:1016FE00D89001360236033604360A060A50D8A4AC
:10170E008BEF0BF08DEF0BF07FEF0BF00950D8B491
:10171E0093EF0BF095EF0BF09DEF0BF0041E031EF5
:10172E00021E016C000E02220322042201C001F0EF
:10173E0002C002F003C003F004C004F01200949C37
:10174E00948E000E136E000E146E800E156E420EE9
:10175E00166E51C001F052C002F0036A046A000E08
:10176E0049EC0AF001C00FF002C010F003C011F0F6
:10177E0004C012F067EC06F00FC02CF010C02DF074
:10178E0011C02EF012C02FF0000E286E240E296EFE
:10179E00F40E2A6E4A0E2B6E7CEC08F028C041F037
:1017AE0029C042F02AC043F02BC044F0000E456E13
:1017BE00000E466E800E476EBF0E486E07EC04F0AC
:1017CE0041C053F042C054F043C055F044C056F0EF
:1017DE0053C001F054C002F055C003F056C004F0DF
:1017EE0023EC0BF00150AF6E200EAC6E900EAB6E74
:1017FE001200720ED36E0F0EC16E250E526E800E3B
:10180E00516EA6EC0BF0010E026E080E036E1FEC6D
:10181E000CF00B0E586E260E576E5E0EE82EFED78F
:10182E00572EFCD7582EFAD70AEF0CF000EF00F027
:10183E002BEF0CF002C0F6FF03C0F7FF0800F550C7
:10184E003DEC0CF0024A032A02C0F6FF03C0F7FF7C
:10185E000800F5500009D8A437EF0CF039EF0CF062
:10186E0021EF0CF00D0E3DEC0CF01200016E9EA857
:10187E0043EF0CF045EF0CF03EEF0CF001C0ADFF66
:10188E001200000EF86E080EF76E000100EF0CF05D
:020000040020DA
:08000000FFFFFFFFFFFFFFFF00
:020000040030CA
:0E00000000081F1EFF0181FF0FC00FE00F4020
:00000001FF
