:04000000C5EF1BF03D
:10080000004672656375656E636961206573203AA1
:1008100000252E316600494E46004E414E00696E5D
:1008200066006E616E006C660000000E0001756F60
:10083000000E746F3EC086F03FC087F040C088F065
:1008400041C089F089BF29EF04F027EF04F03FEFA2
:1008500004F0000E756F010E746F86C001F087C042
:1008600002F088C003F089C004F045EC1BF001C021
:1008700086F002C087F003C088F004C089F0000E43
:1008800000018D6F000E8C6FC9C078F0CAC079F07E
:1008900074517511D8A44FEF04F051EF04F058EFE4
:1008A00004F0CDA556EF04F058EF04F072EF04F019
:1008B00074517511D8A45FEF04F061EF04F067EF95
:1008C00004F0000E616F2B0E606F6BEF04F0000EF2
:1008D000616F2D0E606F60C000F18C4B8D2B78071F
:1008E000D8A0790786C001F087C002F088C003F065
:1008F00089C004F007EC16F001040210D8A483EFBD
:1009000004F085EF04F0D0EF04F0BF0E436EFF0E4D
:10091000446E4250456E466A435045264450462236
:10092000465007E11A0E455CD8B099EF04F09BEFF2
:1009300004F0AAEF04F0000E00018C25016E010EF8
:100940008D21026E160E036E080E046ECDEC19F0AA
:10095000B7EF04F0000E00018C25016E010E8D2111
:10096000026E1E0E036E080E046ECDEC19F000012F
:10097000FD0E7827FF0E79233CC011F03DC012F028
:10098000000E136E010E146E78C015F079C016F0CB
:1009900056EC17F011C03CF012C03DF01BEF0AF00E
:1009A00086C001F087C002F088C003F089C004F05F
:1009B00007EC16F001500210D8A4E1EF04F0E3EFC9
:1009C00004F017EF05F0BF0E436EFF0E446E425069
:1009D000456E466A4350452644504622465007E13C
:1009E0001A0E455CD8B0F7EF04F0F9EF04F008EF09
:1009F00005F0000E00018C25016E010E8D21026EA6
:100A00001A0E036E080E046ECDEC19F0B7EF04F069
:100A1000000E00018C25016E010E8D21026E220E4A
:100A2000036E080E046ECDEC19F0B7EF04F0000E63
:100A300000018E6F000E8F6F800E906F3F0E916FD2
:100A4000000E8B6F000E8A6F86C001F087C002F027
:100A500088C003F089C004F0000E056E000E066E1B
:100A6000000E076E000E086ECEEC18F0D8B03BEF0B
:100A700005F03DEF05F0C0EF05F05CEF05F08EC02E
:100A800001F08FC002F090C003F091C004F0000E9E
:100A9000056E000E066E200E076E410E086E92EC7B
:100AA0000EF001C08EF002C08FF003C090F004C0C1
:100AB00091F000018A4B8B2B86C01AF087C01BF087
:100AC00088C01CF089C01DF0000E056E000E066E79
:100AD000200E076E410E086E8EC001F08FC002F02E
:100AE00090C003F091C004F092EC0EF001C01EF033
:100AF00002C01FF003C020F004C021F085EC15F007
:100B0000D8B085EF05F087EF05F03FEF05F0A7EFD0
:100B100005F08EC00FF08FC010F090C011F091C0A2
:100B200012F0000E136E000E146E200E156E410EA4
:100B3000166EA7EC10F00FC08EF010C08FF011C031
:100B400090F012C091F000018A07D8A08B0786C0F0
:100B50001AF087C01BF088C01CF089C01DF08EC041
:100B60001EF08FC01FF090C020F091C021F085ECE6
:100B700015F0D8A0BEEF05F0C0EF05F089EF05F045
:100B800042C007F0086AA0EC1AF0075000017B6F22
:100B90007BC07AF0670E7B19D8A4D1EF05F0D3EFB4
:100BA00005F0F9EF05F0CB51CC11D8A4DAEF05F040
:100BB000DCEF05F0E0EF05F0000ECC6F010ECB6F1F
:100BC000CCBFEDEF05F0CC5106E1CB05D8B0EBEF93
:100BD00005F0EDEF05F0F3EF05F0000E776F060E70
:100BE000766F02EF06F0CBC076F0CCC077F002EF64
:100BF00006F0CCBFFEEF05F000EF06F0EDEF05F0DC
:100C0000F3EF05F0670E7B19D8A409EF06F00BEFA0
:100C100006F03AEF06F08BAF19EF06F0FC0E8A5D96
:100C2000FF0E8B59D8A017EF06F019EF06F038EF3A
:100C300006F0FF0E436EFF0E446E76C045F077C09F
:100C400046F043504526445046228A51455C465062
:100C5000800A476E8B51800A4758D8A032EF06F0C1
:100C600034EF06F038EF06F0660E7A6F3AEF06F0D2
:100C7000650E7A6F76C06CF077C06DF0670E7B19E9
:100C8000D8A445EF06F047EF06F057EF06F0660EE2
:100C90007A19D8A44EEF06F050EF06F059EF06F09F
:100CA0008BBF57EF06F055EF06F059EF06F06C4B8F
:100CB0006D2B660E7A19D8A460EF06F062EF06F08D
:100CC00082EF06F08BBF69EF06F067EF06F075EF75
:100CD00006F0000E8E6F000E8F6F800E906F3F0E2D
:100CE000916F000E8B6F000E8A6F670E7B19D8B460
:100CF0007CEF06F07EEF06F082EF06F08A516C275B
:100D00008B516D23000E856F000E846F86C07CF0C2
:100D100087C07DF088C07EF089C07FF08EC06EF005
:100D20008FC06FF090C070F091C071F013EF07F0BA
:100D30007CC00FF07DC010F07EC011F07FC012F0BB
:100D40008EC013F08FC014F090C015F091C016F053
:100D5000A7EC10F00FC028F010C029F011C02AF045
:100D600012C02BF074EC12F028C080F029C081F082
:100D70002AC082F02BC083F080C001F081C002F055
:100D800082C003F083C004F002EC15F001C072F0E1
:100D900002C073F07CC01AF07DC01BF07EC01CF056
:100DA0007FC01DF08EC005F08FC006F090C007F028
:100DB00091C008F080C001F081C002F082C003F051
:100DC00083C004F092EC0EF001C01EF002C01FF0D0
:100DD00003C020F004C021F0C3EC1AF01AC07CF06C
:100DE0001BC07DF01CC07EF01DC07FF08EC00FF0D8
:100DF0008FC010F090C011F091C012F0000E136E71
:100E0000000E146E200E156E410E166EA7EC10F03B
:100E10000FC08EF010C08FF011C090F012C091F092
:100E20000001844B852B6C51845D8551800A436E93
:100E30006D51800A4358D8A020EF07F022EF07F049
:100E400098EF06F08EC001F08FC002F090C003F062
:100E500091C004F0000E056E000E066EA00E076E27
:100E6000400E086E92EC0EF001C080F002C081F0DE
:100E700003C082F004C083F07CC01AF07DC01BF078
:100E80007EC01CF07FC01DF080C01EF081C01FF02E
:100E900082C020F083C021F085EC15F0D8B053EF6C
:100EA00007F055EF07F060EF07F0000E0001806FCC
:100EB000000E816F000E826F000E836F89EF07F0C6
:100EC0007CC001F07DC002F07EC003F07FC004F062
:100ED00080C005F081C006F082C007F083C008F032
:100EE000CEEC18F0D8A077EF07F079EF07F089EF94
:100EF00007F0000172B17FEF07F081EF07F089EF93
:100F000007F0000E806F000E816F000E826F000EE2
:100F1000836F86C001F087C002F088C003F089C0EB
:100F200004F080C005F081C006F082C007F083C0E5
:100F300008F01CEC0AF001C07CF002C07DF003C098
:100F40007EF004C07FF07CC01AF07DC01BF07EC034
:100F50001CF07FC01DF0000E056E000E066E200E08
:100F6000076E410E086E6EC001F06FC002F070C0D7
:100F700003F071C004F092EC0EF001C01EF002C04C
:100F80001FF003C020F004C021F085EC15F0D8A0BC
:100F9000CCEF07F0CEEF07F0F7EF07F000018A4B38
:100FA0008B2B6EC001F06FC002F070C003F071C0F7
:100FB00004F0000E056E000E066E200E076E410E48
:100FC000086E92EC0EF001C06EF002C06FF003C02C
:100FD00070F004C071F0660E00017A19D8A4F3EF26
:100FE00007F0F5EF07F0F7EF07F06C4B6D2B6EC0D5
:100FF0008EF06FC08FF070C090F071C091F0650EF0
:1010000000017A19D8B407EF08F009EF08F00FEFE4
:1010100008F08AC06AF08BC06BF013EF08F0000E86
:101020006B6F000E6A6F000E696F000E686F000E26
:10103000676F000E666F000E856F000E846F0EEFF7
:1010400009F07CC00FF07DC010F07EC011F07FC0B1
:1010500012F08EC013F08FC014F090C015F091C044
:1010600016F0A7EC10F00FC028F010C029F011C046
:101070002AF012C02BF074EC12F028C080F029C0C6
:1010800081F02AC082F02BC083F080C001F081C0C3
:1010900002F082C003F083C004F002EC15F001C03E
:1010A00072F002C073F00001CDB959EF08F05BEFA8
:1010B00008F078EF08F072517311D8A462EF08F0CD
:1010C00064EF08F078EF08F0670E7B19D8A46BEF97
:1010D00008F06DEF08F078EF08F06BBF74EF08F0E0
:1010E00072EF08F078EF08F0664B672BC2EF08F05C
:1010F00068516911D8A47FEF08F081EF08F0ABEFD9
:1011000008F06BBF88EF08F086EF08F0ABEF08F04F
:10111000000E8C25D96E010E8D21DA6E2E0EDF6E3B
:101120008C4B8D2B7807D8A07907000E696F010EC4
:10113000686FABEF08F0000E8C25D96E010E8D2183
:10114000DA6E300EDF6E8C4B8D2B7807D8A07907C6
:101150006607D8A0670766516711D8A4B2EF08F0F8
:10116000B4EF08F09BEF08F0000E8C25D96E010E4D
:101170008D21DA6E7251300FDF6E8C4B8D2B78071C
:10118000D8A079077CC01AF07DC01BF07EC01CF08F
:101190007FC01DF08EC005F08FC006F090C007F034
:1011A00091C008F080C001F081C002F082C003F05D
:1011B00083C004F092EC0EF001C01EF002C01FF0DC
:1011C00003C020F004C021F0C3EC1AF01AC07CF078
:1011D0001BC07DF01CC07EF01DC07FF08EC00FF0E4
:1011E0008FC010F090C011F091C012F0000E136E7D
:1011F000000E146E200E156E410E166EA7EC10F048
:101200000FC08EF010C08FF011C090F012C091F09E
:1012100000016A07D8A06B07844B852B6C51845D55
:101220008551800A436E6D51800A4358D8B01BEF38
:1012300009F01DEF09F02BEF09F08DBF29EF09F040
:101240008D5109E14B0E8C5DD8A029EF09F02BEFF1
:1012500009F021EF08F068516911D8A432EF09F0C4
:1012600034EF09F045EF09F0CDA939EF09F03BEF74
:1012700009F045EF09F0000E8C25D96E010E8D2185
:10128000DA6E2E0EDF6E8C4B8D2B000E8C25D96EF8
:10129000010E8D21DA6E000EDF6E650E7A19D8A46C
:1012A00054EF09F056EF09F0BCEF04F0000E856F23
:1012B0004F0E846F000E8425D96E010E8521DA6EE3
:1012C000000EDF6E000E756F000E746F8BBF6DEF3A
:1012D00009F06BEF09F075EF09F0000E756F010E64
:1012E000746F8A6D8B1FD8B08B2B000E776F020E38
:1012F000766FA6EF09F08407D8A08507000E842535
:10130000D96E010E8521DA6E8AC001F08BC002F021
:10131000000E046E0A0E036E76EC18F00150300FCA
:10132000DF6E8AC001F08BC002F0000E046E0A0E60
:10133000036EB9EC17F001C08AF002C08BF0000117
:101340007607D8A077077807D8A079078A518B113C
:10135000D8A4ADEF09F0AFEF09F07BEF09F077BF4C
:10136000BCEF09F0775106E17605D8B0BAEF09F085
:10137000BCEF09F07BEF09F08407D8A08507745112
:101380007511D8A4C6EF09F0C8EF09F0CEEF09F047
:10139000000E636F2B0E626FD2EF09F0000E636FC9
:1013A0002D0E626F000E8425D96E010E8521DA6E36
:1013B00062C0DFFF7807D8A079078407D8A0850727
:1013C000BF0E436EFF0E446E4250456E466A435058
:1013D000452644504622465009E11A0E455CD8A0E5
:1013E000F4EF09F0F6EF09F0FCEF09F0000E656F7D
:1013F000650E646F00EF0AF0000E656F450E646FB6
:10140000000E8425D96E010E8521DA6E64C0DFFFDF
:101410007807D8A07907000E8C25016E010E8D216A
:10142000026E000E8425036E010E8521046ECDEC44
:1014300019F0BCEF04F012000450800B0D6E045044
:1014400004240F6E03AE27EF0AF029EF0AF02AEF0B
:101450000AF00F800F50D8B430EF0AF032EF0AF0E4
:1014600047EF0AF00F28D8A438EF0AF03AEF0AF055
:1014700042EF0AF0000E016E000E026E000E036EC7
:10148000000E046E038E000E046E4FEF0AF0000E85
:10149000016E000E026E000E036E000E046E085008
:1014A000800B0E6E0D500E18D8B459EF0AF05BEF9A
:1014B0000AF05CEF0AF00D8C085008240E6E07AE9F
:1014C00064EF0AF066EF0AF067EF0AF00E800E5044
:1014D000D8B46DEF0AF06FEF0AF084EF0AF00E282F
:1014E000D8A475EF0AF077EF0AF07FEF0AF0000E4C
:1014F000056E000E066E000E076E000E086E078E5B
:10150000000E086E8CEF0AF0000E056E000E066EDF
:10151000000E076E000E086E0F500E5CD8B093EFF1
:101520000AF095EF0AF0BCEF0AF00DAC9AEF0AF062
:101530009CEF0AF09EEF0AF0800E0D1A0FC010F01B
:101540000EC00FF010C00EF001C010F005C001F089
:1015500010C005F002C010F006C002F010C006F086
:1015600003C010F007C003F010C007F004C010F073
:1015700008C004F010C008F0000E106E0F500EC02E
:1015800009F00A6A095E000E0A5A0ABED1EF0AF093
:101590000A5009E11A0E095CD8A0D1EF0AF0D3EF86
:1015A0000AF00AEF0BF00150021003100410D8A447
:1015B000DCEF0AF0DFEF0AF0010EE0EF0AF0000EB8
:1015C000106E000E016E000E026E000E036E000E15
:1015D000046E0EC00FF013EF0BF010A0F2EF0AF044
:1015E000F4EF0AF0FAEF0AF0D89010300109106E0B
:1015F000FCEF0AF0D890103201A001EF0BF003EFDE
:101600000BF004EF0BF0108E04340432033202327C
:1016100001320F2A0E500F5CD8A011EF0BF013EF20
:101620000BF0EDEF0AF00DBC18EF0BF01AEF0BF01A
:101630005AEF0BF00F50D8A420EF0BF022EF0BF075
:101640002CEF0BF0000E016E000E026E000E036E0A
:10165000000E046E7BEF0CF00550012606500222AE
:10166000075003220850042204A039EF0BF03BEF8F
:101670000BF0E7EF0BF010A040EF0BF042EF0BF098
:1016800048EF0BF0D89010300109106E4AEF0BF0C4
:10169000D890103201A04FEF0BF051EF0BF052EF4A
:1016A0000BF0108E043404320332023201320F2A5E
:1016B000E7EF0BF00550015C065002580750035845
:1016C0000450800A096E0850800A0958D8B06BEFA0
:1016D0000BF06DEF0BF098EF0BF00150055C096E0D
:1016E000025006580A6E035007580B6E04500858F3
:1016F0000C6EFF0E0924016EFF0E0A20026EFF0E13
:101700000B20036EFF0E0C20046E800E0D1A106C61
:101710001050D8A48EEF0BF090EF0BF0A0EF0BF071
:10172000010E0126000E022203220422A0EF0BF07C
:101730000550015E0650025A0750035A0850045AD9
:101740000150021003100410D8A4A9EF0BF0ABEF66
:101750000BF0E0EF0BF01050D8A4B1EF0BF0B3EFAB
:101760000BF0E0EF0BF0000E016E000E026E000EAB
:10177000036E000E046E7BEF0CF0D890013602363B
:101780000336043610AEC7EF0BF0C9EF0BF0CAEF0B
:101790000BF0018010A0CFEF0BF0D1EF0BF0D5EFE5
:1017A0000BF0D8801036D7EF0BF0D89010360F50D2
:1017B000D8B4DDEF0BF0DFEF0BF0E0EF0BF00F062E
:1017C00003AEE5EF0BF0E7EF0BF0BDEF0BF0000E13
:1017D0000E6E10AEEEEF0BF0F0EF0BF008EF0CF02A
:1017E00010C009F07F0E0916D8B4F9EF0BF0FBEF2B
:1017F0000BF0FFEF0BF0010E0E6E08EF0CF001A0E6
:1018000004EF0CF006EF0CF008EF0CF0FBEF0BF020
:101810000E50D8B40EEF0CF010EF0CF03BEF0CF0C4
:10182000010E0126000E02220322042204A01BEF57
:101830000CF01DEF0CF03BEF0CF001C009F002C002
:101840000AF003C00BF004C00CF00C340C320B3265
:101850000A32093209C001F00AC002F00BC003F0DD
:101860000CC004F00F28D8B438EF0CF03AEF0CF0AD
:101870003BEF0CF00F2A0F28D8B441EF0CF043EFE8
:101880000CF04BEF0CF00F50D8A449EF0CF04BEFDD
:101890000CF05DEF0CF0000E016E000E026E000EFB
:1018A000036E000E046E0F50D8A459EF0CF05BEFDE
:1018B0000CF05DEF0CF0000E0D6E0FA062EF0CF05F
:1018C00064EF0CF067EF0CF0038E68EF0CF0039EF2
:1018D000D8900F30046E0DAE70EF0CF072EF0CF07C
:1018E00073EF0CF0048E01C001F002C002F003C0DF
:1018F00003F004C004F012004AC0D9FF4BC0DAFF65
:10190000DECFF6FFDDCFF7FF0800F550250AD8A49B
:101910008CEF0CF08EEF0CF076EF0EF04AC0D9FF92
:101920004BC0DAFFDE2A000EDD22000E0001CA6F76
:10193000000EC96FC9C0CDF0CAC0CEF0CB69CC696A
:101940004AC0D9FF4BC0DAFFDECFF6FFDDCFF7FF8D
:101950000800F5502E0AD8A4B0EF0CF0B2EF0CF04E
:1019600022EF0DF0000ECC6F000ECB6F4AC0D9FFF6
:101970004BC0DAFFDE2A000EDD224AC0D9FF4BC081
:10198000DAFFDECFF6FFDDCFF7FF0800F5502A0AB9
:10199000D8A4CDEF0CF0CFEF0CF0ECEF0CF04AC078
:1019A000D9FF4BC0DAFFDE2A000EDD224CC0D9FF82
:1019B0004DC0DAFFDFCF4EF0020EDE26DFCF4FF054
:1019C000000EDD224EC0D9FF4FC0DAFFDECFCBF0D4
:1019D000DDCFCCF022EF0DF04AC0D9FF4BC0DAFFCB
:1019E000DECF08F0DDCF09F057EC14F008C0CBF0E3
:1019F00009C0CCF003EF0DF04AC0D9FF4BC0DAFFAD
:101A0000DE2A000EDD22D00E4E6EFF0E4F6E4AC053
:101A1000D9FF4BC0DAFFDECFF6FFDDCFF7FF0800BE
:101A2000F550506E516A4E5050264F505122515031
:101A300009E10A0E505CD8A020EF0DF022EF0DF066
:101A4000FCEF0CF04AC0D9FF4BC0DAFFDECFF6FF47
:101A5000DDCFF7FF0800F550076E086AA0EC1AF01A
:101A60000750566E5650D8B438EF0DF03AEF0DF0DF
:101A700072EF0DF04AC0D9FF4BC0DAFFDECF4EF057
:101A8000DDCF4FF0010E4E26000E4F224EC0F6FF66
:101A90004FC0F7FF0800F550076E086AA0EC1AF077
:101AA0000750576E5750D8B458EF0DF05AEF0DF05D
:101AB00072EF0DF04AC0D9FF4BC0DAFFDECF4EF017
:101AC000DDCF4FF0020E4E26000E4F224EC0F6FF25
:101AD0004FC0F7FF0800F550076E086AA0EC1AF037
:101AE0000750586E660E5618D8A479EF0DF07BEFAC
:101AF0000DF0BBEF0DF04AC0D9FF4BC0DAFFDECFCF
:101B0000F6FFDDCFF7FF0800F5CF59F04AC0D9FF47
:101B10004BC0DAFFDE2A000EDD224CC0D9FF4DC0DB
:101B2000DAFFDFCF4EF0040EDE26DFCF4FF0000EDF
:101B3000DD224EC0D9FF4FC0DAFFDECF52F0DECF3C
:101B400053F0DECF54F0DECF55F048C03CF049C032
:101B50003DF052C03EF053C03FF054C040F055C07D
:101B600041F059C042F015EC04F03CC048F03DC0D3
:101B700049F091EF0EF0560E016E000E026E260E29
:101B8000036E080E046E000E066E020E056E86ECE5
:101B900016F001500210D8A4D0EF0DF0D2EF0DF0E6
:101BA00040EF0EF04AC0D9FF4BC0DAFFDECF4EF057
:101BB000DDCF4FF0010E4E26000E4F224EC0F6FF35
:101BC0004FC0F7FF0800F5CF59F0BF0E4E6EFF0E65
:101BD0004F6E4AC0D9FF4BC0DAFFDECFF6FFDDCF34
:101BE000F7FF0800F550506E516A4E5050264F5086
:101BF0005122515007E11A0E505CD8B002EF0EF09E
:101C000004EF0EF01EEF0EF04CC0D9FF4DC0DAFF0E
:101C1000DFCF4EF0040EDE26DFCF4FF0000EDD22C8
:101C20004EC0D9FF4FC0DAFFDECF52F0DECF53F007
:101C3000DECF54F0DECF55F036EF0EF04CC0D9FFBA
:101C40004DC0DAFFDFCF4EF0040EDE26DFCF4FF0BF
:101C5000000EDD224EC0D9FF4FC0DAFFDECF52F0BA
:101C6000DECF53F0DECF54F0DECF55F0020E4AC087
:101C7000D9FF4BC0DAFFDE26000EDD22A5EF0DF006
:101C80004AC0D9FF4BC0DAFFDECFF6FFDDCFF7FF4A
:101C90000800F550250AD8A450EF0EF052EF0EF0D0
:101CA00069EF0EF04AC0D9FF4BC0DAFFDE2A000E02
:101CB000DD22000E026E250E016E48C003F049C001
:101CC00004F0F1EC16F0000E496E010E486E91EF33
:101CD0000EF04AC0D9FF4BC0DAFFDE2A000EDD222B
:101CE000000E496E000E486E91EF0EF04AC0D9FF0B
:101CF0004BC0DAFFDECFF6FFDDCFF7FF0800F5506F
:101D0000016E026A48C003F049C004F0F1EC16F01D
:101D10004AC0D9FF4BC0DAFFDE2A000EDD2263EF96
:101D20000EF012000450800B0D6E04500424136E4C
:101D300003AE9DEF0EF09FEF0EF0A0EF0EF01380BC
:101D40001350D8B4A6EF0EF0A8EF0EF0BBEF0EF0D4
:101D50001328D8A4AEEF0EF0B0EF0EF0B8EF0EF0EF
:101D6000000E016E000E026E000E036E000E046E79
:101D7000038EC3EF0EF0000E016E000E026E000E19
:101D8000036E000E046E0850800B0D1A08500824D4
:101D9000126E07AECEEF0EF0D0EF0EF0D1EF0EF0D8
:101DA00012801250D8B4D7EF0EF0D9EF0EF0ECEF4E
:101DB0000EF01228D8A4DFEF0EF0E1EF0EF0E9EFFD
:101DC0000EF0000E056E000E066E000E076E000E81
:101DD000086E078EF4EF0EF0000E056E000E066E14
:101DE000000E076E000E086E1250D8B4FAEF0EF017
:101DF000FCEF0EF004EF0FF01350D8A402EF0FF039
:101E000004EF0FF00EEF0FF0000E016E000E026EE9
:101E1000000E036E000E046EA6EF10F007500102D4
:101E2000F3CF18F0F4CF19F018500E6E0F6A106A45
:101E3000116A1950146E156A166A176A0650020262
:101E4000F3CF18F0F4CF19F018500E26000E0F2221
:101E50001022112219501426000E152216221722C4
:101E600005500302F3CF18F0F4CF19F018500E26E6
:101E7000000E0F221022112219501426000E1522D6
:101E80001622172210C011F00FC010F00EC00FF074
:101E90000E6A05500202F3CF18F0F4CF19F0185073
:101EA0000E2619500F22000E1022000E112206508D
:101EB0000102F3CF18F0F4CF19F018500E26195084
:101EC0000F22000E1022000E112210C011F00FC0C0
:101ED00010F00EC00FF00E6A05500102F3CF18F09B
:101EE000F4CF19F018500E2619500F22000E1022B0
:101EF000000E112207500202F3CF18F0F4CF19F0B0
:101F00001850142619501522000E1622000E172202
:101F100006500302F3CF18F0F4CF19F0185014262E
:101F200019501522000E1622000E17220750030228
:101F3000F3CF18F0F4CF19F01850096E19500A6E4B
:101F40000B6A0C6A0BC00CF00AC00BF009C00AF057
:101F5000096A095014260A5015220B5016220C50FB
:101F600017220EC009F00FC00AF010C00BF011C00C
:101F70000CF0190EC1EF0FF0D8900C320B320A3270
:101F80000932E82EBCEF0FF0095014260A50152232
:101F90000B5016220C50172210C011F00FC010F079
:101FA0000EC00FF00E6A125013C009F00A6A09261B
:101FB000000E0A22820E0924186EFF0E0A20196EE6
:101FC000F7EF0FF0D890143615361636173611AED7
:101FD000ECEF0FF0EEEF0FF0EFEF0FF01480D89072
:101FE0000E360F36103611361806D8A0190616AE62
:101FF000FCEF0FF0FEEF0FF0E2EF0FF0000E126EAD
:1020000011AE05EF10F007EF10F02BEF10F0FF0E00
:102010000E14096EFF0E0F140A6EFF0E10140B6ED5
:102020007F0E11140C6E09500A100B100C10D8B44E
:102030001CEF10F01EEF10F022EF10F0010E126EE8
:102040002BEF10F014A027EF10F029EF10F02BEF7A
:1020500010F01EEF10F01250D8B431EF10F033EF43
:1020600010F057EF10F0010E1426000E1522162264
:10207000172217A03EEF10F040EF10F057EF10F0CE
:1020800014C009F015C00AF016C00BF017C00CF010
:102090000C340C320B320A32093209C014F00AC077
:1020A00015F00BC016F00CC017F0184A192A19BE0B
:1020B00062EF10F0195008E11828D8A062EF10F074
:1020C00064EF10F06EEF10F0000E146E000E156E3F
:1020D000800E166E7F0E176E9CEF10F019BE7BEF10
:1020E00010F0195006E11804D8B079EF10F07BEF2A
:1020F00010F087EF10F0000E146E000E156E000E3B
:10210000166E000E176E000E0D6E9CEF10F018C0CC
:1021100013F0FF0E1416FF0E15167F0E1616000E86
:10212000171613A096EF10F098EF10F099EF10F03B
:10213000168ED8901330176E0D50171214C001F080
:1021400015C002F016C003F017C004F012001250C0
:10215000800B1F6E12501224266E11AEB2EF10F0DB
:10216000B4EF10F0B5EF10F026802650D8B4BBEFD6
:1021700010F0BDEF10F0D2EF10F02628D8A4C3EF76
:1021800010F0C5EF10F0CDEF10F0000E0F6E000E46
:10219000106E000E116E000E126E118E000E126E79
:1021A000DAEF10F0000E0F6E000E106E000E116EC2
:1021B000000E126E1650800B1F1A16501624276E32
:1021C00015AEE5EF10F0E7EF10F0E8EF10F0278024
:1021D0002750D8B4EEEF10F0F0EF10F005EF11F04B
:1021E0002728D8A4F6EF10F0F8EF10F000EF11F068
:1021F000000E136E000E146E000E156E000E166E9D
:10220000158E000E166E0DEF11F0000E136E000EFF
:10221000146E000E156E000E166E1350141015106D
:102220001610D8A416EF11F018EF11F030EF11F0DE
:10223000000E0F6E000E106E000E116E000E126E6C
:10224000800E11127F0E12121F5012120FC00FF0CB
:1022500010C010F011C011F012C012F073EF12F0A4
:102260002650D8A436EF11F038EF11F042EF11F0FC
:10227000000E0F6E000E106E000E116E000E126E2C
:1022800073EF12F0275026C017F0186A175E000E81
:10229000185A7F0E1724206E000E1820216E0FC0D2
:1022A0001BF010C01CF011C01DF012C01EF0000E7B
:1022B0000F6E000E106E000E116E000E126E000EEC
:1022C000226E000E236E000E246E000E256E000E90
:1022D000276EA3EF11F02750D8B471EF11F073EF10
:1022E00011F08AEF11F0D8901B361C361D361E36C1
:1022F000D8900F3610361136123625AE82EF11F017
:1023000084EF11F085EF11F00F80D890223623363C
:102310002436253613501B5C14501C5815501D587C
:1023200016501E58D8A097EF11F099EF11F0A2EFB8
:1023300011F0258C13501B5E14501C5A15501D5A59
:1023400016501E5A272A190E2764A9EF11F0ABEF79
:1023500011F06BEF11F01B501C101D101E10D8B4A3
:10236000B4EF11F0B6EF11F0CEEF11F02280CEEF06
:1023700011F0D8900F3610361136123625AEC3EF55
:1023800011F0C5EF11F0C6EF11F00F80D890223692
:102390002336243625362006D8A0210611AED3EFE9
:1023A00011F0D5EF11F0B9EF11F0000E276E25AE48
:1023B000DCEF11F0DEEF11F002EF12F0FF0E22144D
:1023C000176EFF0E2314186EFF0E2414196E7F0E65
:1023D00025141A6E1750181019101A10D8B4F3EFEC
:1023E00011F0F5EF11F0F9EF11F0010E276E02EF89
:1023F00012F00FA0FEEF11F000EF12F002EF12F05A
:10240000F5EF11F02750D8B408EF12F00AEF12F0F0
:102410002EEF12F0010E0F26000E102211221222B2
:1024200012A015EF12F017EF12F02EEF12F00FC0FE
:1024300017F010C018F011C019F012C01AF01A34B9
:102440001A3219321832173217C00FF018C010F0B4
:1024500019C011F01AC012F0204A212A21BE39EF0A
:1024600012F0215008E12028D8A039EF12F03BEFFC
:1024700012F046EF12F0000E216E2068000E0F6E73
:10248000000E106E000E116E000E126E21BE53EF84
:1024900012F0215006E12004D8B051EF12F053EFB2
:1024A00012F061EF12F0000E216E000E206E000E91
:1024B0000F6E000E106E000E116E000E126E000EEA
:1024C0001F6E20C026F026A068EF12F06AEF12F00F
:1024D0006DEF12F0118E6EEF12F0119ED890263033
:1024E000126E24EF11F01200BFC038F0C0C039F0F6
:1024F000C1C03AF0C2C03BF028C038F029C039F062
:102500002AC03AF02BC03BF0810E2C6EFF0E2D6ED0
:1025100038C02EF039C02FF03AC030F03BC031F057
:10252000180E98EF12F0D890313230322F322E320E
:10253000E82E93EF12F02E502C24366E000E2D2034
:10254000376E37BEADEF12F0375009E1170E365C2B
:10255000D8A0ADEF12F0AFEF12F0B9EF12F028C033
:1025600028F029C029F02AC02AF02BC02BF07CEFDC
:1025700013F037BEBEEF12F0C0EF12F030EF13F0E1
:1025800036C02CF0FF0E2D6EFF0E2E6E7F0E2F6EBE
:10259000000E306E2C66CFEF12F0D7EF12F0303411
:1025A00030322F322E322D322C2ECAEF12F02DC0A7
:1025B00032F02EC033F02FC034F030C035F032503E
:1025C00038142C6E335039142D6E34503A142E6E4C
:1025D00035503B142F6E2C502D102E102F10D8A4D8
:1025E000F4EF12F0F6EF12F0F8EF12F0AFEF12F096
:1025F00038C02CF039C02DF03AC02EF03BC02FF07F
:10260000200E08EF13F0D8902F322E322D322C32BC
:10261000E82E03EF13F02C502D102E102F10D8B4ED
:1026200014EF13F016EF13F01EEF13F032503826AC
:102630003350392234503A2235503B22321C2C6E12
:10264000331C2D6E341C2E6E351C2F6E2C503816FC
:102650002D5039162E503A162F503B1674EF13F0AA
:1026600038C02CF039C02DF03AC02EF03BC02FF00E
:10267000200E40EF13F0D8902F322E322D322C3214
:10268000E82E3BEF13F02C502D102E102F10D8A455
:102690004CEF13F04EEF13F058EF13F0000E386EBE
:1026A000000E396E000E3A6E000E3B6E74EF13F0A2
:1026B000D89038342C6E39342D6E3A342E6E3B342B
:1026C0002F6E2C502D102E102F10D8B46AEF13F04F
:1026D0006CEF13F074EF13F0000E386E000E396ECD
:1026E000800E3A6EBF0E3B6E38C028F039C029F01C
:1026F0003AC02AF03BC02BF01200096E0950D8B442
:1027000084EF13F086EF13F0A8EF13F004BE8DEF03
:1027100013F08BEF13F0A8EF13F001C005F002C027
:1027200006F003C007F004C008F0051E061E071ED1
:10273000081E052A000E06220722082205C00BF0FB
:1027400006C00CF007C00DF008C00EF0B0EF13F09B
:1027500001C00BF002C00CF003C00DF004C00EF07D
:102760000150021003100410D8A4B9EF13F0BBEF0E
:1027700013F0C5EF13F0000E016E000E026E000E96
:10278000036E000E046E56EF14F0960E0A6ECFEF35
:1027900013F00A2AD8900E320D320C320B32000E92
:1027A0000B14056E000E0C14066E000E0D14076E51
:1027B000FE0E0E14086E0550061007100810D8A45F
:1027C000E4EF13F0E6EF13F0C9EF13F0F4EF13F0BA
:1027D0000A2A010E0B26000E0C220D220E22D89082
:1027E0000E320D320C320B32000E0B14056E000E41
:1027F0000C14066E000E0D14076EFF0E0E14086EFC
:102800000550061007100810D8A409EF14F00BEFBC
:1028100014F0E8EF13F013EF14F00A06D8900B361B
:102820000C360D360E360DBE18EF14F01AEF14F0FC
:1028300022EF14F0020E0A6020EF14F022EF14F0E1
:102840000DEF14F00AB027EF14F029EF14F02AEF7F
:1028500014F00D9ED8900A320AC005F0066A076A85
:10286000086A05C008F0076A066A056A05500B1277
:1028700006500C1207500D1208500E120950D8B411
:1028800044EF14F046EF14F04EEF14F004BE4DEF99
:1028900014F04BEF14F04EEF14F00E8E0BC001F05D
:1028A0000CC002F00DC003F00EC004F01200000EC8
:1028B000116E000E106E000E0F6E000E0E6E63EFA6
:1028C00014F0084A092A08C0F6FF09C0F7FF0800FB
:1028D000F550200AD8B46FEF14F071EF14F061EFE7
:1028E00014F0F70E0A6EFF0E0B6E08C0F6FF09C05B
:1028F000F7FF0800F5500C6E0D6A0A500C260B50BD
:102900000D220D5009E1050E0C5CD8A08AEF14F0E1
:102910008CEF14F061EF14F096EF14F0000E0F6ED0
:10292000010E0E6E084A092ACBEF14F008C0F6FF1C
:1029300009C0F7FF0800F5500A6E0B6A0B50000A39
:10294000D8B4A5EF14F0CBEF14F00A502B0AD8B48A
:1029500092EF14F0060AD8B48EEF14F0CBEF14F017
:1029600010C001F011C002F0000E046E0A0E036EDA
:10297000B2EC1BF008C0F6FF09C0F7FF0800F550E5
:10298000015E000E025A300E0124106E000E02206D
:10299000116E92EF14F0D00E0A6EFF0E0B6E08C08F
:1029A000F6FF09C0F7FF0800F5500C6E0D6A0A50DB
:1029B0000C260B500D220D5009E10A0E0C5CD8A01C
:1029C000E4EF14F0E6EF14F0B0EF14F00E500F1037
:1029D000D8A4EDEF14F0EFEF14F0FDEF14F010C0F9
:1029E0000AF011C00BF00A1E0B1E0A4A0B2A0AC07D
:1029F00008F00BC009F001EF15F010C008F011C08D
:102A000009F01200033404340A6E0A50D8A40BEF04
:102A100015F00DEF15F017EF15F0000E016E000E1A
:102A2000026E000E036E000E046E84EF15F001C0FE
:102A300005F002C006F003C007F004C008F0200E45
:102A400027EF15F0D8900832073206320532E82E0B
:102A500022EF15F00550096E038EFF0E0116FF0ED2
:102A60000216FF0E0316000E0416960E0A5E0ABE2C
:102A70003EEF15F03CEF15F054EF15F00A50800AC8
:102A8000970FD8B046EF15F048EF15F04AEF15F064
:102A90000DEF15F0D89004320332023201320A3EB3
:102AA0004AEF15F06CEF15F01F0E0A645AEF15F09F
:102AB0005CEF15F064EF15F00DEF15F0D8900136CE
:102AC0000236033604360A060A50D8A46AEF15F017
:102AD0006CEF15F05EEF15F00950D8B472EF15F0F9
:102AE00074EF15F07CEF15F0041E031E021E016C3E
:102AF000000E02220322042201C001F002C002F0F3
:102B000003C003F004C004F01200000E1A14226E79
:102B1000000E1B14236E800E1C14246E7F0E1D14D9
:102B2000256E2250231024102510D8A49AEF15F0FA
:102B30009CEF15F0A4EF15F0000E1A6E000E1B6E40
:102B4000000E1C6E000E1D6E000E1E14226E000E76
:102B50001F14236E800E2014246E7F0E2114256E08
:102B60002250231024102510D8A4B9EF15F0BBEF84
:102B700015F0C3EF15F0000E1E6E000E1F6E000E56
:102B8000206E000E216E1DAEC8EF15F0CAEF15F0D5
:102B9000D3EF15F01A6C1B1ED8B01B2A1C1ED8B020
:102BA0001C2A800E1D5621AED8EF15F0DAEF15F075
:102BB000E3EF15F01E6C1F1ED8B01F2A201ED8B0E0
:102BC000202A800E2156000E1A1A000E1B1A000E23
:102BD0001C1A800E1D1A000E1E1A000E1F1A000E5F
:102BE000201A800E211A1E501A5C1F501B582050AC
:102BF0001C5821501D58D8B000EF16F002EF16F007
:102C000005EF16F0D89006EF16F0D8801200C3C07A
:102C10000BF0C4C00CF0C5C00DF0C6C00EF001C072
:102C20000BF002C00CF003C00DF004C00EF00BC09E
:102C300005F00CC006F00DC007F00EC008F0180E2D
:102C400027EF16F0D8900832073206320532E82E08
:102C500022EF16F00550096E0A6A09500A10D8A42E
:102C600034EF16F036EF16F056EF16F0D8900B341E
:102C7000056E0C34066E0D34076E0E34086E05506A
:102C8000061007100810D8A448EF16F04AEF16F007
:102C900050EF16F0000E026E020E016E85EF16F078
:102CA000000E026E030E016E85EF16F009280A1061
:102CB000D8A45DEF16F05FEF16F081EF16F00BC0B1
:102CC00005F00CC006F00DC007F00EC008F0090EAC
:102CD000D8900536063607360836E82E68EF16F027
:102CE0000550061007100810D8B479EF16F07CEFE5
:102CF00016F0010E7DEF16F0000E016E026A85EFF0
:102D000016F0000E026E040E016E120001C008F0F3
:102D100002C009F003C00AF004C00BF00506D8A0F9
:102D20000606052806E10628D8A499EF16F09BEFC1
:102D300016F0A8EF16F0000E026E000E016EF0EF16
:102D400016F0084A092A0A4A0B2A0506D8A00606E0
:102D500008C0D9FF09C0DAFFDF50D8B4B2EF16F0CF
:102D6000B4EF16F0DFEF16F00AC0F6FF0BC0F7FF66
:102D70000800F5500009D8B4C0EF16F0C2EF16F005
:102D8000DFEF16F005500610D8B4C9EF16F0CBEF00
:102D900016F0DFEF16F008C0D9FF09C0DAFFDF50E8
:102DA000076E0AC0F6FF0BC0F7FF0800F5500718C2
:102DB000D8B4DDEF16F0DFEF16F0A1EF16F008C083
:102DC000D9FF09C0DAFFDF50076E0AC0F6FF0BC05B
:102DD000F7FF0800F550075C016E026AD8A00206F2
:102DE000120003500410D8B4F8EF16F0FAEF16F002
:102DF00003EF17F003500410D8A401EF17F003EF0E
:102E000017F008EF17F00150E7EC1BF055EF17F043
:102E100020EE09F00350D9260450DA22DE50DE10ED
:102E2000D8B415EF17F017EF17F032EF17F020EEC8
:102E300009F00350D9260450DA2210EE03F00350B3
:102E4000E1260450E222DE50E65CE650800A096E7C
:102E5000DE50800A0958D8B030EF17F032EF17F083
:102E600055EF17F020EE03F00350D9260450DA2274
:102E7000DECF05F0DDCF06F003C0D9FF04C0DAFFD6
:102E8000DECF07F0DDCF08F005500724D96E0650DD
:102E90000820DA6E01C0DFFF20EE03F00350D926D0
:102EA0000450DA22DE2A000EDD2212000001CDA13C
:102EB0005CEF17F05EEF17F068EF17F013C00AF041
:102EC00014C00BF011C00CF012C00DF0E6EC1AF0BB
:102ED00016BE6DEF17F06FEF17F075EF17F015C016
:102EE0001AF016C01BF079EF17F0000E1B6E000EE3
:102EF0001A6E000E196E000E186E8BEF17F0000E92
:102F0000026E200E016E11C003F012C004F0F1EC4D
:102F100016F0184A192A1A50185C1950800A176EB0
:102F20001B50800A1758D8A098EF17F09AEF17F0A7
:102F30007FEF17F00001CDB1A0EF17F0A2EF17F06F
:102F4000ACEF17F013C00AF014C00BF011C00CF076
:102F500012C00DF0E6EC1AF013C001F014C002F03C
:102F60007DEC1BF01A500124116E1B500220126ED2
:102F70001200000E066E04BEC2EF17F0C0EF17F08D
:102F8000C8EF17F0036C041ED8B0042A010E066EB9
:102F900002BECFEF17F0CDEF17F0D5EF17F0016CB1
:102FA000021ED8B0022A010E061A000E086E000E8C
:102FB000076E03500410D8B4E0EF17F0E2EF17F0FB
:102FC0000AEF18F0010E056EEAEF17F0D8900336FD
:102FD0000436052A04AEEFEF17F0F1EF17F0E6EF35
:102FE00017F0D890073608360350015C0450025899
:102FF000D8A0FDEF17F0FFEF17F004EF18F0035023
:10300000015E0450025A0780D89004320332052E24
:10301000F1EF17F00650D8B410EF18F012EF18F0D7
:1030200016EF18F0076C081ED8B0082A07C001F088
:1030300008C002F01200000E2F6E000E2E6E000E61
:10304000316E000E306E3DEF18F09EA42AEF18F09E
:103050002CEF18F025EF18F09E94BECF2EF0BFCFC6
:103060002FF09EA436EF18F038EF18F031EF18F07B
:103070009E94BECF30F0BFCF31F030502E5C315037
:103080002F58D8B046EF18F048EF18F025EF18F099
:10309000000ECF6E000ECE6E2E50305C2C6E2F5078
:1030A00031582D6E000E0F6E240E106EF40E116E40
:1030B000490E126E2CC001F02DC002F0036A046AA2
:1030C000000E7DEC13F001C013F002C014F003C039
:1030D00015F004C016F0A7EC10F00FC028F010C0D7
:1030E00029F011C02AF012C02BF01200000E066E5B
:1030F00002BE7FEF18F07DEF18F085EF18F0016C3D
:10310000021ED8B0022A010E066E04BE8CEF18F023
:103110008AEF18F090EF18F0036C041ED8B0042A60
:1031200003500410D8B497EF18F099EF18F0BDEFE2
:1031300018F0010E056EA1EF18F0D8900336043692
:10314000052A04AEA6EF18F0A8EF18F09DEF18F0CE
:103150000350015C04500258D8A0B1EF18F0B3EF4F
:1031600018F0B7EF18F00350015E0450025AD890DF
:1031700004320332052EA8EF18F00650D8B4C3EF7E
:1031800018F0C5EF18F0C9EF18F0016C021ED8B0A6
:10319000022A01C001F002C002F01200000E011468
:1031A000096E000E02140A6E800E03140B6E7F0E61
:1031B00004140C6E09500A100B100C10D8A4E3EF85
:1031C00018F0E5EF18F0EDEF18F0000E016E000EAC
:1031D000026E000E036E000E046E000E0514096EE2
:1031E000000E06140A6E800E07140B6E7F0E081474
:1031F0000C6E09500A100B100C10D8A402EF19F035
:1032000004EF19F00CEF19F0000E056E000E066EBB
:10321000000E076E000E086E055001180FE10650F3
:1032200002180CE10750031809E108500418D8B43B
:103230001CEF19F01EEF19F021EF19F0D89022EFD2
:1032400019F0D8801200720ED36ED6EC1BF098ECF9
:103250001BF0000E036E000EFBEC19F0010E036E66
:10326000080E046E9EEC19F01BEC18F028C0BBF0A1
:1032700029C0BCF02AC0BDF02BC0BEF0AB0E0001CF
:10328000946F000E956F110E966F080E976FBBC06E
:1032900098F0BCC099F0BDC09AF0BEC09BF026EC7F
:1032A0001AF0010E036E000EFBEC19F0AB0E036E6C
:1032B000000E046E9EEC19F0060E0001AA6F130EAC
:1032C000A96FAD0EE82EFED7A92FFCD7AA2FFAD7EB
:1032D00000D034EF19F000EF00F05CC092F05DC058
:1032E00093F0000E0001C86F000EC76F8BEF19F04E
:1032F0005AC048F05BC049F0920E4A6E000E4B6E09
:103300005EC04CF05FC04DF07CEC0CF0485000010A
:10331000C7274950C82392C0F6FF93C0F7FF0800A3
:10332000F5500009D8A497EF19F099EF19F078EF4C
:1033300019F0C7C05AF0C8C05BF01200B4EF19F022
:1033400003C0F6FF04C0F7FFF86A070EF76403D066
:103350000800F55005D0F6CFE1FFF7CFE2FFE750C8
:1033600008EC1BF0034A042A03C0F6FF04C0F7FF71
:10337000F86A070EF76403D00800F55005D0F6CFC1
:10338000E1FFF7CFE2FFE7500009D8A4CAEF19F038
:10339000CCEF19F0A0EF19F0120003C007F004C041
:1033A00008F001C009F002C00AF00750056E08508D
:1033B000066E074A082A05C0F6FF06C0F7FFF86A3E
:1033C00009C0D9FF0AC0DAFF094A0A2A070EF764C2
:1033D00003D00800F55005D0F6CFE1FFF7CFE2FFAC
:1033E000E750DF6EDF50D8A4F8EF19F0FAEF19F0CC
:1033F000D5EF19F01200066E10EF1AF006500F0B01
:103400008009076E075078EC1AF025EF1AF0065085
:103410000F0BC009076E075078EC1AF025EF1AF071
:103420000350046E056A0550000AD8B41AEF1AF06A
:1034300025EF1AF00450000AD8B4FEEF19F0010A83
:10344000D8B407EF1AF025EF1AF01200980E000119
:103450009C6F000E9D6F94C09EF095C09FF0000E73
:10346000A26F000EA16F000EA86F000EA76F9E0E38
:103470005A6E000E5B6E96C05CF097C05DF09C0EBD
:103480005E6E000E5F6E6DEC19F00001A151942587
:10349000D96EA2519521DA6E000EDF6E1200010E78
:1034A000076E200E01180210D8B459EF1AF05BEF26
:1034B0001AF074EF1AF0F70E036EFF0E046E01C0DF
:1034C00005F002C006F003500526045006220650FF
:1034D00009E1050E055CD8A070EF1AF072EF1AF042
:1034E00074EF1AF0000E076E07C001F0026A1200B6
:1034F000026E02C001F0F00E01168C500F0B01108D
:103500008C6E8C948C8600F08C96030E016E980E57
:10351000E82EFED7012EFCD702C001F0013AF00ED2
:1035200001168C500F0B01108C6E8C8600F08C965F
:10353000080E016ECA0EE82EFED7012EFCD712002F
:10354000BF0E096EFF0E0A6E07C00BF008C00CF02C
:1035500009500B260A500C220C5007E11A0E0B5C86
:10356000D8B0B5EF1AF0B7EF1AF0BEEF1AF0200E90
:103570000710076E0850086EC2EF1AF007C007F078
:1035800008C008F01200000E1E1A000E1F1A000ECE
:10359000201A800E211A1AC001F01BC002F01CC0B4
:1035A00003F01DC004F01EC005F01FC006F020C0CF
:1035B00007F021C008F01CEC0AF001C01AF002C0AC
:1035C0001BF003C01CF004C01DF01200000E106EB2
:1035D000000E0F6EF7EF1AF00EC001F0026A0CC079
:1035E00003F00DC004F0F1EC16F00F4A102A0F5052
:1035F0000A24D96E10500B20DA6EDF500E6E0E507A
:10360000D8A405EF1BF007EF1BF0ECEF1AF0120047
:10361000026E02C001F0F00E01168C500F0B01106B
:103620008C6E8C848C8600F08C9602C001F0013A7E
:10363000F00E01168C500F0B01108C6E8C8600F072
:103640008C96080E016ECA0EE82EFED7012EFCD70E
:103650001200BF0E036EFF0E046E01C005F002C023
:1036600006F0035005260450062206500AE11A0E01
:10367000055CD8A03EEF1BF041EF1BF0010E42EFBE
:103680001BF0000E016E026A1200015002100310BE
:103690000410D8B44EEF1BF050EF1BF058EF1BF0A6
:1036A000000E011A000E021A000E031A800E041AF0
:1036B00001C001F002C002F003C003F004C004F036
:1036C0001200D00E036EFF0E046E01C005F002C0A2
:1036D00006F0035005260450062206500AE10A0EA1
:1036E000055CD8A076EF1BF079EF1BF0010E7AEFA6
:1036F0001BF0000E016E026A120001C003F002C04E
:1037000004F085EF1BF0014A022A01C0D9FF02C074
:10371000DAFFDF50D8A48FEF1BF091EF1BF083EF9F
:103720001BF00350015C016E04500258026E12003F
:10373000270E036EF50EE82EFED7032EFCD700F001
:10374000030E9516020E78EC1AF0280E78EC1AF09B
:10375000010E78EC1AF00C0E78EC1AF0060E78ECEC
:103760001AF0120001500302F3CF05F0F4CF06F077
:1037700001500402F350062602500302F3500626BD
:1037800005C001F006C002F0120001EE00F0500E7C
:10379000EE6AE806FDE100EEBFF0100EEE6AE80604
:1037A000FDE1000EF86E000123EF19F09484050E80
:1037B000BD6E800ECD6E000EBF6E000EBE6E000E92
:1037C000CF6E000ECE6E9E949D84CD8012001200AE
:020000040020DA
:08000000FFFFFFFFFFFFFFFF00
:020000040030CA
:0E00000000081F1EFF0181FF0FC00FE00F4020
:00000001FF
