:020000040000FA
:060000000A128A11EE2F26
:100EB6007E088A007F0882000A128A115B270A12BE
:100EC6008A118000840A04087D0603190034FF0A8B
:100ED6000319FE0A5F2F3F340034063400345B34B6
:100EE60000344F340034663400346D3400347D34BD
:100EF6000034073400347F3400346F340034F80192
:100F0600F9018316031387018501831203138701F1
:100F1600F801F901F601F701023083120313850087
:100F26007608F4007407203E8400831300088700C7
:100F36004130F500EE30F400F40B9F2FF50B9F2F98
:100F4600000078087904031DA92FAA2FAF2F0330BC
:100F5600831203138500B32F013083120313850018
:100F66007808F4007407203E840083130008870085
:100F76004130F500EE30F400F40BBF2FF50BBF2F18
:100F860000000130F6070318F70A0030F707770864
:100F9600803AFF0080307F02031DD32F0A3076028D
:100FA600031CD62FD72F8F2F0130F8070318F90A05
:100FB6000030F9077908803AFF0080307F02031D70
:100FC600E62F0A307802031CE92FEA2F8D2F8B2F8C
:100FD6000A128A11002883133430FD000730FE0000
:100FE6006E30FF00203084000A128A115F270A1231
:0A0FF6008A1183010A128A11822F6A
:04400E00F43FFF3F3D
:00000001FF
