:100000000C945A000C946F000C946F000C946F00C9
:100010000C946F000C946F000C946F000C946F00A4
:100020000C946F000C946F000C946F000C946F0094
:100030000C946F000C946F000C946F000C946F0084
:100040000C946F000C946F000C946F000C946F0074
:100050000C946F000C946F000C946F000C946F0064
:100060000C946F000C946F000C946F000C946F0054
:100070000C946F000C946F000C946F000C946F0044
:100080000C946F000C946F000C946F000C946F0034
:100090000C946F000C946F000C946F000C946F0024
:1000A0000C946F000C946F000C946F000C946F0014
:1000B0000C946F0011241FBECFEFD8E0DEBFCDBF80
:1000C00011E0A0E0B1E0E8E6F2E002C005900D9298
:1000D000AE31B107D9F70E9471000C9432010C9433
:1000E00000000E94A7000E94E40061E081E00E94FD
:1000F000EB0080E091E00E94230163E082E00E9437
:10010000EB0080E191E00E942301EFCF80FF0BC064
:100110005C9A81FF0AC05D9A82FF09C05E9A83FDE6
:1001200008C05F9808955C98F4CF5D98F5CF5E980D
:10013000F6CF5F9A08955A980E9486005B9A8FE7DF
:100140009EE30197F1F700C000005B9808958AB123
:10015000806F8AB98AB18C608AB980E00E9486007B
:100160002FEF89EF90E0215080409040E1F700C0F0
:10017000000083E00E949B008FE19EE40197F1F76D
:1001800000C0000083E00E949B008FED9BEA019776
:10019000F1F700C0000083E00E949B0082E00E9413
:1001A0009B0082E00E949B0088E00E949B0080E010
:1001B0000E949B008CE00E949B0080E00E949B00BC
:1001C00086E00E949B00089580E00E949B0081E0F1
:1001D0000E949B000895CF93813021F0823071F00E
:1001E000CF910895CFE7C60F8C2F82958F700E9414
:1001F0009B008C2F8F700E949B00F2CFCFEBC60F1D
:100200008C2F82958F700E949B008C2F8F700E9484
:100210009B00E6CFCF93C82F5A9A82958F700E9489
:1002200086005B9A85ED8A95F1F700005B988C2F2C
:100230008F700E9486005B9A85ED8A95F1F7000029
:100240005B98CF910895CF93DF93EC018881882349
:1002500031F021960E940A0189918111FBCFDF9133
:08026000CF910895F894FFCF3F
:1002680046656C69636573204669657374617300DC
:0E027800506174726961732050455255000048
:00000001FF
