:0400000005EF1CF0FC
:1008000000566F6C74616A65206573203A2000564B
:100810003D252E326600494E46004E414E00696E1F
:1008200066006E616E006C660000000E00017B6F5A
:10083000000E7A6F3BC08CF03CC08DF03DC08EF056
:100840003EC08FF08FBF29EF04F027EF04F03FEF99
:1008500004F0000E7B6F010E7A6F8CC001F08DC02A
:1008600002F08EC003F08FC004F06EEC1BF001C0EC
:100870008CF002C08DF003C08EF004C08FF0000E2B
:100880000001936F000E926FC6C07EF0C7C07FF06C
:100890007A517B11D8A44FEF04F051EF04F058EFD8
:1008A00004F0CAA556EF04F058EF04F072EF04F01C
:1008B0007A517B11D8A45FEF04F061EF04F067EF89
:1008C00004F0000E616F2B0E606F6BEF04F0000EF2
:1008D000616F2D0E606F60C000F1924B932B7E070D
:1008E000D8A07F078CC001F08DC002F08EC003F04D
:1008F0008FC004F063EC16F001040210D8A483EF5B
:1009000004F085EF04F0DCEF04F0BF0E406EFF0E44
:10091000416E3F50426E436A40504226415043224E
:1009200043500AE11A0E425CD8A099EF04F09CEF04
:1009300004F0010E9DEF04F0000E0001626F636B86
:1009400062516311D8B4A7EF04F0A9EF04F0B7EF38
:1009500004F0000E9225016E010E9321026E160E18
:10096000036E080E046E19EC1AF0C3EF04F0000ECB
:100970009225016E010E9321026E1E0E036E080E6B
:10098000046E19EC1AF00001FD0E7E27FF0E7F2386
:1009900039C011F03AC012F0000E136E010E146E41
:1009A0007EC015F07FC016F017EC18F011C039F0BA
:1009B00012C03AF040EF0AF08CC001F08DC002F096
:1009C0008EC003F08FC004F063EC16F001500210EB
:1009D000D8A4EDEF04F0EFEF04F02FEF05F0BF0E19
:1009E000406EFF0E416E3F50426E436A40504226B9
:1009F0004150432243500AE11A0E425CD8A003EF53
:100A000005F006EF05F0010E07EF05F0000E0001FE
:100A1000646F656B64516511D8B411EF05F013EF85
:100A200005F021EF05F0000E9225016E010E9321D5
:100A3000026E1A0E036E080E046E19EC1AF0C3EF64
:100A400004F0000E9225016E010E9321026E220E1B
:100A5000036E080E046E19EC1AF0C3EF04F0000EDA
:100A60000001946F000E956F800E966F3F0E976F8A
:100A7000000E916F000E906F8CC001F08DC002F0DF
:100A80008EC003F08FC004F0000E056E000E066EDF
:100A9000000E076E000E086E34EC19F0D8B053EF5C
:100AA00005F055EF05F0D8EF05F074EF05F094C0B0
:100AB00014F095C015F096C016F097C017F0000E10
:100AC000186E000E196E200E1A6E410E1B6ED1ECC0
:100AD0000EF014C094F015C095F016C096F017C033
:100AE00097F00001904B912B8CC02DF08DC02EF013
:100AF0008EC02FF08FC030F0000E186E000E196EF1
:100B0000200E1A6E410E1B6E94C014F095C015F0A5
:100B100096C016F097C017F0D1EC0EF014C031F06B
:100B200015C032F016C033F017C034F0E1EC15F008
:100B3000D8B09DEF05F09FEF05F057EF05F0BFEF40
:100B400005F094C001F095C002F096C003F097C084
:100B500004F0000E056E000E066E200E076E410EAC
:100B6000086EE6EC10F001C094F002C095F003C0EE
:100B700096F004C097F000019007D8A091078CC0B0
:100B80002DF08DC02EF08EC02FF08FC030F094C0AD
:100B900031F095C032F096C033F097C034F0E1ECFC
:100BA00015F0D8A0D6EF05F0D8EF05F0A1EF05F0CD
:100BB0003FC007F0086ABAEC19F007500001816FD6
:100BC00081C080F0670E8119D8A4E9EF05F0EBEF42
:100BD00005F011EF06F0C851C911D8A4F2EF05F0E5
:100BE000F4EF05F0F8EF05F0000EC96F010EC86FC5
:100BF000C9BF05EF06F0C95106E1C805D8B003EF3B
:100C000006F005EF06F00BEF06F0000E7D6F060E06
:100C10007C6F1AEF06F0C8C07CF0C9C07DF01AEFF7
:100C200006F0C9BF16EF06F018EF06F005EF06F064
:100C30000BEF06F0670E8119D8A421EF06F023EF21
:100C400006F052EF06F091AF31EF06F0FC0E905D2A
:100C5000FF0E9159D8A02FEF06F031EF06F050EFBC
:100C600006F0FF0E406EFF0E416E7CC042F07DC06C
:100C700043F040504226415043229051425C435041
:100C8000800A446E9151800A4458D8A04AEF06F079
:100C90004CEF06F050EF06F0660E806F52EF06F054
:100CA000650E806F7CC072F07DC073F0670E811995
:100CB000D8A45DEF06F05FEF06F06FEF06F0660E6A
:100CC0008019D8A466EF06F068EF06F071EF06F021
:100CD00091BF6FEF06F06DEF06F071EF06F0724B0B
:100CE000732B660E8019D8A478EF06F07AEF06F021
:100CF0009AEF06F091BF81EF06F07FEF06F08DEFDF
:100D000006F0000E946F000E956F800E966F3F0EEA
:100D1000976F000E916F000E906F670E8119D8B417
:100D200094EF06F096EF06F09AEF06F090517227D6
:100D300091517323000E8B6F000E8A6F8CC082F06E
:100D40008DC083F08EC084F08FC085F094C074F0A5
:100D500095C075F096C076F097C077F02BEF07F04E
:100D600082C001F083C002F084C003F085C004F0AB
:100D700094C005F095C006F096C007F097C008F043
:100D8000E6EC10F001C01AF002C01BF003C01CF02A
:100D900004C01DF0B3EC12F01AC086F01BC087F03F
:100DA0001CC088F01DC089F086C001F087C002F029
:100DB00088C003F089C004F05EEC15F001C078F043
:100DC00002C079F082C02DF083C02EF084C02FF0D5
:100DD00085C030F094C018F095C019F096C01AF094
:100DE00097C01BF086C014F087C015F088C016F0BD
:100DF00089C017F0D1EC0EF014C031F015C032F0FC
:100E000016C033F017C034F0ECEC1AF02DC082F0AD
:100E10002EC083F02FC084F030C085F094C001F064
:100E200095C002F096C003F097C004F0000E056E66
:100E3000000E066E200E076E410E086EE6EC10F0F6
:100E400001C094F002C095F003C096F004C097F082
:100E500000018A4B8B2B72518A5D8B51800A406E48
:100E60007351800A4058D8A038EF07F03AEF07F0E6
:100E7000B0EF06F094C014F095C015F096C016F0CF
:100E800097C017F0000E186E000E196EA00E1A6EA5
:100E9000400E1B6ED1EC0EF014C086F015C087F02A
:100EA00016C088F017C089F082C02DF083C02EF0E4
:100EB00084C02FF085C030F086C031F087C032F09A
:100EC00088C033F089C034F0E1EC15F0D8B06BEF96
:100ED00007F06DEF07F078EF07F0000E0001866F66
:100EE000000E876F000E886F000E896FA1EF07F06C
:100EF00082C001F083C002F084C003F085C004F01A
:100F000086C005F087C006F088C007F089C008F0E9
:100F100034EC19F0D8A08FEF07F091EF07F0A1EFB4
:100F200007F0000178B197EF07F099EF07F0A1EF14
:100F300007F0000E866F000E876F000E886F000EA0
:100F4000896F8CC001F08DC002F08EC003F08FC09D
:100F500004F086C005F087C006F088C007F089C09D
:100F600008F041EC0AF001C082F002C083F003C037
:100F700084F004C085F082C02DF083C02EF084C0C0
:100F80002FF085C030F0000E186E000E196E200E86
:100F90001A6E410E1B6E74C014F075C015F076C049
:100FA00016F077C017F0D1EC0EF014C031F015C078
:100FB00032F016C033F017C034F0E1EC15F0D8A0D1
:100FC000E4EF07F0E6EF07F00FEF08F00001904BB9
:100FD000912B74C014F075C015F076C016F077C070
:100FE00017F0000E186E000E196E200E1A6E410ECC
:100FF0001B6ED1EC0EF014C074F015C075F016C065
:1010000076F017C077F0660E00018019D8A40BEFB8
:1010100008F00DEF08F00FEF08F0724B732B74C05F
:1010200094F075C095F076C096F077C097F0650E95
:1010300000018019D8B41FEF08F021EF08F027EF66
:1010400008F090C070F091C071F02BEF08F0000E26
:10105000716F000E706F000E6F6F000E6E6F000EDE
:101060006D6F000E6C6F000E8B6F000E8A6F26EF97
:1010700009F082C001F083C002F084C003F085C093
:1010800004F094C005F095C006F096C007F097C034
:1010900008F0E6EC10F001C01AF002C01BF003C02B
:1010A0001CF004C01DF0B3EC12F01AC086F01BC097
:1010B00087F01CC088F01DC089F086C001F087C091
:1010C00002F088C003F089C004F05EEC15F001C0A6
:1010D00078F002C079F00001CAB971EF08F073EF3F
:1010E00008F090EF08F078517911D8A47AEF08F061
:1010F0007CEF08F090EF08F0670E8119D8A483EF19
:1011000008F085EF08F090EF08F071BF8CEF08F061
:101110008AEF08F090EF08F06C4B6D2BDAEF08F0D7
:101120006E516F11D8A497EF08F099EF08F0C3EF54
:1011300008F071BFA0EF08F09EEF08F0C3EF08F0D1
:10114000000E9225D96E010E9321DA6E2E0EDF6EFF
:10115000924B932B7E07D8A07F07000E6F6F010E76
:101160006E6FC3EF08F0000E9225D96E010E932129
:10117000DA6E300EDF6E924B932B7E07D8A07F077E
:101180006C07D8A06D076C516D11D8A4CAEF08F098
:10119000CCEF08F0B3EF08F0000E9225D96E010EE7
:1011A0009321DA6E7851300FDF6E924B932B7E07CE
:1011B000D8A07F0782C02DF083C02EF084C02FF00E
:1011C00085C030F094C018F095C019F096C01AF0A0
:1011D00097C01BF086C014F087C015F088C016F0C9
:1011E00089C017F0D1EC0EF014C031F015C032F008
:1011F00016C033F017C034F0ECEC1AF02DC082F0BA
:101200002EC083F02FC084F030C085F094C001F070
:1012100095C002F096C003F097C004F0000E056E72
:10122000000E066E200E076E410E086EE6EC10F002
:1012300001C094F002C095F003C096F004C097F08E
:1012400000017007D8A071078A4B8B2B72518A5D01
:101250008B51800A406E7351800A4058D8B033EFEA
:1012600009F035EF09F043EF09F093BF41EF09F0C2
:10127000935109E14B0E925DD8A041EF09F043EF85
:1012800009F039EF08F06E516F11D8A44AEF09F058
:101290004CEF09F05DEF09F0CAA951EF09F053EFE7
:1012A00009F05DEF09F0000E9225D96E010E932131
:1012B000DA6E2E0EDF6E924B932B000E9225D96EB6
:1012C000010E9321DA6E000EDF6E650E8019D8A430
:1012D0006CEF09F06EEF09F0C8EF04F0000E8B6FB1
:1012E0004F0E8A6F000E8A25D96E010E8B21DA6EA1
:1012F000000EDF6E000E7B6F000E7A6F91BF85EFE0
:1013000009F083EF09F08DEF09F0000E7B6F010EFD
:101310007A6F906D911FD8B0912B000E7D6F020EE9
:101320007C6FBEEF09F08A07D8A08B07000E8A25D4
:10133000D96E010E8B21DA6E90C001F091C002F0DF
:10134000000E046E0A0E036EDCEC18F00150300F34
:10135000DF6E90C001F091C002F0000E046E0A0E24
:10136000036E7AEC18F001C090F002C091F0000119
:101370007C07D8A07D077E07D8A07F0790519111E8
:10138000D8A4C5EF09F0C7EF09F093EF09F07DBFCE
:10139000D4EF09F07D5106E17C05D8B0D2EF09F019
:1013A000D4EF09F093EF09F08A07D8A08B077A51A0
:1013B0007B11D8A4DEEF09F0E0EF09F0E6EF09F0C9
:1013C000000E676F2B0E666FEAEF09F0000E676F75
:1013D0002D0E666F000E8A25D96E010E8B21DA6EF6
:1013E00066C0DFFF7E07D8A07F078A07D8A08B07DB
:1013F000BF0E406EFF0E416E3F50426E436A40503A
:1014000042264150432243500AE11A0E425CD8A0C2
:101410000CEF0AF00FEF0AF0010E10EF0AF0000EC9
:101420006A6F6B6B6A516B11D8A419EF0AF01BEF4E
:101430000AF021EF0AF0000E696F650E686F25EF64
:101440000AF0000E696F450E686F000E8A25D96E8E
:10145000010E8B21DA6E68C0DFFF7E07D8A07F0700
:10146000000E9225016E010E9321026E000E8A2558
:10147000036E010E8B21046E19EC1AF0C8EF04F014
:1014800012000450800B0D6E045004240F6E03AE46
:101490004CEF0AF04EEF0AF04FEF0AF00F800F50BA
:1014A000D8B455EF0AF057EF0AF06CEF0AF00F28A6
:1014B000D8A45DEF0AF05FEF0AF067EF0AF0000EC4
:1014C000016E000E026E000E036E000E046E038E9F
:1014D000000E046E74EF0AF0000E016E000E026E34
:1014E000000E036E000E046E0850800B0E6E0D5041
:1014F0000E18D8B47EEF0AF080EF0AF081EF0AF000
:101500000D8C085008240E6E07AE89EF0AF08BEFA1
:101510000AF08CEF0AF00E800E50D8B492EF0AF069
:1015200094EF0AF0A9EF0AF00E28D8A49AEF0AF077
:101530009CEF0AF0A4EF0AF0000E056E000E066E96
:10154000000E076E000E086E078E000E086EB1EFDB
:101550000AF0000E056E000E066E000E076E000EFD
:10156000086E0F500E5CD8B0B8EF0AF0BAEF0AF070
:10157000E1EF0AF00DACBFEF0AF0C1EF0AF0C3EFE4
:101580000AF0800E0D1A0FC010F00EC00FF010C040
:101590000EF001C010F005C001F010C005F002C04F
:1015A00010F006C002F010C006F003C010F007C033
:1015B00003F010C007F004C010F008C004F010C021
:1015C00008F0000E106E0F500EC009F00A6A095E96
:1015D000000E0A5A0ABEF6EF0AF00A5009E11A0E86
:1015E000095CD8A0F6EF0AF0F8EF0AF02FEF0BF045
:1015F0000150021003100410D8A401EF0BF004EF07
:101600000BF0010E05EF0BF0000E106E000E016ED8
:10161000000E026E000E036E000E046E0EC00FF080
:1016200038EF0BF010A017EF0BF019EF0BF01FEFD6
:101630000BF0D89010300109106E21EF0BF0D8900C
:10164000103201A026EF0BF028EF0BF029EF0BF082
:10165000108E043404320332023201320F2A0E504B
:101660000F5CD8A036EF0BF038EF0BF012EF0BF059
:101670000DBC3DEF0BF03FEF0BF07FEF0BF00F5089
:10168000D8A445EF0BF047EF0BF051EF0BF0000E35
:10169000016E000E026E000E036E000E046EA0EFCF
:1016A0000CF0055001260650022207500322085074
:1016B000042204A05EEF0BF060EF0BF00CEF0CF0D7
:1016C00010A065EF0BF067EF0BF06DEF0BF0D8900B
:1016D00010300109106E6FEF0BF0D890103201A09E
:1016E00074EF0BF076EF0BF077EF0BF0108E043405
:1016F00004320332023201320F2A0CEF0CF0055093
:10170000015C06500258075003580450800A096EC5
:101710000850800A0958D8B090EF0BF092EF0BF008
:10172000BDEF0BF00150055C096E025006580A6EC1
:10173000035007580B6E045008580C6EFF0E092416
:10174000016EFF0E0A20026EFF0E0B20036EFF0ECD
:101750000C20046E800E0D1A106C1050D8A4B3EF3C
:101760000BF0B5EF0BF0C5EF0BF0010E0126000EEC
:10177000022203220422C5EF0BF00550015E065041
:10178000025A0750035A0850045A0150021003101D
:101790000410D8A4CEEF0BF0D0EF0BF005EF0CF057
:1017A0001050D8A4D6EF0BF0D8EF0BF005EF0CF0EB
:1017B000000E016E000E026E000E036E000E046E2F
:1017C000A0EF0CF0D890013602360336043610AE86
:1017D000ECEF0BF0EEEF0BF0EFEF0BF0018010A051
:1017E000F4EF0BF0F6EF0BF0FAEF0BF0D8801036B9
:1017F000FCEF0BF0D89010360F50D8B402EF0CF07D
:1018000004EF0CF005EF0CF00F0603AE0AEF0CF03E
:101810000CEF0CF0E2EF0BF0000E0E6E10AE13EFBB
:101820000CF015EF0CF02DEF0CF010C009F07F0E4E
:101830000916D8B41EEF0CF020EF0CF024EF0CF0DA
:10184000010E0E6E2DEF0CF001A029EF0CF02BEF26
:101850000CF02DEF0CF020EF0CF00E50D8B433EF5D
:101860000CF035EF0CF060EF0CF0010E0126000ECD
:1018700002220322042204A040EF0CF042EF0CF0FD
:1018800060EF0CF001C009F002C00AF003C00BF0D9
:1018900004C00CF00C340C320B320A32093209C08D
:1018A00001F00AC002F00BC003F00CC004F00F28D6
:1018B000D8B45DEF0CF05FEF0CF060EF0CF00F2A86
:1018C0000F28D8B466EF0CF068EF0CF070EF0CF056
:1018D0000F50D8A46EEF0CF070EF0CF082EF0CF00C
:1018E000000E016E000E026E000E036E000E046EFE
:1018F0000F50D8A47EEF0CF080EF0CF082EF0CF0CC
:10190000000E0D6E0FA087EF0CF089EF0CF08CEF3E
:101910000CF0038E8DEF0CF0039ED8900F30046E08
:101920000DAE95EF0CF097EF0CF098EF0CF0048EE5
:1019300001C001F002C002F003C003F004C004F0D3
:10194000120047C0D9FF48C0DAFFDECFF6FFDDCF77
:10195000F7FF0800F550250AD8A4B1EF0CF0B3EF5B
:101960000CF0B5EF0EF047C0D9FF48C0DAFFDE2A11
:10197000000EDD22000E0001C76F000EC66FC6C04C
:10198000CAF0C7C0CBF0C869C96947C0D9FF48C011
:10199000DAFFDECFF6FFDDCFF7FF0800F5502E0AA5
:1019A000D8A4D5EF0CF0D7EF0CF054EF0DF0000EEB
:1019B000C96F000EC86F47C0D9FF48C0DAFFDE2AE2
:1019C000000EDD2247C0D9FF48C0DAFFDECFF6FFA8
:1019D000DDCFF7FF0800F5502A0AD8A4F2EF0CF08B
:1019E000F4EF0CF011EF0DF047C0D9FF48C0DAFF5B
:1019F000DE2A000EDD2249C0D9FF4AC0DAFFDFCF60
:101A00004BF0020EDE26DFCF4CF0000EDD224BC085
:101A1000D9FF4CC0DAFFDECFC8F0DDCFC9F054EFFC
:101A20000DF047C0D9FF48C0DAFFDECF08F0DDCFA8
:101A300009F096EC14F008C0C8F009C0C9F028EF0E
:101A40000DF047C0D9FF48C0DAFFDE2A000EDD22C4
:101A5000D00E4B6EFF0E4C6E47C0D9FF48C0DAFF68
:101A6000DECFF6FFDDCFF7FF0800F5504D6E4E6A72
:101A70004B504D264C504E224E500AE10A0E4D5C02
:101A8000D8A045EF0DF048EF0DF0010E49EF0DF035
:101A9000000E4F6E506A4F505010D8A452EF0DF008
:101AA00054EF0DF021EF0DF047C0D9FF48C0DAFF29
:101AB000DECFF6FFDDCFF7FF0800F550076E086AAE
:101AC000BAEC19F00750576E5750D8B46AEF0DF0C2
:101AD0006CEF0DF0A4EF0DF047C0D9FF48C0DAFF5E
:101AE000DECF4BF0DDCF4CF0010E4B26000E4C222A
:101AF0004BC0F6FF4CC0F7FF0800F550076E086AB0
:101B0000BAEC19F00750586E5850D8B48AEF0DF05F
:101B10008CEF0DF0A4EF0DF047C0D9FF48C0DAFFFD
:101B2000DECF4BF0DDCF4CF0020E4B26000E4C22E8
:101B30004BC0F6FF4CC0F7FF0800F550076E086A6F
:101B4000BAEC19F00750596E660E5718D8A4ABEFCF
:101B50000DF0ADEF0DF0EDEF0DF047C0D9FF48C02F
:101B6000DAFFDECFF6FFDDCFF7FF0800F5CF5AF042
:101B700047C0D9FF48C0DAFFDE2A000EDD2249C087
:101B8000D9FF4AC0DAFFDFCF4BF0040EDE26DFCFED
:101B90004CF0000EDD224BC0D9FF4CC0DAFFDECF87
:101BA00053F0DECF54F0DECF55F0DECF56F045C017
:101BB00039F046C03AF053C03BF054C03CF055C039
:101BC0003DF056C03EF05AC03FF015EC04F039C06D
:101BD00045F03AC046F0D0EF0EF0570E016E000E01
:101BE000026E260E036E080E046E000E066E020EC6
:101BF000056EE2EC16F001500210D8A402EF0EF0D0
:101C000004EF0EF07FEF0EF047C0D9FF48C0DAFFB7
:101C1000DECF4BF0DDCF4CF0010E4B26000E4C22F8
:101C20004BC0F6FF4CC0F7FF0800F5CF5AF0BF0ECF
:101C30004B6EFF0E4C6E47C0D9FF48C0DAFFDECFB7
:101C4000F6FFDDCFF7FF0800F5504D6E4E6A4B50A2
:101C50004D264C504E224E500AE11A0E4D5CD8A033
:101C600034EF0EF037EF0EF0010E38EF0EF0000EED
:101C7000516E526A51505210D8B441EF0EF043EFFA
:101C80000EF05DEF0EF049C0D9FF4AC0DAFFDFCF9A
:101C90004BF0040EDE26DFCF4CF0000EDD224BC0F1
:101CA000D9FF4CC0DAFFDECF53F0DECF54F0DECFE9
:101CB00055F0DECF56F075EF0EF049C0D9FF4AC09F
:101CC000DAFFDFCF4BF0040EDE26DFCF4CF0000E44
:101CD000DD224BC0D9FF4CC0DAFFDECF53F0DECFA0
:101CE00054F0DECF55F0DECF56F0020E47C0D9FFDC
:101CF00048C0DAFFDE26000EDD22D7EF0DF047C028
:101D0000D9FF48C0DAFFDECFF6FFDDCFF7FF0800CE
:101D1000F550250AD8A48FEF0EF091EF0EF0A8EF42
:101D20000EF047C0D9FF48C0DAFFDE2A000EDD22E0
:101D3000000E026E250E016E45C003F046C004F091
:101D4000B2EC17F0000E466E010E456ED0EF0EF0AD
:101D500047C0D9FF48C0DAFFDE2A000EDD22000EA0
:101D6000466E000E456ED0EF0EF047C0D9FF48C05A
:101D7000DAFFDECFF6FFDDCFF7FF0800F550016E8A
:101D8000026A45C003F046C004F0B2EC17F047C049
:101D9000D9FF48C0DAFFDE2A000EDD22A2EF0EF0E6
:101DA00012001750800B206E17501724266E16AEA7
:101DB000DCEF0EF0DEEF0EF0DFEF0EF026802650A7
:101DC000D8B4E5EF0EF0E7EF0EF0FAEF0EF02628AC
:101DD000D8A4EDEF0EF0EFEF0EF0F7EF0EF0000EDF
:101DE000146E000E156E000E166E000E176E168E17
:101DF00002EF0FF0000E146E000E156E000E166E40
:101E0000000E176E1B50800B201A1B501B24256ED2
:101E10001AAE0DEF0FF00FEF0FF010EF0FF025805F
:101E20002550D8B416EF0FF018EF0FF02BEF0FF08E
:101E30002528D8A41EEF0FF020EF0FF028EF0FF0A9
:101E4000000E186E000E196E000E1A6E000E1B6E3C
:101E50001A8E33EF0FF0000E186E000E196E000E82
:101E60001A6E000E1B6E2550D8B439EF0FF03BEF01
:101E70000FF043EF0FF02650D8A441EF0FF043EFDF
:101E80000FF04DEF0FF0000E146E000E156E000EE9
:101E9000166E000E176EE5EF10F01A501402F3CF15
:101EA0002BF0F4CF2CF02B50216E226A236A246A87
:101EB0002C50276E286A296A2A6A19501502F3CF16
:101EC0002BF0F4CF2CF02B502126000E22222322BF
:101ED00024222C502726000E282229222A2218509C
:101EE0001602F3CF2BF0F4CF2CF02B502126000E4E
:101EF0002222232224222C502726000E28222922A7
:101F00002A2223C024F022C023F021C022F0216A1B
:101F100018501502F3CF2BF0F4CF2CF02B502126C4
:101F20002C502222000E2322000E242219501402CB
:101F3000F3CF2BF0F4CF2CF02B5021262C50222263
:101F4000000E2322000E242223C024F022C023F0FE
:101F500021C022F0216A18501402F3CF2BF0F4CFE5
:101F60002CF02B5021262C502222000E2322000E72
:101F700024221A501502F3CF2BF0F4CF2CF02B5063
:101F800027262C502822000E2922000E2A22195022
:101F90001602F3CF2BF0F4CF2CF02B5027262C5029
:101FA0002822000E2922000E2A221A501602F3CFF0
:101FB0002BF0F4CF2CF02B501C6E2C501D6E1E6A93
:101FC0001F6A1EC01FF01DC01EF01CC01DF01C6A41
:101FD0001C5027261D5028221E5029221F502A221D
:101FE00021C01CF022C01DF023C01EF024C01FF031
:101FF000190E00EF10F0D8901F321E321D321C3225
:10200000E82EFBEF0FF01C5027261D5028221E50F3
:1020100029221F502A2223C024F022C023F021C0ED
:1020200022F0216A255026C01CF01D6A1C26000ED5
:102030001D22820E1C242B6EFF0E1D202C6E36EFEF
:1020400010F0D8902736283629362A3624AE2BEFC2
:1020500010F02DEF10F02EEF10F02780D8902136E1
:102060002236233624362B06D8A02C0629AE3BEF89
:1020700010F03DEF10F021EF10F0000E256E24AEB1
:1020800044EF10F046EF10F06AEF10F0FF0E21144D
:102090001C6EFF0E22141D6EFF0E23141E6E7F0E8B
:1020A00024141F6E1C501D101E101F10D8B45BEF9F
:1020B00010F05DEF10F061EF10F0010E256E6AEF89
:1020C00010F027A066EF10F068EF10F06AEF10F044
:1020D0005DEF10F02550D8B470EF10F072EF10F0F3
:1020E00096EF10F0010E2726000E282229222A2220
:1020F0002AA07DEF10F07FEF10F096EF10F027C0D0
:102100001CF028C01DF029C01EF02AC01FF01F348B
:102110001F321E321D321C321CC027F01DC028F099
:102120001EC029F01FC02AF02B4A2C2A2CBEA1EF7A
:1021300010F02C5008E12B28D8A0A1EF10F0A3EF4D
:1021400010F0ADEF10F0000E276E000E286E800E1E
:10215000296E7F0E2A6EDBEF10F02CBEBAEF10F066
:102160002C5006E12B04D8B0B8EF10F0BAEF10F005
:10217000C6EF10F0000E276E000E286E000E296EBE
:10218000000E2A6E000E206EDBEF10F02BC026F042
:10219000FF0E2716FF0E28167F0E2916000E2A1690
:1021A00026A0D5EF10F0D7EF10F0D8EF10F0298E61
:1021B000D89026302A6E20502A1227C014F028C04A
:1021C00015F029C016F02AC017F012000450800B39
:1021D000116E04500424186E03AEF1EF10F0F3EF0B
:1021E00010F0F4EF10F018801850D8B4FAEF10F097
:1021F000FCEF10F011EF11F01828D8A402EF11F045
:1022000004EF11F00CEF11F0000E016E000E026EE3
:10221000000E036E000E046E038E000E046E19EFA6
:1022200011F0000E016E000E026E000E036E000E25
:10223000046E0850800B111A08500824196E07AE5E
:1022400024EF11F026EF11F027EF11F0198019504B
:10225000D8B42DEF11F02FEF11F044EF11F0192841
:10226000D8A435EF11F037EF11F03FEF11F0000E69
:10227000056E000E066E000E076E000E086E078ECD
:10228000000E086E4CEF11F0000E056E000E066E8B
:10229000000E076E000E086E05500610071008109D
:1022A000D8A455EF11F057EF11F06FEF11F0000EB9
:1022B000016E000E026E000E036E000E046E800EA4
:1022C00003127F0E04121150041201C001F002C06B
:1022D00002F003C003F004C004F0B2EF12F0185093
:1022E000D8A475EF11F077EF11F081EF11F0000E27
:1022F000016E000E026E000E036E000E046EB2EF51
:1023000012F0195018C009F00A6A095E000E0A5A44
:102310007F0E0924126E000E0A20136E01C00DF00C
:1023200002C00EF003C00FF004C010F0000E016EEA
:10233000000E026E000E036E000E046E000E146E90
:10234000000E156E000E166E000E176E000E196E42
:10235000E2EF11F01950D8B4B0EF11F0B2EF11F074
:10236000C9EF11F0D8900D360E360F361036D890D2
:10237000013602360336043617AEC1EF11F0C3EF53
:1023800011F0C4EF11F00180D890143615361636CE
:10239000173605500D5C06500E5807500F58085060
:1023A0001058D8A0D6EF11F0D8EF11F0E1EF11F0EE
:1023B000178C05500D5E06500E5A07500F5A0850E4
:1023C000105A192A190E1964E8EF11F0EAEF11F00A
:1023D000AAEF11F00D500E100F101010D8B4F3EF3B
:1023E00011F0F5EF11F00DEF12F014800DEF12F077
:1023F000D890013602360336043617AE02EF12F0DB
:1024000004EF12F005EF12F00180D8901436153663
:10241000163617361206D8A0130603AE12EF12F0C6
:1024200014EF12F0F8EF11F0000E196E17AE1BEF5B
:1024300012F01DEF12F041EF12F0FF0E1414096EAE
:10244000FF0E15140A6EFF0E16140B6E7F0E171476
:102450000C6E09500A100B100C10D8B432EF12F0A9
:1024600034EF12F038EF12F0010E196E41EF12F056
:1024700001A03DEF12F03FEF12F041EF12F034EF08
:1024800012F01950D8B447EF12F049EF12F06DEF87
:1024900012F0010E0126000E02220322042204A0E3
:1024A00054EF12F056EF12F06DEF12F001C009F088
:1024B00002C00AF003C00BF004C00CF00C340C3264
:1024C0000B320A32093209C001F00AC002F00BC017
:1024D00003F00CC004F0124A132A13BE78EF12F076
:1024E000135008E11228D8A078EF12F07AEF12F01A
:1024F00085EF12F0000E136E1268000E016E000ED2
:10250000026E000E036E000E046E13BE92EF12F008
:10251000135006E11204D8B090EF12F092EF12F0CF
:10252000A0EF12F0000E136E000E126E000E016E80
:10253000000E026E000E036E000E046E000E116E91
:1025400012C018F018A0A7EF12F0A9EF12F0ACEF2C
:1025500012F0038EADEF12F0039ED8901830046E87
:1025600063EF11F01200BCC02AF0BDC02BF0BEC05A
:102570002CF0BFC02DF01AC02AF01BC02BF01CC0DD
:102580002CF01DC02DF0810E1E6EFF0E1F6E2AC096
:1025900020F02BC021F02CC022F02DC023F0180E0B
:1025A000D7EF12F0D8902332223221322032E82E97
:1025B000D2EF12F020501E24286E000E1F20296E2C
:1025C00029BEECEF12F0295009E1170E285CD8A0C3
:1025D000ECEF12F0EEEF12F0F8EF12F01AC01AF072
:1025E0001BC01BF01CC01CF01DC01DF0BBEF13F086
:1025F00029BEFDEF12F0FFEF12F06FEF13F028C0CD
:102600001EF0FF0E1F6EFF0E206E7F0E216E000E5D
:10261000226E1E660EEF13F016EF13F022342232F4
:10262000213220321F321E2E09EF13F01FC024F07A
:1026300020C025F021C026F022C027F024502A1403
:102640001E6E25502B141F6E26502C14206E275002
:102650002D14216E1E501F1020102110D8A433EF0E
:1026600013F035EF13F037EF13F0EEEF12F02AC04E
:102670001EF02BC01FF02CC020F02DC021F0200E2A
:1026800047EF13F0D890213220321F321E32E82E4D
:1026900042EF13F01E501F1020102110D8B453EF3A
:1026A00013F055EF13F05DEF13F024502A26255058
:1026B0002B2226502C2227502D22241C1E6E251C36
:1026C0001F6E261C206E271C216E1E502A161F50BE
:1026D0002B1620502C1621502D16B3EF13F02AC0C4
:1026E0001EF02BC01FF02CC020F02DC021F0200EBA
:1026F0007FEF13F0D890213220321F321E32E82EA5
:102700007AEF13F01E501F1020102110D8A48BEF69
:1027100013F08DEF13F097EF13F0000E2A6E000EFA
:102720002B6E000E2C6E000E2D6EB3EF13F0D890B2
:102730002A341E6E2B341F6E2C34206E2D34216EE5
:102740001E501F1020102110D8B4A9EF13F0ABEFCA
:1027500013F0B3EF13F0000E2A6E000E2B6E800EF6
:102760002C6EBF0E2D6E2AC01AF02BC01BF02CC091
:102770001CF02DC01DF012000E6E0E50D8B4C3EF29
:1027800013F0C5EF13F0E7EF13F009BECCEF13F031
:10279000CAEF13F0E7EF13F006C00AF007C00BF022
:1027A00008C00CF009C00DF00A1E0B1E0C1E0D1EF9
:1027B0000A2A000E0B220C220D220AC010F00BC0B8
:1027C00011F00CC012F00DC013F0EFEF13F006C0C3
:1027D00010F007C011F008C012F009C013F0065045
:1027E000071008100910D8A4F8EF13F0FAEF13F04F
:1027F00004EF14F0000E066E000E076E000E086E59
:10280000000E096E95EF14F0960E0F6E0EEF14F099
:102810000F2AD8901332123211321032000E1014D7
:102820000A6E000E11140B6E000E12140C6EFE0ECA
:1028300013140D6E0A500B100C100D10D8A423EFBA
:1028400014F025EF14F008EF14F033EF14F00F2A12
:10285000010E1026000E112212221322D8901332DC
:10286000123211321032000E10140A6E000E1114C2
:102870000B6E000E12140C6EFF0E13140D6E0A5028
:102880000B100C100D10D8A448EF14F04AEF14F000
:1028900027EF14F052EF14F00F06D89010361136CF
:1028A0001236133612BE57EF14F059EF14F061EFE1
:1028B00014F0020E0F605FEF14F061EF14F04CEFB4
:1028C00014F00FB066EF14F068EF14F069EF14F035
:1028D000129ED8900F320FC00AF00B6A0C6A0D6A74
:1028E0000AC00DF00C6A0B6A0A6A0A5010120B50EB
:1028F00011120C5012120D5013120E50D8B483EF57
:1029000014F085EF14F08DEF14F009BE8CEF14F085
:102910008AEF14F08DEF14F0138E10C006F011C082
:1029200007F012C008F013C009F01200000E166E76
:10293000000E156E000E0F6E000E0E6EA2EF14F05C
:10294000084A092A010E146E08C0F6FF09C0F7FFF5
:102950000800F550200AD8B4B0EF14F0B2EF14F02C
:10296000CFEF14F0F70E0A6EFF0E0B6E08C0F6FFE5
:1029700009C0F7FF0800F5500C6E0D6A0A500C26CE
:102980000B500D220D5009E1050E0C5CD8A0CBEFC9
:1029900014F0CDEF14F0CFEF14F0000E146E14C04D
:1029A00010F0116A10501110D8A4D9EF14F0DBEF19
:1029B00014F0A0EF14F0E5EF14F0000E0F6E010E0E
:1029C0000E6E084A092A1AEF15F008C0F6FF09C072
:1029D000F7FF0800F5500A6E0B6A0B50000AD8B4D6
:1029E000F4EF14F01AEF15F00A502B0AD8B4E1EF07
:1029F00014F0060AD8B4DDEF14F01AEF15F015C084
:102A000001F016C002F0000E046E0A0E036EF2EC26
:102A10001BF008C0F6FF09C0F7FF0800F550015E83
:102A2000000E025A300E0124156E000E0220166EA2
:102A3000E1EF14F0D00E0A6EFF0E0B6E08C0F6FF29
:102A400009C0F7FF0800F5500C6E0D6A0A500C26FD
:102A50000B500D220D500AE10A0E0C5CD8A033EF8A
:102A600015F036EF15F0010E37EF15F0000E126E6F
:102A7000136A12501310D8A440EF15F042EF15F06E
:102A8000FFEF14F00E500F10D8A449EF15F04BEFE4
:102A900015F059EF15F015C00AF016C00BF00A1E1C
:102AA0000B1E0A4A0B2A0AC008F00BC009F05DEFA2
:102AB00015F015C008F016C009F0120003340434F4
:102AC0000A6E0A50D8A467EF15F069EF15F073EF9E
:102AD00015F0000E016E000E026E000E036E000E69
:102AE000046EE0EF15F001C005F002C006F003C06F
:102AF00007F004C008F0200E83EF15F0D8900832DC
:102B0000073206320532E82E7EEF15F00550096EC9
:102B1000038EFF0E0116FF0E0216FF0E0316000EA7
:102B20000416960E0A5E0ABE9AEF15F098EF15F09D
:102B3000B0EF15F00A50800A970FD8B0A2EF15F049
:102B4000A4EF15F0A6EF15F069EF15F0D890043258
:102B50000332023201320A3EA6EF15F0C8EF15F03B
:102B60001F0E0A64B6EF15F0B8EF15F0C0EF15F0C0
:102B700069EF15F0D89001360236033604360A069E
:102B80000A50D8A4C6EF15F0C8EF15F0BAEF15F04B
:102B90000950D8B4CEEF15F0D0EF15F0D8EF15F0FE
:102BA000041E031E021E016C000E022203220422D8
:102BB00001C001F002C002F003C003F004C004F041
:102BC0001200000E2D14356E000E2E14366E800E7F
:102BD0002F14376E7F0E3014386E35503610371084
:102BE0003810D8A4F6EF15F0F8EF15F000EF16F056
:102BF000000E2D6E000E2E6E000E2F6E000E306E2B
:102C0000000E3114356E000E3214366E800E331401
:102C1000376E7F0E3414386E35503610371038103A
:102C2000D8A415EF16F017EF16F01FEF16F0000EF0
:102C3000316E000E326E000E336E000E346E30AE0A
:102C400024EF16F026EF16F02FEF16F02D6C2E1E47
:102C5000D8B02E2A2F1ED8B02F2A800E305634AE70
:102C600034EF16F036EF16F03FEF16F0316C321EEF
:102C7000D8B0322A331ED8B0332A800E3456000E14
:102C80002D1A000E2E1A000E2F1A800E301A000E6A
:102C9000311A000E321A000E331A800E341A3150D7
:102CA0002D5C32502E5833502F5834503058D8B0F5
:102CB0005CEF16F05EEF16F061EF16F0D89062EF61
:102CC00016F0D8801200C0C00BF0C1C00CF0C2C01A
:102CD0000DF0C3C00EF001C00BF002C00CF003C039
:102CE0000DF004C00EF00BC005F00CC006F00DC0D6
:102CF00007F00EC008F0180E83EF16F0D8900832D7
:102D0000073206320532E82E7EEF16F00550096EC6
:102D10000A6A09500A10D8A490EF16F092EF16F044
:102D2000B2EF16F0D8900B34056E0C34066E0D34ED
:102D3000076E0E34086E0550061007100810D8A450
:102D4000A4EF16F0A6EF16F0ACEF16F0000E026E30
:102D5000020E016EE1EF16F0000E026E030E016E20
:102D6000E1EF16F009280A10D8A4B9EF16F0BBEF6E
:102D700016F0DDEF16F00BC005F00CC006F00DC02C
:102D800007F00EC008F0090ED89005360636073653
:102D90000836E82EC4EF16F005500610071008108C
:102DA000D8B4D5EF16F0D8EF16F0010ED9EF16F023
:102DB000000E016E026AE1EF16F0000E026E040EC4
:102DC000016E120001C008F002C009F003C00AF051
:102DD00004C00BF00506D8A00606052806E1062863
:102DE000D8A4F5EF16F0F7EF16F004EF17F0000E89
:102DF000026E000E016E4CEF17F0084A092A0A4ACB
:102E00000B2A0506D8A0060608C0D9FF09C0DAFFBC
:102E1000DF50D8B40EEF17F010EF17F03BEF17F0BC
:102E20000AC0F6FF0BC0F7FF0800F5500009D8B440
:102E30001CEF17F01EEF17F03BEF17F005500610D0
:102E4000D8B425EF17F027EF17F03BEF17F008C0C5
:102E5000D9FF09C0DAFFDF50076E0AC0F6FF0BC0CA
:102E6000F7FF0800F5500718D8B439EF17F03BEF1B
:102E700017F0FDEF16F008C0D9FF09C0DAFFDF50E8
:102E8000076E0AC0F6FF0BC0F7FF0800F550075C9D
:102E9000016E026AD8A002061200720ED36E010EF5
:102EA00016EC1CF0C1EC1BF0000E036E000E47EC9C
:102EB0001AF0010E036E080E046EEAEC19F0000E13
:102EC000DBEC1BF001C006F002C007F0086A096ADB
:102ED000000EBCEC13F006C014F007C015F008C0DB
:102EE00016F009C017F00A0E186E280E196EA00E03
:102EF0001A6E3B0E1B6ED1EC0EF014C0B8F015C06C
:102F0000B9F016C0BAF017C0BBF0B00E00019E6F4A
:102F1000000E9F6F0F0EA06F080EA16FB8C0A2F039
:102F2000B9C0A3F0BAC0A4F0BBC0A5F072EC1AF00F
:102F3000010E036E000E47EC1AF0B00E036E000E89
:102F4000046EEAEC19F0060E5E6E130E5D6EAE0EA8
:102F5000E82EFED75D2EFCD75E2EFAD75FEF17F076
:102F600000EF00F003500410D8B4B9EF17F0BBEF36
:102F700017F0C4EF17F003500410D8A4C2EF17F0F5
:102F8000C4EF17F0C9EF17F0015022EC1CF016EF58
:102F900018F020EE04F00350D9260450DA22DE5057
:102FA000DE10D8B4D6EF17F0D8EF17F0F3EF17F024
:102FB00020EE04F00350D9260450DA2210EE02F07D
:102FC0000350E1260450E222DE50E65CE650800A1F
:102FD000096EDE50800A0958D8B0F1EF17F0F3EF10
:102FE00017F016EF18F020EE02F00350D926045027
:102FF000DA22DECF05F0DDCF06F003C0D9FF04C032
:10300000DAFFDECF07F0DDCF08F005500724D96ED8
:1030100006500820DA6E01C0DFFF20EE02F00350F8
:10302000D9260450DA22DE2A000EDD221200000129
:10303000CAA11DEF18F01FEF18F029EF18F013C008
:103040000AF014C00BF011C00CF012C00DF00FEC20
:103050001BF016BE2EEF18F030EF18F036EF18F018
:1030600015C01AF016C01BF03AEF18F0000E1B6ED8
:10307000000E1A6E000E196E000E186E4CEF18F04E
:10308000000E026E200E016E11C003F012C004F09B
:10309000B2EC17F0184A192A1A50185C1950800A15
:1030A000176E1B50800A1758D8A059EF18F05BEF25
:1030B00018F040EF18F00001CAB161EF18F063EFAB
:1030C00018F06DEF18F013C00AF014C00BF011C027
:1030D0000CF012C00DF00FEC1BF013C001F014C087
:1030E00002F0A6EC1BF01A500124116E1B500220B6
:1030F000126E1200000E066E04BE83EF18F081EF10
:1031000018F089EF18F0036C041ED8B0042A010EE1
:10311000066E02BE90EF18F08EEF18F096EF18F0E2
:10312000016C021ED8B0022A010E061A000E086EAB
:10313000000E076E03500410D8B4A1EF18F0A3EFEF
:1031400018F0CBEF18F0010E056EABEF18F0D89029
:1031500003360436052A04AEB0EF18F0B2EF18F0CB
:10316000A7EF18F0D890073608360350015C0450DA
:103170000258D8A0BEEF18F0C0EF18F0C5EF18F055
:103180000350015E0450025A0780D8900432033283
:10319000052EB2EF18F00650D8B4D1EF18F0D3EFE7
:1031A00018F0D7EF18F0076C081ED8B0082A07C02F
:1031B00001F008C002F01200000E066E02BEE5EF3C
:1031C00018F0E3EF18F0EBEF18F0016C021ED8B026
:1031D000022A010E066E04BEF2EF18F0F0EF18F0AE
:1031E000F6EF18F0036C041ED8B0042A0350041044
:1031F000D8B4FDEF18F0FFEF18F023EF19F0010E2F
:10320000056E07EF19F0D89003360436052A04AE90
:103210000CEF19F00EEF19F003EF19F00350015CF9
:1032200004500258D8A017EF19F019EF19F01DEF4C
:1032300019F00350015E0450025AD8900432033250
:10324000052E0EEF19F00650D8B429EF19F02BEF28
:1032500019F02FEF19F0016C021ED8B0022A01C03C
:1032600001F002C002F01200000E0114096E000EFF
:1032700002140A6E800E03140B6E7F0E04140C6E83
:1032800009500A100B100C10D8A449EF19F04BEF9D
:1032900019F053EF19F0000E016E000E026E000ED1
:1032A000036E000E046E000E0514096E000E061467
:1032B0000A6E800E07140B6E7F0E08140C6E0950F8
:1032C0000A100B100C10D8A468EF19F06AEF19F06F
:1032D00072EF19F0000E056E000E066E000E076EFE
:1032E000000E086E055001180FE1065002180CE19F
:1032F0000750031809E108500418D8B482EF19F0F8
:1033000084EF19F087EF19F0D89088EF19F0D88082
:1033100012009AC05BF09BC05CF0000E0001C56F0C
:10332000000EC46FA7EF19F098C045F099C046F0A1
:103330005B0E476E000E486E9CC049F09DC04AF07F
:10334000A1EC0CF045500001C4274650C5235BC0DA
:10335000F6FF5CC0F7FF0800F5500009D8A4B3EFF2
:1033600019F0B5EF19F094EF19F0C4C098F0C5C08A
:1033700099F01200BF0E096EFF0E0A6E07C00BF027
:1033800008C00CF009500B260A500C220C500AE120
:103390001A0E0B5CD8A0CFEF19F0D2EF19F0010E86
:1033A000D3EF19F0000E0D6E0E6A0D500E10D8B44A
:1033B000DCEF19F0DEEF19F0E5EF19F0200E071041
:1033C000076E0850086EE9EF19F007C007F008C053
:1033D00008F0120000EF1AF003C0F6FF04C0F7FF78
:1033E000F86A070EF76403D00800F55005D0F6CF51
:1033F000E1FFF7CFE2FFE75031EC1BF0034A042A6C
:1034000003C0F6FF04C0F7FFF86A070EF76403D0A5
:103410000800F55005D0F6CFE1FFF7CFE2FFE75007
:103420000009D8A416EF1AF018EF1AF0ECEF19F013
:10343000120003C007F004C008F001C009F002C088
:103440000AF00750056E0850066E074A082A05C0A4
:10345000F6FF06C0F7FFF86A09C0D9FF0AC0DAFF15
:10346000094A0A2A070EF76403D00800F55005D070
:10347000F6CFE1FFF7CFE2FFE750DF6EDF50D8A4D1
:1034800044EF1AF046EF1AF021EF1AF01200066E20
:103490005CEF1AF006500F0B8009076E0750C4EC62
:1034A0001AF071EF1AF006500F0BC009076E0750A3
:1034B000C4EC1AF071EF1AF00350046E056A05505F
:1034C000000AD8B466EF1AF071EF1AF00450000A3F
:1034D000D8B44AEF1AF0010AD8B453EF1AF071EFDA
:1034E0001AF01200A20E0001A86F000EA96F9EC074
:1034F000AAF09FC0ABF0000EAD6F000EAC6F000ED7
:10350000AF6F000EAE6FAA0E986F000E996FA0C03D
:103510009AF0A1C09BF0A80E9C6F000E9D6F89ECE5
:1035200019F00001AC519E25D96EAD519F21DA6E84
:10353000000EDF6E1200010E076E200E0118021041
:10354000D8B4A5EF1AF0A7EF1AF0C0EF1AF0F70EF3
:10355000036EFF0E046E01C005F002C006F00350BA
:10356000052604500622065009E1050E055CD8A088
:10357000BCEF1AF0BEEF1AF0C0EF1AF0000E076EA3
:1035800007C001F0026A1200026E02C001F0F00EE4
:1035900001168C500F0B01108C6E8C948C8600F0F1
:1035A0008C96030E016E980EE82EFED7012EFCD7E6
:1035B00002C001F0013AF00E01168C500F0B011001
:1035C0008C6E8C8600F08C96080E016ECA0EE82E6A
:1035D000FED7012EFCD71200000E311A000E321A4F
:1035E000000E331A800E341A2DC001F02EC002F0E6
:1035F0002FC003F030C004F031C005F032C006F037
:1036000033C007F034C008F041EC0AF001C02DF0DF
:1036100002C02EF003C02FF004C030F01200000EE4
:10362000106E000E0F6E20EF1BF00EC001F0026A4C
:103630000CC003F00DC004F0B2EC17F00F4A102AD2
:103640000F500A24D96E10500B20DA6EDF500E6E28
:103650000E50D8A42EEF1BF030EF1BF015EF1BF02F
:103660001200026E02C001F0F00E01168C500F0B1A
:1036700001108C6E8C848C8600F08C9602C001F058
:10368000013AF00E01168C500F0B01108C6E8C86D7
:1036900000F08C96080E016ECA0EE82EFED7012EA1
:1036A000FCD71200BF0E036EFF0E046E01C005F0C2
:1036B00002C006F0035005260450062206500AE117
:1036C0001A0E055CD8A067EF1BF06AEF1BF0010E25
:1036D0006BEF1BF0000E016E026A12000150021027
:1036E00003100410D8B477EF1BF079EF1BF081EFD3
:1036F0001BF0000E011A000E021A000E031A800EB3
:10370000041A01C001F002C002F003C003F004C0BB
:1037100004F01200D00E036EFF0E046E01C005F01F
:1037200002C006F0035005260450062206500AE1A6
:103730000A0E055CD8A09FEF1BF0A2EF1BF0010E54
:10374000A3EF1BF0000E016E026A120001C003F02D
:1037500002C004F0AEEF1BF0014A022A01C0D9FFFB
:1037600002C0DAFFDF50D8A4B8EF1BF0BAEF1BF0AD
:10377000ACEF1BF00350015C016E04500258026E66
:103780001200270E036EF50EE82EFED7032EFCD78F
:1037900000F0030E9516020EC4EC1AF0280EC4ECCD
:1037A0001AF0010EC4EC1AF00C0EC4EC1AF0060E5E
:1037B000C4EC1AF01200056E0544E846FC0BC26E1C
:1037C000C280C282C2B2E7EF1BF0E9EF1BF0E2EF6A
:1037D0001BF0C3CF03F0C4CF04F003C001F004C05A
:1037E00002F0120001500302F3CF05F0F4CF06F00F
:1037F00001500402F350062602500302F35006263D
:1038000005C001F006C002F0120001EE00F0500EFB
:10381000EE6AE806FDE100EEBCF0100EEE6AE80686
:10382000FDE1000EF86E00014DEF17F0016E015042
:10383000FF0A0F0BC16E910EC06E000EC46E000E1B
:06384000C36E120012002D
:020000040020DA
:08000000FFFFFFFFFFFFFFFF00
:020000040030CA
:0E00000000081F1EFF0181FF0FC00FE00F4020
:00000001FF
