:0400000093EF0CF07E
:1008000000496E677265736173746520756E20644C
:1008100061746F206572726F6E656F0031202D3EBE
:10082000204C656420656E63656E6469646F00309A
:10083000202D3E204C6564206170616761646F000B
:0108400000B7
:100842004450800B4D6E445044244F6E43AE2CEF07
:1008520004F02EEF04F02FEF04F04F804F50D8B485
:1008620035EF04F037EF04F04CEF04F04F28D8A432
:100872003DEF04F03FEF04F047EF04F0000E416E4D
:10088200000E426E000E436E000E446E438E000E4A
:10089200446E54EF04F0000E416E000E426E000EE4
:1008A200436E000E446E4850800B4E6E4D504E18F3
:1008B200D8B45EEF04F060EF04F061EF04F04D8C09
:1008C200485048244E6E47AE69EF04F06BEF04F0D7
:1008D2006CEF04F04E804E50D8B472EF04F074EF17
:1008E20004F089EF04F04E28D8A47AEF04F07CEFEC
:1008F20004F084EF04F0000E456E000E466E000E0A
:10090200476E000E486E478E000E486E91EF04F05F
:10091200000E456E000E466E000E476E000E486ECB
:100922004F504E5CD8B098EF04F09AEF04F0C1EF4C
:1009320004F04DAC9FEF04F0A1EF04F0A3EF04F03C
:10094200800E4D1A4FC050F04EC04FF050C04EF0C6
:1009520041C050F045C041F050C045F042C050F097
:1009620046C042F050C046F043C050F047C043F08A
:1009720050C047F044C050F048C044F050C048F066
:10098200000E506E4F504EC049F04A6A495E000E4A
:100992004A5A4ABED6EF04F04A5009E11A0E495C9F
:1009A200D8A0D6EF04F0D8EF04F00FEF05F04150D5
:1009B200421043104410D8A4E1EF04F0E4EF04F035
:1009C200010EE5EF04F0000E506E000E416E000EB7
:1009D200426E000E436E000E446E4EC04FF018EF92
:1009E20005F050A0F7EF04F0F9EF04F0FFEF04F088
:1009F200D89050300109506E01EF05F0D890503276
:100A020041A006EF05F008EF05F009EF05F0508E62
:100A1200443444324332423241324F2A4E504F5CC8
:100A2200D8A016EF05F018EF05F0F2EF04F04DBC78
:100A32001DEF05F01FEF05F05FEF05F04F50D8A452
:100A420025EF05F027EF05F031EF05F0000E416EBE
:100A5200000E426E000E436E000E446E80EF06F0F2
:100A62004550412646504222475043224850442294
:100A720044A03EEF05F040EF05F0ECEF05F050A08A
:100A820045EF05F047EF05F04DEF05F0D8905030F7
:100A92000109506E4FEF05F0D890503241A054EF4B
:100AA20005F056EF05F057EF05F0508E443444320E
:100AB2004332423241324F2AECEF05F04550415C5D
:100AC20046504258475043584450800A496E485055
:100AD200800A4958D8B070EF05F072EF05F09DEF2B
:100AE20005F04150455C496E425046584A6E4350AB
:100AF20047584B6E445048584C6EFF0E4924416E85
:100B0200FF0E4A20426EFF0E4B20436EFF0E4C201A
:100B1200446E800E4D1A506C5050D8A493EF05F0DD
:100B220095EF05F0A5EF05F0010E4126000E4222D9
:100B320043224422A5EF05F04550415E4650425AF9
:100B42004750435A4850445A4150421043104410AF
:100B5200D8A4AEEF05F0B0EF05F0E5EF05F0505088
:100B6200D8A4B6EF05F0B8EF05F0E5EF05F0000EFA
:100B7200416E000E426E000E436E000E446E80EF18
:100B820006F0D890413642364336443650AECCEF6A
:100B920005F0CEEF05F0CFEF05F0418050A0D4EF85
:100BA20005F0D6EF05F0DAEF05F0D8805036DCEF2D
:100BB20005F0D89050364F50D8B4E2EF05F0E4EF8C
:100BC20005F0E5EF05F04F0643AEEAEF05F0ECEF76
:100BD20005F0C2EF05F0000E4E6E50AEF3EF05F0D9
:100BE200F5EF05F00DEF06F050C049F07F0E491603
:100BF200D8B4FEEF05F000EF06F004EF06F0010EA8
:100C02004E6E0DEF06F041A009EF06F00BEF06F075
:100C12000DEF06F000EF06F04E50D8B413EF06F0D9
:100C220015EF06F040EF06F0010E4126000E4222BB
:100C32004322442244A020EF06F022EF06F040EFC8
:100C420006F041C049F042C04AF043C04BF044C0F4
:100C52004CF04C344C324B324A32493249C041F0AA
:100C62004AC042F04BC043F04CC044F04F28D8B4C5
:100C72003DEF06F03FEF06F040EF06F04F2A4F2817
:100C8200D8B446EF06F048EF06F050EF06F04F50AA
:100C9200D8A44EEF06F050EF06F062EF06F0000E19
:100CA200416E000E426E000E436E000E446E4F50B7
:100CB200D8A45EEF06F060EF06F062EF06F0000ED9
:100CC2004D6E4FA067EF06F069EF06F06CEF06F08D
:100CD200438E6DEF06F0439ED8904F30446E4DAE7A
:100CE20075EF06F077EF06F078EF06F0448E41C01C
:100CF20041F042C042F043C043F044C044F012000D
:100D02001250800B1B6E12501224216E11AE8CEF0A
:100D120006F08EEF06F08FEF06F021802150D8B456
:100D220095EF06F097EF06F0AAEF06F02128D8A477
:100D32009DEF06F09FEF06F0A7EF06F0000E0F6E94
:100D4200000E106E000E116E000E126E118EB2EFBA
:100D520006F0000E0F6E000E106E000E116E000EE9
:100D6200126E1650800B1B1A16501624206E15AEEA
:100D7200BDEF06F0BFEF06F0C0EF06F02080205076
:100D8200D8B4C6EF06F0C8EF06F0DBEF06F0202875
:100D9200D8A4CEEF06F0D0EF06F0D8EF06F0000EA2
:100DA200136E000E146E000E156E000E166E158E6A
:100DB200E3EF06F0000E136E000E146E000E156EB9
:100DC200000E166E2050D8B4E9EF06F0EBEF06F0F5
:100DD200F3EF06F02150D8A4F1EF06F0F3EF06F09E
:100DE200FDEF06F0000E0F6E000E106E000E116E7B
:100DF200000E126E95EF08F015500F02F3CF26F099
:100E0200F4CF27F026501C6E1D6A1E6A1F6A2750F7
:100E1200226E236A246A256A14501002F3CF26F048
:100E2200F4CF27F026501C26000E1D221E221F2260
:100E320027502226000E232224222522135011029B
:100E4200F3CF26F0F4CF27F026501C26000E1D22E9
:100E52001E221F2227502226000E23222422252270
:100E62001EC01FF01DC01EF01CC01DF01C6A1350D6
:100E72001002F3CF26F0F4CF27F026501C2627507D
:100E82001D22000E1E22000E1F2214500F02F3CF4D
:100E920026F0F4CF27F026501C2627501D22000EE4
:100EA2001E22000E1F221EC01FF01DC01EF01CC0FD
:100EB2001DF01C6A13500F02F3CF26F0F4CF27F077
:100EC20026501C2627501D22000E1E22000E1F2215
:100ED20015501002F3CF26F0F4CF27F02650222629
:100EE20027502322000E2422000E25221450110224
:100EF200F3CF26F0F4CF27F02650222627502322C4
:100F0200000E2422000E252215501102F3CF26F0E6
:100F1200F4CF27F02650176E2750186E196A1A6AF6
:100F220019C01AF018C019F017C018F0176A175034
:100F3200222618502322195024221A5025221CC07E
:100F420017F01DC018F01EC019F01FC01AF0190EBC
:100F5200B0EF07F0D8901A32193218321732E82E51
:100F6200ABEF07F0175022261850232219502422E3
:100F72001A5025221EC01FF01DC01EF01CC01DF0FD
:100F82001C6A205021C017F0186A1726000E18227A
:100F9200820E1724266EFF0E1820276EE6EF07F04A
:100FA200D89022362336243625361FAEDBEF07F0E3
:100FB200DDEF07F0DEEF07F02280D8901C361D36F9
:100FC2001E361F362606D8A0270624AEEBEF07F002
:100FD200EDEF07F0D1EF07F0000E206E1FAEF4EF39
:100FE20007F0F6EF07F01AEF08F0FF0E1C14176E69
:100FF200FF0E1D14186EFF0E1E14196E7F0E1F14A5
:101002001A6E1750181019101A10D8B40BEF08F0F6
:101012000DEF08F011EF08F0010E206E1AEF08F044
:1010220022A016EF08F018EF08F01AEF08F00DEF03
:1010320008F02050D8B420EF08F022EF08F046EF75
:1010420008F0010E2226000E23222422252225A0AA
:101052002DEF08F02FEF08F046EF08F022C017F04E
:1010620023C018F024C019F025C01AF01A341A321D
:1010720019321832173217C022F018C023F019C0E3
:1010820024F01AC025F0264A272A27BE51EF08F07D
:10109200275008E12628D8A051EF08F053EF08F0B6
:1010A2005DEF08F0000E226E000E236E800E246E9D
:1010B2007F0E256E8BEF08F027BE6AEF08F02750EF
:1010C20006E12604D8B068EF08F06AEF08F076EF80
:1010D20008F0000E226E000E236E000E246E000E2B
:1010E200256E000E1B6E8BEF08F026C021F0FF0E5E
:1010F2002216FF0E23167F0E2416000E251621A09F
:1011020085EF08F087EF08F088EF08F0248ED8907A
:101112002130256E1B50251222C00FF023C010F083
:1011220024C011F025C012F012002B50800B386E33
:101132002B502B243F6E2AAEA1EF08F0A3EF08F04C
:10114200A4EF08F03F803F50D8B4AAEF08F0ACEF0C
:1011520008F0C1EF08F03F28D8A4B2EF08F0B4EFCE
:1011620008F0BCEF08F0000E286E000E296E000E8B
:101172002A6E000E2B6E2A8E000E2B6EC9EF08F01F
:10118200000E286E000E296E000E2A6E000E2B6EC7
:101192002F50800B381A2F502F24406E2EAED4EFD2
:1011A20008F0D6EF08F0D7EF08F040804050D8B4EE
:1011B200DDEF08F0DFEF08F0F4EF08F04028D8A4E4
:1011C200E5EF08F0E7EF08F0EFEF08F0000E2C6E05
:1011D200000E2D6E000E2E6E000E2F6E2E8E000E45
:1011E2002F6EFCEF08F0000E2C6E000E2D6E000E1E
:1011F2002E6E000E2F6E2C502D102E102F10D8A4F4
:1012020005EF09F007EF09F01FEF09F0000E286E55
:10121200000E296E000E2A6E000E2B6E800E2A1210
:101222007F0E2B1238502B1228C028F029C029F02B
:101232002AC02AF02BC02BF062EF0AF03F50D8A44C
:1012420025EF09F027EF09F031EF09F0000E286EC3
:10125200000E296E000E2A6E000E2B6E62EF0AF04F
:1012620040503FC030F0316A305E000E315A7F0E7E
:101272003024396E000E31203A6E28C034F029C075
:1012820035F02AC036F02BC037F0000E286E000E63
:10129200296E000E2A6E000E2B6E000E3B6E000EA3
:1012A2003C6E000E3D6E000E3E6E000E406E92EFE2
:1012B20009F04050D8B460EF09F062EF09F079EF1D
:1012C20009F0D8903436353636363736D890283647
:1012D20029362A362B363EAE71EF09F073EF09F04C
:1012E20074EF09F02880D8903B363C363D363E36C6
:1012F2002C50345C2D5035582E5036582F503758BC
:10130200D8A086EF09F088EF09F091EF09F03E8C42
:101312002C50345E2D50355A2E50365A2F50375A93
:10132200402A190E406498EF09F09AEF09F05AEF3B
:1013320009F03450351036103710D8B4A3EF09F045
:10134200A5EF09F0BDEF09F03B80BDEF09F0D890A1
:10135200283629362A362B363EAEB2EF09F0B4EFE4
:1013620009F0B5EF09F02880D8903B363C363D367F
:101372003E363906D8A03A062AAEC2EF09F0C4EFCB
:1013820009F0A8EF09F0000E406E3EAECBEF09F077
:10139200CDEF09F0F1EF09F0FF0E3B14306EFF0EB6
:1013A2003C14316EFF0E3D14326E7F0E3E14336ECE
:1013B2003050311032103310D8B4E2EF09F0E4EFBC
:1013C20009F0E8EF09F0010E406EF1EF09F028A0F4
:1013D200EDEF09F0EFEF09F0F1EF09F0E4EF09F0BA
:1013E2004050D8B4F7EF09F0F9EF09F01DEF0AF019
:1013F200010E2826000E29222A222B222BA004EFDE
:101402000AF006EF0AF01DEF0AF028C030F029C0FA
:1014120031F02AC032F02BC033F03334333232325F
:101422003132303230C028F031C029F032C02AF0D7
:1014320033C02BF0394A3A2A3ABE28EF0AF03A5022
:1014420008E13928D8A028EF0AF02AEF0AF035EF90
:101452000AF0000E3A6E3968000E286E000E296EF0
:10146200000E2A6E000E2B6E3ABE42EF0AF03A5080
:1014720006E13904D8B040EF0AF042EF0AF050EF2B
:101482000AF0000E3A6E000E396E000E286E000E43
:10149200296E000E2A6E000E2B6E000E386E39C0B9
:1014A2003FF03FA057EF0AF059EF0AF05CEF0AF065
:1014B2002A8E5DEF0AF02A9ED8903F302B6E13EFF2
:1014C20009F01200096E0950D8B46AEF0AF06CEF05
:1014D2000AF08EEF0AF004BE73EF0AF071EF0AF021
:1014E2008EEF0AF001C005F002C006F003C007F05B
:1014F20004C008F0051E061E071E081E052A000E5F
:1015020006220722082205C00BF006C00CF007C015
:101512000DF008C00EF096EF0AF001C00BF002C009
:101522000CF003C00DF004C00EF0015002100310C5
:101532000410D8A49FEF0AF0A1EF0AF0ABEF0AF073
:10154200000E016E000E026E000E036E000E046E9F
:101552003CEF0BF0960E0A6EB5EF0AF00A2AD8900D
:101562000E320D320C320B32000E0B14056E000ED1
:101572000C14066E000E0D14076EFE0E0E14086E8D
:101582000550061007100810D8A4CAEF0AF0CCEFD5
:101592000AF0AFEF0AF0DAEF0AF00A2A010E0B2680
:1015A200000E0C220D220E22D8900E320D320C3279
:1015B2000B32000E0B14056E000E0C14066E000E9C
:1015C2000D14076EFF0E0E14086E0550061007105C
:1015D2000810D8A4EFEF0AF0F1EF0AF0CEEF0AF00C
:1015E200F9EF0AF00A06D8900B360C360D360E3695
:1015F2000DBEFEEF0AF000EF0BF008EF0BF0020E4B
:101602000A6006EF0BF008EF0BF0F3EF0AF00AB0F6
:101612000DEF0BF00FEF0BF010EF0BF00D9ED890CB
:101622000A320AC005F0066A076A086A05C008F0AD
:10163200076A066A056A05500B1206500C1207501B
:101642000D1208500E120950D8B42AEF0BF02CEFED
:101652000BF034EF0BF004BE33EF0BF031EF0BF075
:1016620034EF0BF00E8E0BC001F00CC002F00DC077
:1016720003F00EC004F01200033404340A6E0A5060
:10168200D8A446EF0BF048EF0BF052EF0BF0000E30
:10169200016E000E026E000E036E000E046EBFEFAE
:1016A2000BF001C005F002C006F003C007F004C051
:1016B20008F0200E62EF0BF0D890083207320632A3
:1016C2000532E82E5DEF0BF00550096E038EFF0E1A
:1016D2000116FF0E0216FF0E0316000E0416960EDA
:1016E2000A5E0ABE79EF0BF077EF0BF08FEF0BF08B
:1016F2000A50800A970FD8B081EF0BF083EF0BF0FE
:1017020085EF0BF048EF0BF0D8900432033202322F
:1017120001320A3E85EF0BF0A7EF0BF01F0E0A64B1
:1017220095EF0BF097EF0BF09FEF0BF048EF0BF0FC
:10173200D89001360236033604360A060A50D8A477
:10174200A5EF0BF0A7EF0BF099EF0BF00950D8B40F
:10175200ADEF0BF0AFEF0BF0B7EF0BF0041E031E73
:10176200021E016C000E02220322042201C001F0BB
:1017720002C002F003C003F004C004F01200949C03
:10178200948E000E136E000E146E800E156E420EB5
:10179200166E51C001F052C002F0036A046A000ED4
:1017A20063EC0AF001C00FF002C010F003C011F0A8
:1017B20004C012F081EC06F00FC02CF010C02DF026
:1017C20011C02EF012C02FF0000E286E240E296ECA
:1017D200F40E2A6E4A0E2B6E96EC08F028C041F0E9
:1017E20029C042F02AC043F02BC044F0000E456EDF
:1017F200000E466E800E476EBF0E486E21EC04F05E
:1018020041C053F042C054F043C055F044C056F0BA
:1018120053C001F054C002F055C003F056C004F0AA
:101822003DEC0BF00150AF6E200EAC6E900EAB6E25
:101832001200720ED36E0F0EC16E95928C92250E0F
:10184200526E800E516EC0EC0BF075EC0CF0576EC0
:10185200310E5718D8A430EF0CF032EF0CF03BEFFA
:101862000CF08C821C0E026E080E036E57EC0CF00C
:1018720026EF0CF0300E5718D8A442EF0CF044EFCC
:101882000CF04DEF0CF08C922F0E026E080E036ED0
:1018920057EC0CF026EF0CF0010E026E080E036EF0
:1018A20057EC0CF026EF0CF000EF00F063EF0CF0B9
:1018B20002C0F6FF03C0F7FF0800F55088EC0CF0F9
:1018C200024A032A02C0F6FF03C0F7FF0800F550E0
:1018D2000009D8A46FEF0CF071EF0CF059EF0CF087
:1018E2000D0E88EC0CF012009EAA7AEF0CF07CEF41
:1018F2000CF075EF0CF0ABA281EF0CF083EF0CF063
:1019020086EF0CF0AB9800F0AB88AE501200016E7F
:101912009EA88EEF0CF090EF0CF089EF0CF001C056
:10192200ADFF1200000EF86E080EF76E00011AEFFE
:021932000CF0B7
:020000040020DA
:08000000FFFFFFFFFFFFFFFF00
:020000040030CA
:0E00000000081F1EFF0181FF0FC00FE00F4020
:00000001FF
